:100000002BC4000047C4000045C4000043C40000E6
:1000100041C400003FC400003DC400003BC40000D8
:1000200039C4000037C4000035C4000033C40000E8
:1000300031C400002FC40000B1C700002BC4000071
:1000400029C4000027C400003AC7000023C40000F0
:1000500021C400001FC400001DC400001BC4000018
:1000600019C4000017C400000C942C040C944A041A
:100070000C944A040C944A040C944A040C944A04C8
:100080000C944A040C944A040C944A040C944A04B8
:100090000C944A040C944A040C944A040C944A04A8
:1000A0000C94CE070C944A040C944A040C944A0411
:1000B0000C945F070C944A040C944A040C944A0470
:1000C0000C944A040C944A040C944A040C944A0478
:1000D000E019F419FE190A1A351A141A201A2B1AE3
:1000E00043264A26512658265F2666264A26202B76
:1000F00077288228AF287F28272AB42A5328C028A7
:10010000F229412A42296629E128402BF72AD428DE
:10011000CC2B7F28B32B402B42297F287F287F2898
:10012000D428C22B7728B42A000000000000000069
:10013000434F4E534F4C45000000C21C540E540E0A
:100140009C1D0E1E520E3B1A391DCC190038B01CD6
:100150003501000000000000004E554C4C4445564F
:10016000000000540E540E540E540E540E520E54F1
:100170000E540E520E0000520E000200000000004D
:1001800000004E414D45535041434500E917A41925
:10019000520E520E520E520E520E520E520E0000BF
:1001A000520E006E616D696E69742028646576690F
:1001B000636573293A0D0A004552524F5220474554
:1001C0005453544B2025730A006E616D6573706142
:1001D00063653A20646576696365206E616D6520AC
:1001E000257320746F6F206C6F6E670D0A006E614F
:1001F0006D6573706163653A2063616E6E6F742024
:100200006D6F756E742025640D0A000A0A416C6CCE
:1002100020757365722070726F63657373657320E8
:100220006861766520636F6D706C657465642E0A15
:100230000A000A57656C636F6D6520746F205869FA
:100240006E75210A0A0D0958696E75204F532043B7
:100250006F707972696768742028632920323031A1
:10026000322C20323031350A0D09446F75676C61CC
:100270007320452E20436F6D657220616E642043AC
:1002800052432050726573732C20496E632E0A0A04
:100290000D0958696E75204F5320666F72204156C4
:1002A000522061746D656761333238702076302E6C
:1002B000312028632920323032300A0D095261661C
:1002C00061656C2049676E6163696F205A75726958
:1002D0007461203C726166614066692E756E636F61
:1002E0006D612E6564752E61723E0A0A0D000A0D5D
:1002F000436F6D6D616E64733A0A0A0D00000190E0
:10030000019001800080008000C80080002C0180E6
:100310000040008000000100012C0100010031318B
:1003200000342F00D02B019C1F005432005D3000A0
:100330008632004F3201F430005E3001CF2D01A52E
:100340003100142E00E92D00C63000162D52054450
:100350000527051B050705FB04CA0497046E044521
:100360000429040704D803A50383036D035B6D6FA1
:100370006E5D2079656172203A2063616C656E6400
:10038000617200702076203A20736574207468656D
:1003900020706F7274207020776974682076616CA9
:1003A00075652076005B4D4D2F44442F59592048E8
:1003B000483A4D4D3A53535D203A20736574206F8F
:1003C00072206765742074686520646174652061BB
:1003D0006E642074696D65005B617267202E2E2E3D
:1003E0005D203A20777269746520617267756D656A
:1003F0006E747320746F207374616E646172642014
:100400006F7574707574003A20646973706C6179EB
:100410002063757272656E742070726F636573739A
:100420006573207461626C65003A20636C6561726B
:1004300020746865207465726D696E616C207363E9
:100440007265656E003A20646973706C6179206131
:100450006D6F756E74206F66206672656520616EC3
:10046000642075736564206D656D6F7279006E2010
:100470003A206B696C6C20287465726D696E6174CA
:1004800065732920746865206E20284944292070EE
:10049000726F63657373003A2072657365742074BC
:1004A00068652058696E752073797374656D207363
:1004B000772E2054484953204953204E4F542061F1
:1004C000206877207265736574003A2074656C6CDF
:1004D00020686F77206C6F6E67207468652058699C
:1004E0006E752073797374656D2068617320626521
:1004F000656E2072756E6E696E67003A20666F7267
:1005000020283B3B293B006E203A20736C656570C8
:10051000206E207365636F6E6473003A207468699F
:10052000732068656C70003A204241534943206C47
:10053000616E677561676520696E7465727072655A
:10054000746572003A207465787420656469746F0C
:1005500072003A20646973706C6179205352414D86
:10056000206D656D6F727920636F6E74656E747344
:1005700000E505DE05D805D305CD05C505BE05B7E3
:1005800005B205AD05A705A4059F059A059505913A
:100590000563616C006770696F0064617465006574
:1005A00063686F00707300636C65617200667265EA
:1005B00065006B696C6C007265626F6F74007570BA
:1005C00074696D6500666F726576657200736C653F
:1005D00065700068656C70006261736963006564D2
:1005E00069746F72006D656D64756D70001B5B449E
:1005F000201B5B4400556E696D706C656D656E7493
:10060000656400617661696C61626C652056415277
:10061000533A2041202D204A0020627974657320CE
:10062000667265652E000A57656C636F6D65207490
:100630006F2054696E79426173696320506C7573E1
:1006400020696E7465727072657465722076302EE2
:10065000313500536F7272792100486F773F005730
:100660006861743F20004F4B003EBD3CBEBEBD3CA8
:10067000BDBC21BD00535445D00054CF005045456A
:10068000CB4142D341524541C444524541C4524EEC
:10069000C4004C4953D44C4F41C44E45D75255CE5B
:1006A000534156C54E4558D44C45D449C6474F547E
:1006B000CF474F5355C25245545552CE5245CD4661
:1006C0004FD2494E5055D45052494ED4504F4BC53D
:1006D00053544FD04259C546494C45D34D45CDBFE3
:1006E000A74157524954C54457524954C544454CF3
:1006F00041D9454EC452534545C443484149CE00B3
:10070000440740073C073807340730072C07280701
:10071000240720071C071807446563004E6F760006
:100720004F63740053657000417567004A756C0033
:100730004A756E004D617900417072004D61720022
:10074000466562004A616E00205320204D2054759A
:10075000202057205468202046202053002D2D2093
:100760005B534156455D202620455849543A207038
:100770007265737320455343207468656E20212091
:100780002D2D007465787420656469746F72202D56
:1007900020706167653A000A0909746F74616C0919
:1007A0007573656409667265650A5352414D204D43
:1007B000656D09000A66726565206D656D206C695E
:1007C00073743A0A0D6164647209096C656E0A00FB
:1007D0000A6E616D6509696409706172656E7409FC
:1007E0007072696F0973746174650973746B6C65F9
:1007F0006E0973656D2077616974730A2D2D0A0087
:100800000A7461626C65206F662063757272656E32
:10081000742070726F6365737365730A0053756E2D
:100820004D6F6E54756557656454687546726953AB
:100830006174004A616E4665624D61724170724D2D
:1008400061794A756E4A756C4175675365704F637F
:10085000744E6F764465630011241FBECFEFD8E05D
:10086000DEBFCDBF12E0A0E0B1E0E6E6FEE602C0EA
:1008700005900D92A437B107D9F725E0A4E7B2E0BF
:1008800001C01D92AE37B207E1F70C94890C0E94AB
:10089000002023C6B5CBFF93EF93FC0100820FB677
:1008A000F89404A2118222823382448255826682A5
:1008B000778280869186A286B386C486D586E686B0
:1008C000F786008B118B228B338B448B558B668B79
:1008D000778B808F918FA28FB38FC48FD58F0F901E
:1008E000068E0F90078E0DB600A20EB601A2FB0178
:1008F00000A00DBE01A00EBE078C0F92068C0F92B9
:10090000D58DC48DB38DA28D918D808D77896689AB
:10091000558944893389228911890089F784E684BD
:10092000D584C484B384A2849184808477806680D3
:100930005580448033802280118004A00FBE008047
:10094000EF91FF910895A0E0B0E0E9EAF4E00C94A3
:1009500070338C01EB01FC018481682F660F680FF6
:100960008581582F550F580F9E0140E0862F840F28
:1009700090E0A0E0835E974FAF4FFC018491A7FD0C
:100980008081F90181939F01852F840F90E0A0E081
:100990008D5C974FAF4FFC018491A7FD8081F901D9
:1009A00083834F5F433011F780E28F838B83BE01D7
:1009B000685F7F4FF801838140E2082E000C990B9D
:1009C000D2D0BE01655F7F4FF80182814AE3082ED5
:1009D000000C990BC8D0BE01625F7F4FF801818186
:1009E0004AE3082E000C990BBED0BE016F5E7F4F0C
:1009F000F801808140E2082E000C990BB4D0F80178
:100A00008681978164E670E08459984F0E9427336D
:100A10006B017C01BE016C5E7F4F40E2C601A3D03A
:100A2000BE016A5E7F4F40E0C7019DD0CDB7DEB703
:100A3000E8E00C948C33A4E0B0E0E1E2F5E00C9443
:100A400070336C017B01E0917C05F0917D0530975E
:100A500029F068E775E009958C0102C00FEF1FEFE0
:100A6000F601408151816281738180917805909176
:100A70007905A0917A05B0917B05840F951FA61F7B
:100A8000B71F101611064CF4A801012E000C660BBE
:100A9000770B840F951FA61FB71F89839A83AB839B
:100AA000BC83B701CE01019670D0F701138702878E
:100AB0002496E8E00C948C33A4E0B0E0E2E6F5E0A4
:100AC0000C9470338C0128D169837A838B839C8347
:100AD000F8018285938597FF0EC0E0917C05F09127
:100AE0007D05309741F068E775E0CE0101960995E4
:100AF000F80193878287F801828593851816190675
:100B000094F4092E000CAA0BBB0B49815A816B810E
:100B10007C816A017B01C81AD90AEA0AFB0AC982E8
:100B2000DA82EB82FC8289819A81AB81BC8140911F
:100B300078055091790560917A0570917B05841B49
:100B4000950BA60BB70B89839A83AB83BC83B80143
:100B5000CE01019670DF69817A818B819C81249618
:100B6000E8E00C948C331F93CF93DF93EB01142FA9
:100B70006AE070E00E942733605D6883805D89834E
:100B80001A83DF91CF911F910895A8E0B0E0EBECBC
:100B9000F5E00C9470338B01FC01608171818281DE
:100BA000938120E831E541E050E00E949D336901E6
:100BB0007A012CE330E040E050E00E943A33298390
:100BC0003A834B835C8389819A81AB81BC81F80134
:100BD00060836CE370E00E942733DC01CB01F801F5
:100BE000A1838283C601069667E070E00E941333FA
:100BF00084832DEA3EE840E050E0C701B6010E9440
:100C00003A3329833A836D837E838F8398878981E2
:100C10009A8124E6289F6001299FD00C11246D81C0
:100C20007E818F81988525EB35E040E050E00E9481
:100C30003A3329833A836D837E83E980FA80EE0C10
:100C4000FF1CEE0CFF1CEC0CFD1C8D819E81F5E65B
:100C5000EF16F10410F0019604C024E6E216F10448
:100C600019F021E030E002C020E030E0A901445951
:100C70005E4F4817590768F46DE671E0821B930BCD
:100C80000E942733DC01CB01E80EF91ECD0120E0E4
:100C900030E044E6E40EF11CF801F782E682918729
:100CA0008087255C3F4F8217930748F46FE170E01F
:100CB0000E942733DC01CB01F801858322C069E95A
:100CC00070E0821B930B0E942733DC01CB01F82ECE
:100CD000FF0CFF0CF80E6DE370E0CD010E9427338E
:100CE000DC01CB01E82EEE0C6FE170E0CD010E943B
:100CF0002733DC01CB0122E0280FF20EFE0CF801B5
:100D0000F582A383F8011386128683818F5F838324
:100D10002896E8E00C948C33A0E0B0E0E2E9F6E03D
:100D20000C946C33EC01EE81FF818F0104561109A4
:100D3000B9F0CF01855691096C0197FF03C023E0FC
:100D4000C20ED11CD594C794D594C7946CE97FEF9B
:100D50000E942733C60ED71E8FEFC81AD80A02C0CA
:100D6000C12CD12C2DE631E0D8010E9427370D2C63
:100D7000000CEE08FF08C60ED71EE81EF91E8B8178
:100D8000082E000C990B8C01015011092D81223085
:100D90002CF4222371F1015E1F4F2BC0CF01845927
:100DA000984F64D0282F30E0255C3F4F200F311F33
:100DB0008D81082E000C990B02978530910514F057
:100DC00027563F4F65E070E00E942733AC0197FF44
:100DD00002C04F5F5F4F559547959DE3949F8001FB
:100DE000959F100D1124020F131F80FF02C0015E9A
:100DF0001F4FC801110FAA0BBB0B9C01AD012C0D9D
:100E00003D1D4E1D5F1D60E871E581E090E00E9490
:100E100004334B015C01AA810A2E000CBB0B20E1BC
:100E20003EE00E9427376B017C01A9810A2E000C4D
:100E3000BB0B2CE330E00E942737C60ED71EE81EFE
:100E4000F91E6881862F660F990BAA0BBB0B8C0DC0
:100E50009D1DAE1DBF1DBC01CD01680D791D8A1DF4
:100E60009B1DCDB7DEB7ECE00C9488339C0123705A
:100E70003327232B59F464E670E00E942733892B33
:100E800039F46370772781E0672B19F080E00895CB
:100E900081E00895E0910401F0910501158287E653
:100EA000848386E0828388E981830895E091040148
:100EB000F0910501908195FFFDCF868308951F92E3
:100EC0000F920FB60F9211242F933F934F935F937E
:100ED0006F937F938F939F93AF93BF93EF93FF9302
:100EE0004091C6004093900220E030E061E070E065
:100EF00080E090E00E94B01CFF91EF91BF91AF9114
:100F00009F918F917F916F915F914F913F912F9121
:100F10000F900FBE0F901F901895A4E0B0E0E3E98A
:100F2000F7E00C94743319821A821B821C82198296
:100F30001A821B821C8209811A812B813C8106172F
:100F400017072807390770F4000009811A812B81DF
:100F50003C810F5F1F4F2F4F3F4F09831A832B8315
:100F60003C83E9CF2496E4E00C94903380E284B98A
:100F70002D9A60E47DE083E090E0CFDF2D9860E47F
:100F80007DE083E090E0C9CF1092B9021092BA02DE
:100F90001092BB021092BC0281E008951F920F9242
:100FA0000FB60F9211242F933F934F935F936F933C
:100FB0007F938F939F93AF93BF93EF93FF93809112
:100FC000C3029091C402A091C502B091C6020196DD
:100FD000A11DB11D8093C3029093C402A093C502CA
:100FE000B093C602883E9340A105B105D8F0809128
:100FF000C7029091C802A091C902B091CA0201969D
:10100000A11DB11D8093C7029093C802A093C9028D
:10101000B093CA021092C3021092C4021092C50289
:101020001092C6028091BD029091BE0226E0289FD8
:10103000F001299FF00D1124EB59FB4F8281938120
:101040008430910584F4289FF001299FF00D11242C
:10105000EB59FB4F80819181019791838083892B8C
:1010600011F40E940E158091BF029091C002A091D0
:10107000C102B091C2020197A109B10949F0809360
:10108000BF029093C002A093C102B093C2020EC0EF
:1010900081E090E0A0E0B0E08093BF029093C002B6
:1010A000A093C102B093C2020E948C11FF91EF91F4
:1010B000BF91AF919F918F917F916F915F914F9170
:1010C0003F912F910F900FBE0F901F90189534D71E
:1010D0009093BE028093BD0281E090E0A0E0B0E07A
:1010E0008093BF029093C002A093C102B093C2024A
:1010F0001092C7021092C8021092C9021092CA023E
:101100001092C3021092C4021092C5021092C6023D
:1011100085B5836085BD84B5826084BD89EF87BD58
:10112000EEE6F0E08081826080830895CF92DF92C6
:10113000EF92FF92CF93DF936B017C01ABD5D82F59
:1011400083E0C816D104E104F10420F08D2FA5D569
:10115000CFEF11C029E22C9DC0012D9D900D1124CF
:10116000885D9E4FFC0176960590F491E02D0995DF
:10117000C82F8D2F92D58C2FDF91CF91FF90EF90BC
:10118000DF90CF9008954F925F926F927F92AF92CF
:10119000BF92CF92DF92EF92FF920F931F93CF9364
:1011A000DF93CDB7DEB729970FB6F894DEBF0FBE39
:1011B000CDBF2B013C0129833A834B835C83ED82B5
:1011C000FE820F8318877601650164D5898783E0E5
:1011D000481651046104710428F089855ED58FEFAB
:1011E000898319C029E2249DC001259D900D1124F9
:1011F000885D9E4FFC01B2960590F491E02D0D8123
:101200001E812F81388549815A816B817C810995A6
:101210008983898542D5898129960FB6F894DEBFE6
:101220000FBECDBFDF91CF911F910F91FF90EF9037
:10123000DF90CF90BF90AF907F906F905F904F9076
:101240000895A6E0B0E0E7E2F9E00C9466332B8D58
:1012500029838C8CED8CFE8C09A13AA13E831AD592
:10126000982E40E4E416F1041CF470E4E72EF12C0F
:1012700083E0E80EF11C9CEFE92227010F2C000C03
:1012800066087708C301B20196D21C01019679F471
:1012900088EB91E00E94CD15892DFFD4FFEFFA83F2
:1012A0002FEF2B833FEF3C834FEF4D8309C13091EC
:1012B0007402209175028091760290917702A12CA0
:1012C000B12C1BE5632F722F24E030E040E050E0AA
:1012D0000E943A336B017C016A83DB82EC82FD82DF
:1012E000169FF001179FF00D1124E153FD4F8081EF
:1012F0009181B701A6014F5F5F4F6F4F7F4F892BE1
:1013000079F440937402509375026093760270935F
:1013100077028FEFC816D806E806F806A1F4B8CF12
:10132000342F252FCB01EFEFAE1ABE0AF4E0AF1633
:10133000B10441F6409374025093750260937602B3
:1013400090937702A5CF2F8D38A1121613060CF0BB
:101350009FCF80913B0490913C04A0913D04B091BB
:101360003E040196A11DB11D80933B0490933C0463
:10137000A0933D04B0933E0485E090E09183808388
:101380003383228331AE20AE42AE53AE64AE75AE2F
:10139000DF01AB5BBF4F1C92A02FBE818F0180E0AD
:1013A00090E02D91F801E80FF91F26AF222321F0DC
:1013B000019687309105A9F72BE52C9DC0012D9D45
:1013C000900D1124FC01E153FD4F5F01EA5BFF4FDB
:1013D0008FEF9FEF91838083E5D1F501E85BFF4FAD
:1013E0006083718382839383389610823196118251
:1013F00010823296118210823296118210828AEA0D
:10140000F10180838BA19CA1F50193A782A720E025
:1014100030E0F801E20FF31F14822F5F3F4F2632B6
:101420003105B9F72BE52C9DF0012D9DF00D112410
:10143000E153FD4F298124AB85AA26A387A220E88A
:1014400020A7DE01959620E030E02817390764F4E4
:101450004D915D91F901EE0FFF1FE00FF11F55A7B0
:1014600044A72F5F3F4FF1CFFC017696EE0FFF1F91
:101470004BE54C9D90014D9D300D1124E20FF31F63
:10148000E153FD4F11821082F901E153FD4F848F2A
:10149000958F25503D4F228F338F82EC94E1D101FF
:1014A00011978C9311979C93119739813C931197C5
:1014B0008C9245E0241A310824A235A2892DEDD35F
:1014C0006A817B818C819D812696E2E10C94823336
:1014D00061E070E080E090E0089564D1E7C3A0E0AF
:1014E000B0E0E5E7FAE00C946C33EC016A017B01B3
:1014F000D1D3C114D104E104F10409F447C020910F
:10150000610430916204C217D30708F43FC02091F0
:101510006304309164042C173D07C0F197E0C90EB5
:10152000D11CE11CF11C98EFC922A601DD0C660B51
:10153000770BE0915B04F0915C04ABE5B4E030978D
:1015400041F0EC17FD0740F5DF010190F081E02D3F
:10155000F6CF94E0AB35B907D1F11296CD90DD907E
:10156000ED90FC9015978D010B2E000C220B330B88
:101570000C0D1D1D2E1D3F1D6E010D2E000CEE08C5
:10158000FF08C016D106E206F30618F486D38FEFE3
:1015900082C0309741F41EC094E0AB35B907E9F63C
:1015A00000E010E098016E010D2E000CEE08FF081F
:1015B000C40ED51EE61EF71E4F010F2E000CAA0802
:1015C000BB088C149D04AE04BF0420F4DFCF00E000
:1015D00010E09801C0905D04D0905E04E0905F043C
:1015E000F0906004C40ED51EE61EF71EC0925D0486
:1015F000D0925E04E0925F04F09260046E010D2EC2
:10160000000CEE08FF08C016D106E206F30691F4BE
:1016100012960D911D912D913C911597400F511FE0
:10162000621F731F12964D935D936D937C93159774
:10163000ED0108C0F983E8834A835B836C837D8373
:10164000CD93DC934A815B816C817D818E010D2E6F
:10165000000C220B330B040F151F261F371F6F01C1
:101660000F2E000CEE08FF080C151D052E053F057A
:1016700081F40281138124813581400F511F621F43
:10168000731F4A835B836C837D832081318139831F
:10169000288303D381E0CDB7DEB7ECE00C94883328
:1016A000CF92DF92EF92FF92CF93DF936B017C0199
:1016B000F1D2D82F83E0C816D104E104F10420F060
:1016C0008D2FEBD2CFEF11C029E22C9DC0012D9DB3
:1016D000900D1124885D9E4FFC017E960590F4913B
:1016E000E02D0995C82F8D2FD8D28C2FDF91CF9167
:1016F000FF90EF90DF90CF90089526E0AC01249FFB
:10170000C001259F900D1124FC01EB59FB4F428134
:101710005381443051051CF5BA01052E000C880B8D
:10172000990B249FF001259FF00D1124EB59FB4FDD
:10173000A281B38144815581249FF001259FF00D42
:101740001124EB59FB4FB383A2832A9FF0012B9FF7
:10175000F00D1124EB59FB4F5583448308956FEF2F
:101760007FEFCB01089546E0469FF001479FF00DC3
:101770001124EB59FB4FA281B38124813581429F13
:10178000F001439FF00D1124EB59FB4FB383A2836B
:101790004A9FF0014B9FF00D1124EB59FB4F35830D
:1017A000248308956091CB027091CC028091CD0288
:1017B0009091CE020895A0E0B0E0E1EEFBE00C9441
:1017C00070336B017C0166D2C114D104E104F104D1
:1017D00049F197E0C90ED11CE11CF11C98EFC92218
:1017E0000D2C000CEE08FF08E0915B04F0915C0406
:1017F000A0E0B0E0C0E0D0E02BE534E0309781F02D
:1018000042815381648175814C155D056E057F05AC
:1018100010F0D901EF019F010190F081E02DEECF92
:10182000209721F43AD28FEF9FEF41C00A811B81AC
:101830002C813D81C016D106E206F30629F42881E9
:1018400039812D933C9311C00C191D092E093F09B4
:101850000A831B832C833D83AE01DD0F660B770B60
:10186000040F151F261F371FE80140915D0450919A
:101870005E0460915F04709160044C195D096E090B
:101880007F0940935D0450935E0460935F047093FE
:10189000600403D2D701C6010497A109B109AE01C2
:1018A000DD0F660B770B840F951FA61FB71FCDB7F3
:1018B000DEB7E8E00C948C33CF92DF92EF92FF9288
:1018C000CF93DF936B017C01E5D1D82F83E0C8165D
:1018D000D104E104F10420F08D2FDFD1CFEF11C04E
:1018E00029E22C9DC0012D9D900D1124885D9E4FF5
:1018F000FC0172960590F491E02D0995C82F8D2F6B
:10190000CCD18C2FDF91CF91FF90EF90DF90CF90D3
:1019100008957DD389E191E09F938F93A7D282E3CD
:1019200092E00E94CD15D1D210923B0410923C045B
:1019300010923D0410923E041092C7041092C80405
:101940001092C9041092CA04EFECF2E00F900F90CD
:101950001182108216AE11AE10AE13821282E55AB9
:10196000FF4F84E0EB33F80799F7CFE3D4E00BE5C2
:1019700014E0188219821A821B821C82DDD29E8397
:101980008D8327960C171D07A1F7FEDAD5D2909309
:10199000C6048093C50460E070E0CB018DDF61E098
:1019A00070E080E090E088DF62E070E080E090E04E
:1019B00083DF8DDBE0915B04F0915C0480E090E0DC
:1019C000DC01309761F04281538164817581840F1D
:1019D000951FA61FB71F0190F081E02DF2CFBF9396
:1019E000AF939F938F9387E291E09F938F933ED223
:1019F0001F921F921F921F928DE391E09F938F93EE
:101A00001F928AE08F931F9280E48F931F921F9200
:101A100018DC2BE5269FF001279FF00D1124E153E0
:101A2000FD4F81E090E09183808339D11F921F9216
:101A30001F921F9283E491E09F938F931F9284E102
:101A40008F9381E08F9388EB8F9380E090E29F9358
:101A50008F93F7DB32D58DB79EB74E960FB6F894BD
:101A60009EBF0FBE8DBFFFCF1F93CF93DF93FA01B1
:101A700034973B9708F054C0643071058105910597
:101A800008F04EC03BE5369FF001379FF00D112462
:101A9000E153FD4F0190F081E02DEF2B09F440C0A0
:101AA00036E0349FF001359FF00D1124EB59FB4FC8
:101AB00042815381022E000C330BC6E016E0C49F16
:101AC000F001C59FF00D1124EB59FB4FA081B181AE
:101AD000A217B30718F042815381F0CFC481D5819A
:101AE000169FD001179FB00D1124AB59BB4F139611
:101AF0005C934E9312971596DC93CE9314972D9387
:101B00003C931C9FD0011D9FB00D1124AB59BB4FBE
:101B100013967C936E9312977583648381E001C062
:101B20008FEFDF91CF911F9108954F925F926F9247
:101B30007F928F929F92AF92BF92CF92DF92EF925D
:101B4000FF92CF93DF9300D000D0CDB7DEB76B010B
:101B50007C01CA0104970B9708F088C084E0C8167E
:101B6000D104E104F10408F081C08BE58C9DF00103
:101B70008D9DF00D1124E153FD4F80819181892BC2
:101B800009F474C04A01052E000CAA08BB0886E0BF
:101B9000849FF001859FF00D1124EB59FB4F82814A
:101BA0009381092E000CAA0BBB0B4F5F5F4F2A01DC
:101BB000550F6608770849825A826B827C8266E0FC
:101BC00049805A806B807C8084159505A605B705F1
:101BD00069F566E06C9DF0016D9DF00D1124EB59E7
:101BE000FB4F538242829582848231832083689D99
:101BF000A001699D500D1124FA01EB59FB4FD382CE
:101C0000C282649DF001659DF00D1124EB59FB4FDC
:101C1000D582C48284159505A605B70529F1808172
:101C20009181821B930B918380831EC0689FF0017A
:101C3000699FF00D1124EB59FB4F4081518124170E
:101C4000350758F0241B350B428153814C015D014F
:101C5000CA01550FAA0BBB0BB3CF2C013D018981E3
:101C60009A81AB81BC81B5CF81E001C08FEF0F902D
:101C70000F900F900F90DF91CF91FF90EF90DF903A
:101C8000CF90BF90AF909F908F907F906F905F901C
:101C90004F9008958FB7F89408958FBF0895789462
:101CA0000895FFCF8FEF089581E00895AF92BF921E
:101CB000CF92DF92EF92FF921F93CF93DF936B014E
:101CC0007C01E8DF182F84E0C816D104E104F10498
:101CD00088F48BE58C9DF0018D9DF00D1124E1536E
:101CE000FD4F80819181892B29F0C114D104E10439
:101CF000F10421F4812FD1DF8FEF9DC080913B044F
:101D000090913C04A0913D04B0913E040197A1093B
:101D1000B10980933B0490933C04A0933D04B0939D
:101D20003E040297A105B1050CF4E7D68BE58C9D26
:101D300050018D9DB00C1124F501E95EFC4F6081CE
:101D4000718182819381A7019601A4D4C0E0D0E083
:101D5000FE01EA0DFB1DE05EFC4F60817181072EE4
:101D6000000C880B990BE2D92296C630D10581F779
:101D70008BE58C9DE0018D9DD00D1124C153DD4F6D
:101D80004AAD5BAD6CAD7DAD495F5F4F6F4F7F4F2F
:101D9000487F052E000C660B770B88AD99AD092E98
:101DA000000CAA0BBB0B0496A11DB11D841B950B47
:101DB000A60BB70B94DB888199818430910581F063
:101DC00030F48130910549F0029729F127C086301F
:101DD000910551F0079721F021C0198218829CD2F9
:101DE000C701B60180D51AC0CA5BDF4F88819981CF
:101DF00027E0289FF001299FF00D1124E15CFB4FA3
:101E000081819281A381B4810196A11DB11D81833D
:101E10009283A383B483C701B601A5DC8BE58C9DB7
:101E2000F0018D9DF00D1124E153FD4F11821082C0
:101E3000812F33DF81E0DF91CF911F91FF90EF90F1
:101E4000DF90CF90BF90AF900895CF93DF93C82FCE
:101E500021DFD82FCA3011F48DE028D88C2F26D856
:101E60008D2F1BDF81E0DF91CF910895A1E5B0E0D8
:101E7000ECE3FFE00C9472338E01065A1F4FF80119
:101E8000E190F1908F0121E530E040E050E060E02A
:101E900070E0CE0101960E9466349801A70160E5CA
:101EA00070E0CE0101960E947C348E010F5F1F4FBF
:101EB000F80181918F01882311F0C7DFF9CF81E00C
:101EC000CF5ADF4FE6E00C948E330F931F93CF93DE
:101ED000DF938EE795E0A0E8BB270196A11DB11D19
:101EE000EC0190936204809361042FEF38E030930B
:101EF000640420936304EBE5F4E09183808319820A
:101F00001882092E000CAA0BBB0B4FEF58E060E0C3
:101F100070E08A019B01081B190B2A0B3B0B0A83FB
:101F20001B832C833D830283138324833583DF91BA
:101F3000CF911F910F9108952091060130910701D3
:101F40002031310544F5C901029690930701809331
:101F50000601A9014F5F5F4F66E0629FF001639F3A
:101F6000F00D1124EB59FB4F538342838FEF9FEF0A
:101F70009583848391838083649FF001659FF00D36
:101F80001124EB59FB4F9383828335832483118281
:101F90001082C90108958FEF9FEF08958F929F924D
:101FA000AF92BF92EF92FF920F931F93CF93DF9365
:101FB0004B015C018A0179016DDED82F83E0881620
:101FC0009104A104B10420F08D2F67DECFEF13C080
:101FD00029E2289DC001299D900D1124885D9E4F06
:101FE000FC0174960590F491E02DA701B8010995C4
:101FF000C82F8D2F52DE8C2FDF91CF911F910F9123
:10200000FF90EF90BF90AF909F908F900895F894BD
:102010000E94B6070E94B6070E944A0759CACF928B
:10202000DF92EF92FF92CF93DF936B017C01C42F7D
:1020300031DED82F83E0C816D104E104F10420F08A
:102040008D2F2BDECFEF12C029E22C9DC0012D9DDC
:10205000900D1124885D9E4FFC01B0960590F4917F
:10206000E02D6C2F0995C82F8D2F17DE8C2FDF9157
:10207000CF91FF90EF90DF90CF900895CF93DF93B3
:102080009A01245031092B303105E8F5643071058F
:1020900081059105C0F52BE5269FF001279FF00DE6
:1020A0001124E153FD4F20813181232B61F14F5FDA
:1020B0005F4F26E0249FF001259FF00D1124EB597E
:1020C000FB4FC481D581269FD001279FB00D1124DD
:1020D000AB59BB4F13965C934E9312971596DC93B6
:1020E000CE9314972C9FD0012D9FB00D1124AB5986
:1020F000BB4F13967C936E93129775836483462F20
:10210000372F282F04C04FEF3FEF2FEF9FEF642FA3
:10211000732F822FDF91CF910895CF939C0124508C
:1021200031092B303105F8F4C6E0C89FF001C99F92
:10213000F00D1124EB59FB4F2281338124303105FE
:1021400094F4DBDAC69FF001C79FF00D1124EB5920
:10215000FB4F2FEF3FEF3583248333832283462FBA
:10216000372F282F04C04FEF3FEF2FEF9FEF642F43
:10217000732F822FCF9108954F925F926F927F922B
:102180008F929F92AF92BF92EF92FF920F931F9305
:10219000CF93DF932B013C017A01480159017ADD8D
:1021A000D82F83E0481651046104710420F08D2F6C
:1021B00074DDCFEF14C029E2249DC001259D900D50
:1021C0001124885D9E4FFC0178960590F491E02DD6
:1021D000A5019401B7010995C82F8D2F5EDD8C2FC5
:1021E000DF91CF911F910F91FF90EF90BF90AF9033
:1021F0009F908F907F906F905F904F900895643084
:10220000710581059105C8F42BE5269FF001279FF4
:10221000F00D1124E153FD4F20813181232B69F012
:1022200022E030E0318320834091C5045091C60400
:1022300022811ADC71D081E008958FEF0895CF924A
:10224000DF92EF92FF92CF9325DDC82FC090CB0293
:10225000D090CC02E090CD02F090CE028BE58C9D28
:10226000F0018D9DF00D1124E153FD4FDF01A05BC6
:10227000BF4F8C91811105C083E090E091838083F2
:102280004BD02BE52C9DC0012D9D900D1124815329
:102290009D4FFC01E45BFF4FC080D180E280F38062
:1022A000349610828C2FF9DCC701B601CF91FF90D4
:1022B000EF90DF90CF900895CF92DF92EF92FF9250
:1022C000E9DC4091CB025091CC026091CD0270913B
:1022D000CE029BE5949F9001959F300D11242153D0
:1022E0003D4FF901E05BFF4F9081913049F4D901F6
:1022F000A45BBF4FCD90DD90ED90FC90108204C0A8
:10230000C12CD12C7601C394C8DCC701B601FF9063
:10231000EF90DF90CF900895CF92DF92EF92FF92EF
:102320008091C7049091C804A091C904B091CA04D7
:10233000181619061A061B0624F481E08093CB04B4
:102340006BC0C090CB02D090CC02E090CD02F09058
:10235000CE028BE58C9DF0018D9DF00D1124E15393
:10236000FD4F80819181019729F522813381409130
:10237000C5045091C60486E0849FD001859FB00DAE
:102380001124AB59BB4F12966D917C911397869F88
:10239000D001879FB00D1124AB59BB4F8D919C91FB
:1023A00082179307C8F182E090E091838083C70190
:1023B000B6015ADB8091C5049091C604AEDE6093ED
:1023C000CB027093CC028093CD029093CE022BE58A
:1023D000269FD001279FB00D1124FD01E153FD4F31
:1023E00041E050E05183408341E050E060E070E024
:1023F0004093BF025093C0026093C1027093C20227
:10240000BD016D527D4F2C9DC0012D9D900D11245D
:102410008D529D4F0E944B04FF90EF90DF90CF9024
:102420000895613071058105910531F062307105C3
:1024300081059105F1F03FC08091C7049091C804D7
:10244000A091C904B091CA04AC01BD014F5F5F4FB8
:102450006F4F7F4F4093C7045093C8046093C904E3
:102460007093CA04892B8A2B8B2B19F51092CB04FD
:1024700020C08091C7049091C804A091C904B09174
:10248000CA04181619061A061B06ACF40197A1090E
:10249000B1098093C7049093C804A093C904B09372
:1024A000CA04892B8A2B8B2B21F48091CB048111B8
:1024B00033DF81E008958FEF0895CF92DF92EF929E
:1024C000FF921F93CF93DF936B017C01E3DB182F07
:1024D00084E0C816D104E104F10470F48BE58C9D0E
:1024E000F0018D9DF00D1124E153FD4F808191810C
:1024F000009711F0059729F0812FCFDB8FEF9FEF29
:1025000009C0D281C381C701B60179DE812FC5DB45
:102510008D2F9C2FDF91CF911F91FF90EF90DF9037
:10252000CF900895CF93DF93EC01B4DBC430D10595
:1025300058F497E09C9FF0019D9FF00D1124E15C01
:10254000FB4F9081911103C0A8DB8FEF03C0C181C5
:10255000A4DB8C2FDF91CF910895CF92DF92EF9281
:10256000FF92CF93DF936B017C0194DBF7FE04C0F5
:1025700094DBCFEFDFEF35C0C0917802D0917902C4
:1025800040E050E097E09E012F5F3F4F243031053F
:1025900014F020E030E09C9FF0019D9FF00D11248D
:1025A000E15CFB4F6081611110C030937902209390
:1025B000780291E09083CF3F9FEFD907C9F2C182A3
:1025C000D282E382F48269DB0CC04F5F5F4F4430FC
:1025D000510511F0E901D7CF3093790220937802A9
:1025E000C7CFCE01DF91CF91FF90EF90DF90CF90DA
:1025F0000895AF92BF92CF92DF92EF92FF921F9316
:10260000CF93DF93EC016A017B0144DB182FF7FCC9
:102610000EC0C430D10558F487E08C9FF0018D9F27
:10262000F00D1124E15CFB4F8081811104C0812FEA
:1026300034DB8FEF25C0A580B68061E070E080E0DC
:1026400090E0EFDEC50159D86F3F2FEF7207820788
:10265000920711F0D4DDF6CF87E08C9FF0018D9FBB
:10266000F00D1124E15CFB4FC182D282E382F4823F
:1026700062E070E080E090E0D4DE812F0EDB81E04C
:10268000DF91CF911F91FF90EF90DF90CF90BF909F
:10269000AF9008958F929F92AF92BF92CF92DF92A8
:1026A000EF92FF92CF934B015C0169017A01F2DA5C
:1026B000C82F84E088169104A104B10490F48BE53E
:1026C000889DF001899DF00D1124E153FD4F80811B
:1026D0009181009731F0DF01A05BBF4F2C91222345
:1026E00021F08C2FDADA8FEF16C0E45BFF4FC08247
:1026F000D182E282F38221E02C938330910529F08C
:10270000079731F4C501B401EED0C501B40177DDFE
:102710008C2FC3DA81E0CF91FF90EF90DF90CF90C4
:10272000BF90AF909F908F9008950F931F93CF937A
:102730008C01B0DAC82F0430110558F487E0809F6F
:10274000F001819FF00D1124E15CFB4F808181112C
:1027500004C08C2FA2DA8FEF17C081819281A381F0
:10276000B481AC01BD014F5F5F4F6F4F7F4F41831D
:10277000528363837483B7FF04C085819681CDDC67
:102780003EDD8C2F8ADA81E0CF911F910F91089561
:10279000A0E0B0E0EEECF3E10C946F338C016A0141
:1027A0007B0178DAB82E0430110568F4F7FC0BC011
:1027B00087E0809FE001819FD00D1124C15CDB4F39
:1027C0008881811104C08B2D68DA8FEF31C061E000
:1027D00070E080E090E025DE8E010F5F1F4F2596B0
:1027E000C114D104E104F104D9F0F8018081918190
:1027F000A281B381AC01BD014F5F5F4F6F4F7F4F2F
:102800004083518362837383B7FF04C088819981B9
:1028100084DCF5DCF1E0CF1AD108E108F108E0CF63
:1028200062E070E080E090E0FCDD8B2D36DA81E044
:10283000CDB7DEB7E9E00C948B33CF92DF92EF9205
:10284000FF92CF93DF9397FD33C06B017C01672B21
:10285000682B692B11F455D129C01CDAD82F40916F
:10286000BD025091BE026091CB027091CC0280916A
:10287000CD029091CE02960158D9C82F8F3F19F4FE
:102880008D2F0BDA16C08091CB029091CC022BE5F4
:10289000289FF001299FF00D1124E153FD4F84E0A2
:1028A00090E09183808338DD8D2FF7D9C1E001C09E
:1028B000CFEF8C2FDF91CF91FF90EF90DF90CF90F3
:1028C00008956C3924EC720720E28207910548F4E0
:1028D0009B01AC01A8EEB3E00E945C33AEDF81E067
:1028E00008958FEF0895CF92DF92EF92FF92CF93EA
:1028F0006B017C01CFD9C82F84E0C816D104E10454
:10290000F10488F48BE58C9DF0018D9DF00D112470
:10291000E153FD4F80819181009729F0843091052A
:1029200031F0079721F08C2FB8D98FEF25C026E022
:102930002C9DD0012D9DB00D1124AB59BB4F12968B
:102940008D919C911397843091057CF4289FF00120
:10295000299FF00D1124EB59FB4F208131818D917E
:102960009C91820F931F91838083C701B6010E94BF
:10297000B30B8C2F92D981E0CF91FF90EF90DF9035
:10298000CF9008950E94D20B91C91F93CF93DF93EC
:10299000EC0180D9182FC430D10558F487E08C9F02
:1029A000F0018D9FF00D1124E15CFB4F80818111BE
:1029B00004C0812F72D98FEF2DC081819281A381B4
:1029C000B4810197A109B10981839283A383B48360
:1029D000B7FF1DC06091CB027091CC028091CD02F7
:1029E0009091CE022BE5269FD001279FB00D112498
:1029F000A153BD4F26E030E011963C932E93AA5B85
:102A0000BF4FCD93DC934581568138DB85DC812F28
:102A100044D981E0DF91CF911F910895CF9361E078
:102A200070E080E090E0FDDCC6E08091BD02909116
:102A3000BE02C89FF001C99FF00D1124EB59FB4F56
:102A4000228133812430310574F4C29FF001C39F89
:102A5000F00D1124EB59FB4F20813181232B19F408
:102A60005CDBCDDBE2CF62E070E080E090E0D9DCBF
:102A7000CF9108954F925F926F927F928F929F9223
:102A8000AF92BF92EF92FF920F931F93CF93DF937A
:102A90002B013C017A0148015901FCD8D82F83E071
:102AA000481651046104710420F08D2FF6D8CFEF41
:102AB00014C029E2249DC001259D900D1124885D3C
:102AC0009E4FFC017A960590F491E02DA5019401AA
:102AD000B7010995C82F8D2FE0D88C2FDF91CF91AA
:102AE0001F910F91FF90EF90BF90AF909F908F90AC
:102AF0007F906F905F904F9008958BE092E04DD063
:102B0000D0C8CF93C7D8C82F07DC8C2FC6D881E098
:102B1000CF910895823621F415B88FEF84B965B945
:102B20000895823611F485B108958FEF08951F93AB
:102B3000CF93DF93162F89303CF4C1E001C0CC0F56
:102B40008A95EAF7D4E617C0282F082E000C330B1D
:102B50008E304CF428503109C1E001C0CC0F2A95C9
:102B6000EAF7D2E608C02D503109C1E001C0CC0F10
:102B70002A95EAF7D3E68D2FD4DF112319F06C2FB5
:102B8000682B03C0C0956C2F68238D2FC3DF80E0B6
:102B900090E0DF91CF911F9108950F931F93CF93F2
:102BA000DF938C010E944034E801080F191FC01701
:102BB000D10731F0FE01219685910E945607F7CF8B
:102BC000DF91CF911F910F9108950F931F93009163
:102BD000CB021091CC022091CD023091CE026BE558
:102BE000609FA001619F500D1124FA01EC5EFC4F23
:102BF0001082DC0120E030E09D91F901E40FF51F27
:102C0000E153FD4F96AF992329F02F5F3F4F2730B7
:102C1000310591F71F910F910895A0E1B0E0E3E134
:102C2000F6E10C9474338C014091CC045091CD04A6
:102C30006091CE047091CF048091C7029091C80238
:102C4000A091C902B091CA02840F951FA61FB71F99
:102C50008D879E87AF87B88BBE016F5F7F4FCE0198
:102C60000D960E941B05B801CE0101960E94A30497
:102C70006096E4E00C949033AFE0B0E0E2E4F6E17B
:102C80000C946E338C011F86FC0180818D878181BD
:102C90008E87CE010D960E942334D82EF8018381B1
:102CA0008D8784818E87CE010D960E942334C82E95
:102CB000F80186818D8787818E87CE010D960E94CF
:102CC00023347C01F80181858D8782858E87CE0132
:102CD0000D960E942334B82EF80184858D87858552
:102CE0008E87CE010D960E942334A82EF801878589
:102CF0008D8780898E87CE010D960E94233489832B
:102D0000AA82BB82DA94DE82CC82F4E6EF0EF11C5A
:102D1000F886EF821C861B86CE0101960E945C0518
:102D20000091C7021091C8022091C9023091CA02D5
:102D3000DC01CB01801B910BA20BB30B8093CC0465
:102D40009093CD04A093CE04B093CF0480E090E0A4
:102D50002F96EAE00C948A33A1E5B0E0E2EBF6E1CD
:102D60000C94703321E530E040E050E060E070E02A
:102D7000CE0101960E9466349E01205A3F4FA096D4
:102D80004EAD5FADA09760E570E0CE0101960E9468
:102D90007C348E010F5F1F4F6E96CEACDFAC6E970A
:102DA0000D2C000CEE08FF08F80141918F0144231F
:102DB00021F0C701B60133D9F7CF80E090E0CF5AB8
:102DC000DF4FE8E00C948C33A1E5B0E0EAEEF6E1E9
:102DD0000C9473339E01275A3F4FF9014191519151
:102DE0009F0161E570E0CE0101960E947C348E0166
:102DF0000F5F1F4F8BE5F82EF8018081882359F172
:102E00008A3099F48091CB029091CC02F89EF00127
:102E1000F99EF00D1124EE5DFC4F60817181072E4B
:102E2000000C880B990B4DE0FAD88091CB02909161
:102E3000CC02F89EF001F99EF00D1124EE5DFC4FDE
:102E400060817181072E000C880B990BF80141916C
:102E50008F01E5D8D1CF80E090E0CF5ADF4FE5E099
:102E60000C948F330F931F9300E010E09801041728
:102E700015072607370764F4DC01ED91CD010F5FDC
:102E80001F4F2F4F3F4FE111F2CFB801C90104C0CE
:102E90006FEF7FEF8FEF9FEF1F910F910895A6E0E7
:102EA000B0E0E5E5F7E10C946633182F9C831B0135
:102EB00069017A010E944A0E082F40E150E060E06B
:102EC00070E0812F9C81CEDF4B015C0141E050E03E
:102ED00060E070E0C101C6DF2B013C012FEF8216DC
:102EE0009206A206B20649F16F3F7F4F8F4F9F4F68
:102EF00021F153E0C516D104E104F104F0F480910E
:102F0000D0049091D104A091D204B091D304843024
:102F10009105A105B1058CF419831C811A8325E163
:102F2000289FA001299F500D11245E834D8320E02E
:102F300030E040E050E0BA0105C0802F0E944D0E05
:102F40008FEF43C0481559056A057B059CF4E9815C
:102F5000FA811191FA83E983ED81FE81E20FF31F7B
:102F6000EC52FB4F10834F5F5F4F6F4F7F4F2F5FD0
:102F70003F4FE8CF14141504160417045CF4F10154
:102F8000208135E1389FF001399FF00D1124EC527A
:102F9000FB4F208B25E1289FF001299FF00D112484
:102FA000EC52FB4FC18AD28AE38AF48A0196A11DB2
:102FB000B11D8093D0049093D104A093D204B09318
:102FC000D304802F0E944D0E81E02696E2E10C94FE
:102FD0008233A0E2B0E0EFEEF7E10C94683386E0D4
:102FE000EFE4F1E0DE015B9601900D928A95E1F746
:102FF0001092D0041092D1041092D2041092D304F3
:1030000083EA91E0CADD88E2E82E81E0F82E88E0CC
:1030100090E09C0128523140690198E4892E91E0AA
:10302000992EDE015B968E010F5F1F4F412C512CB4
:10303000320158018D91F8018193882339F03FEFD7
:10304000431A530A630A730A8F01F4CFB6016E0D57
:103050007F1D685D7E4F4AE050E0CE0141960E94A0
:103060005734FE017196BFEF4B1A5B0A6B0A7B0A5D
:1030700020E1421651046104710464F481919FEBD4
:10308000980F9A3108F4805ED8018D938D018111DB
:10309000EACF09C030E1431651046104710419F00C
:1030A00089EC91E017C0BF92AF929F928F920E94DD
:1030B000360FF701259135914591559162E772E000
:1030C000C501EDDE0F900F900F900F908F3F19F418
:1030D0008EEE91E062DDF9E2EF0EF11C23EAE216DA
:1030E00021E0F20609F09DCF2FEF3FEFA90162E743
:1030F00072E08FE491E0D3DE81E0A096E0E10C94F1
:1031000084334F925F926F927F928F929F92AF9291
:10311000BF92DF92EF92FF920F931F93CF93DF93B3
:1031200000D000D01F92CDB7DEB7E090D004F09071
:10313000D1040091D2041091D304E982FA820B8366
:103140001C8324ED34E0812C912C5401E980FA8019
:103150000B811C818E149F04A006B106ACF47C0187
:10316000F901412C512C3201D70141914423C1F086
:103170000FEFE01AF00A5C9145130AC01FEF411AE5
:10318000510A610A710AF0CF6FEF7FEFCB0165C082
:103190000FEF801A900AA00AB00A2B5E3F4FD6CFDD
:1031A0007D83D62E40E150E060E070E05BDE698315
:1031B00085E1889D8001899D100D11240C511B4FC4
:1031C00040E150E060E070E0C8014CDEA9812A2FA8
:1031D000AA0F330B440B550B24193509460957091F
:1031E0002B013C01B1E04B1A510861087108420EF5
:1031F000531E641E751EE1E14E16510461047104F4
:103200001CF62B013C01D801ED2DFD8181E0481A0F
:1032100051086108710814141504160417041CF4ED
:103220008D918193F3CF12161306140615064CF4F4
:10323000D7018D917D0181932150310941095109B7
:10324000F2CF85E1889DF001899DF00D1124EC52AB
:10325000FB4F61897289838994890F900F900F9039
:103260000F900F90DF91CF911F910F91FF90EF90F2
:10327000DF90BF90AF909F908F907F906F905F9006
:103280004F900895CF92DF92EF92FF92FB01C12CF5
:10329000D12C7601C216D306E406F50664F46191DA
:1032A000DC016D93CD01662341F0BFEFCB1ADB0A41
:1032B000EB0AFB0AEFCF8FEF01C081E0FF90EF90A8
:1032C000DF90CF900895A0E1B0E0E9E6F9E10C9439
:1032D0006C338B0149015A0120E130E040E050E0BD
:1032E000BC01CE010196CEDF8F3FF1F0C12CD12C75
:1032F00076010DC020E130E040E050E0B801CE01A1
:103300000196C0DF8FEFC81AD80AE80AF80A809140
:10331000D0049091D104A091D204B091D304C816E6
:10332000D906EA06FB0614F08FEF0AC0B801CE01F9
:103330000196E7DE681579058A059B05D9F2862F87
:103340006096ECE00C948833A0E1B0E0EAEAF9E1A1
:103350000C947433FC01CB018A0125913591459180
:103360005591BE016F5F7F4FAEDF682F880F770BDF
:10337000880B990B6F3F2FEF72078207920739F086
:103380009801AE014F5F5F4F0E94CE0F01C08FEFDB
:103390006096E4E00C9490330F931F93CF93DF93E8
:1033A0000496FC0185919591A591B591FA01339709
:1033B000E830F10508F059C0E859FF4F0C94563336
:1033C00020E5289F8001299F100D1124E801C85D88
:1033D000DA4F8CA19DA1D9DAEA81FB8110818CA101
:1033E0009DA1A3D9812F42C020E5289FF001299FEC
:1033F000F00D1124E85DFA4F82E509C020E5289F11
:10340000F001299FF00D1124E85DFA4F83E481AFAC
:1034100081E02CC020E5289FF001299FF00D1124A8
:10342000E85DFA4F8BE4F3CF20E5289FF001299F58
:10343000F00D1124E85DFA4F84A195A173D816C050
:1034400020E5289FF001299FF00D1124E85DFA4F37
:1034500081E082AF0BC020E5289FF001299FF00D8D
:103460001124E85DFA4F12AED3CF8FEFDF91CF91E9
:103470001F910F910895A0E0B0E0E1E4FAE10C940F
:1034800070330496FC01C590D590E590F59080E5E9
:103490008C9DE0018D9DD00D11248E01085D1A4F89
:1034A000D80194968D919C9195976FDAD801ED9102
:1034B000FC9111979F012F5F3F4F11963C932E93E4
:1034C0008081AE01445B5A4F2417350720F0C45D5C
:1034D000DA4FCD93DC9390E59C9DF0019D9DF00D1E
:1034E0001124E85DFA4F91AD933461F4DF01AE5BD6
:1034F000BF4F9C91992331F0ED5BFF4F9081891371
:1035000001C08EEFCDB7DEB7E8E00C948C33CF93DB
:10351000C82F8A3011F08D3059F4FB0185AD882316
:1035200039F08DE090E00E9456078AE090E015C0E7
:1035300080EE8C0F8F3570F0FB0184AD882351F045
:103540008EE590E00E94560780E48C0F082E000C58
:10355000990B03C08C2FCC0F990B0E945607CF916B
:103560000895EF92FF921F93CF93DF93EC01142FF6
:103570008CA19DA10E949212082E000C990BAA0BFF
:10358000BB0BB7FF03C080E090E0DC0129AD223522
:10359000C1F48097A105B1050CF05AC1EA81FB8105
:1035A000CF0101969B838A8310832A813B81CE01C0
:1035B00084962817390708F424C180979B838A834F
:1035C00020C11D3019F43EAD31111AE0FE01E55B5A
:1035D000FF4F10822B34F1F48097A105B1050CF058
:1035E000E7C0EA81FB81CF0101969B838A83108328
:1035F0002A813B81CE0184962817390718F08097DD
:103600009B838A838AAD882309F4FBC0BE01812F86
:103610007EDFF7C0FE01EB5BFF4F80819E012A5BDE
:103620003F4F7901181320C0319780818823E1F042
:103630008A819B81F90120813181821B930B9E013C
:103640002C5F3F4F8217930708F480969B838A83F1
:10365000F70110821182128213828DE090E00E94A5
:1036600056078AE090E0AAC0FE01E05CFF4F80812F
:10367000181721F031968081181352C08FAD88231E
:1036800009F44EC0F70180819181A281B38118169F
:1036900019061A061B060CF0DBC00197A109B10937
:1036A00080839183A283B3838A819B819C01215073
:1036B0003109AE014C5F5F4F2417350718F03B838B
:1036C0002A8303C04F969B838A838AAD882309F49B
:1036D000BFC0EA81FB81808180528F3590F08CAD34
:1036E000882379F088E090E00E9456078BAD88230C
:1036F00041F080E290E00E94560788E090E00E944E
:10370000560788E090E00E9456078BAD882309F4A5
:103710009FC080E290E00E94560788E090E04EC093
:103720001A3011F01D3049F58AAD882319F0BE0119
:10373000812FEDDEEA81FB81CF0101969B838A8395
:1037400010832A813B81CE0184962817390718F00F
:1037500080979B838A83F7014081518162817381C5
:103760004F5F5F4F6F4F7F4F8CA19DA111D8F70125
:1037700010821182128213826BC08CA19DA10E94C3
:103780009212082E000C990BAA0BBB0BB7FF03C0BB
:1037900080E090E0DC01F70140815181628173811A
:1037A000840F951FA61FB71F4F97A105B1054CF0B9
:1037B000C15BDF4F8881082E000C990B0E945607D1
:1037C00047C0FE01ED5BFF4F90818AAD19131EC00B
:1037D000319790819923D1F0882319F0BE01812F70
:1037E00096DEF70180819181A281B381892B8A2B9A
:1037F0008B2B71F5EA81FB81CF0101969B838A8334
:1038000010838CA19DA10E94951322C0882319F0DA
:10381000BE01812F7CDEF70180819181A281B3817D
:103820000196A11DB11D80839183A283B383EA8198
:10383000FB81CF0101969B838A8310832A813B8180
:10384000CE0184962817390718F080979B838A83C6
:10385000DF91CF911F91FF90EF900895CF92DF926B
:10386000EF92FF92CF93DF93FC01E55BFF4F208146
:1038700021116FC0EC012CA93DA98EA99FA9281781
:10388000390761F02CA93DA98EA99FA928173907EE
:1038900061F4C12CD12C7601C39420C08AA99BA9C4
:1038A0000E949212883074F354C0EEA1FFA1CF01A0
:1038B00001969FA38EA38081082E000C990B0E9475
:1038C00056072CA93DA9CE01C9962817390718F02B
:1038D00001979DAB8CABC12CD12C76018AA99BA9F9
:1038E0000E94921228E030E0281B310987FD3395B1
:1038F000CA94CD28CE28CF2809F512161306F4F461
:10390000EEA1FFA1CF0101969FA38EA38081082E77
:10391000000C990B0E9456072EA13FA1CE01C29622
:103920002817390718F008979FA38EA341E050E0AD
:1039300060E070E08AA99BA90E94C8132CA93DA948
:103940008EA99FA92817390721F48AA99BA90E944B
:103950009212DF91CF91FF90EF90DF90CF9008957A
:10396000ECE2F1E06591759150E5569FC001579FDB
:10397000900D1124885D9A4F60E070E0232B09F0D0
:103980006DCFEFCD0F931F93CF93DF930496FC0180
:1039900085919591A591B59120E5289F8001299F5A
:1039A000100D1124C801845D9A4FE801C85DDA4FFB
:1039B0009B838A839983888360E070E0CB010E94B7
:1039C000AD129DA38CA3C8018E5A9A4F99A788A7C0
:1039D0009FA38EA368E070E080E090E00E94AD12AB
:1039E0009BAB8AAB005A1A4F1FAB0EAB1DAB0CAB97
:1039F00083E489AF81E08AAF8BAF8CAF8DAF8EAFA0
:103A00008FAFFE01E05CFF4F98E0908331969FE717
:103A1000908331968083319694E0908331968083B1
:103A2000319695E190833196108211821282138231
:103A30003496808331961082319693E1908331964B
:103A400091E1908331968083C15BDF4F87E088836B
:103A500081E0DF91CF911F910F910895F89421E0BB
:103A600030E048E561E070E080E090E079DF789454
:103A700008958F929F92AF92BF92DF92EF92FF9242
:103A80000F931F93CF93DF93EC01D62EFC01349656
:103A900085909590A590B5908AE068130EC080E55A
:103AA000889DF001899DF00D1124EA58FA4F80811C
:103AB000882319F06DE0CE01DCDF80E5889D700180
:103AC000899DF00C11248701085D1A4FD801D29608
:103AD0008D919C91D3970E94C514D8019896ED9131
:103AE000FC919997CF01019699969C938E93989704
:103AF000D082C701865A9A4F98962D913C919997FA
:103B00002817390738F0C7018E5A9A4F99969C9317
:103B10008E939897FE01B496859195919FDF81E0F1
:103B2000DF91CF911F910F91FF90EF90DF90BF90A9
:103B3000AF909F908F900895A0E0B0E0E2EAFDE1A1
:103B40000C946C338C017B0149015A0157FD5CC018
:103B5000FC01349685919591A591B59120E5289F1A
:103B6000F001299FF00D1124E85DFA4F81AD8334F7
:103B700069F181149104A104B10471F484A195A1A7
:103B80000E949212882E880F9908AA08BB088114F7
:103B90009104A104B104D1F1E701C12CD12C76012B
:103BA000C814D904EA04FB044CF4C80164DC89930A
:103BB0008FEFC81AD80AE80AF80AF2CFD501C40173
:103BC000B7FE27C080E090E0DC0123C0C80153DCD1
:103BD0008E3FF1F0E7018993C12CD12C7601C3947B
:103BE000C814D904EA04FB0414F08C2D12C08A30E6
:103BF000E1F38D30D1F3C8013EDC89939FEFC91A00
:103C0000D90AE90AF90AECCF8FEF03C080E001C0BE
:103C10008EEFCDB7DEB7ECE00C948833A0E0B0E0D7
:103C2000E4E1FEE10C9470338C0169017A0157FDE7
:103C300011C0232B242B252B11F481E00CC0EB01A8
:103C40006991C80116DF81E0C81AD108E108F108BE
:103C5000B9F7F3CF8FEFCDB7DEB7E8E00C948C3334
:103C60004F925F926F927F92AF92BF92CF92DF920C
:103C7000EF92FF920F931F93CF93DF9300D000D06A
:103C8000CDB7DEB769837A838B839C8329013A01A0
:103C90000E944A0E141415041604170414F4F7FEB7
:103CA00004C00E944D0E8FEF44C0F801B201660FB0
:103CB000771F9BE529813A81929FA001939F500D28
:103CC000112420E030E0C190D190E190F190DA0130
:103CD000A20FB31FA153BD4FCA0CDB1C9D96DC92F3
:103CE000CE929C972E5F3F4F2617370761F79BE5D3
:103CF00049815A81949F9001959F300D1124D901DB
:103D0000A153BD4F9B965C924E929A97F201769684
:103D1000EE0FFF1F2E0F3F1FF901E153FD4F1182E0
:103D200010825C964C925C975D961C920E944D0EA0
:103D300081E00F900F900F900F90DF91CF911F9126
:103D40000F91FF90EF90DF90CF90BF90AF907F905A
:103D50006F905F904F900895A0E0B0E0E2EBFEE13D
:103D60000C946633F901E6011701C12CD12C7601C0
:103D7000C39440E050E0BA0123E0422E512C612C64
:103D8000712C4601570121E0821A9108A108B1085F
:103D9000DC012C91211108C0F8014083518362831A
:103DA0007383B401C501C3C02A30B1F329E0C21640
:103DB000D104E104F104A9F0DC011AC0488259825F
:103DC0006A827B82373209F061C04A015B01019649
:103DD000DC0111972C91321709F498C02A3009F0B0
:103DE00058C06FEF7FEF8FEF9FEFA1C0393029F4FC
:103DF000CD013D913032D1F7FBCF3A3039F4D801C3
:103E00004D935D936D937C931397CBCF3323B9F38D
:103E1000D1014D935D936D937D931D0101963C33CC
:103E2000A1F03E33B9F0363249F6188219821A826F
:103E30001B82DF01A40FB51F3C934A015B01BFEF5A
:103E40008B1A9B0AAB0ABB0A19C0812C912C540116
:103E5000839405C022E0822E912CA12CB12C888263
:103E60009982AA82BB82DF01A40FB51F3C934A014D
:103E70005B012FEF821A920AA20AB20ADF01A80D93
:103E8000B91D4E5F5F4F6F4F7F4F49C0323271F4A3
:103E90009CCF222309F4A5CFDF01A80DB91D2C93D7
:103EA000AFEF8A1A9A0AAA0ABA0A91CFDF01A40FC1
:103EB000B51F3C934A015B01BFEF8B1A9B0AAB0A0B
:103EC000BB0AAC01CA01DA012D91AD012A30F1F033
:103ED0002223E1F0322F3D7F3C3309F482CF2032A0
:103EE000A9F0293099F0263289F0273209F479CFE8
:103EF000223209F476CFCF01880D991DDC012C9375
:103F0000BFEF8B1A9B0AAB0ABB0ADCCFB501A40139
:103F10004F5F5F4F6F4F7F4FDF01A80DB91D1C92A0
:103F2000BFEFCB1ADB0AEB0AFB0A24962ACFCDB7E8
:103F3000DEB7E2E10C9482338F929F92AF92BF92F0
:103F4000EF92FF920F931F93CF93DF938EEE92E049
:103F50009F938F9385E591E09F938F930E94E41642
:103F6000CDE4D3E001E715E00F900F900F900F9094
:103F700080E090E0DC0128E5E22E21E0F22E4C0109
:103F80005D01FFEF8F1A9F0AAF0ABF0A4091080137
:103F90005091090160910A0170910B0184179507F6
:103FA000A607B707D0F4FE01229625913591F801B6
:103FB0000E5F1F4F859195913F932F939F938F9302
:103FC000FF92EF920E94E4160F900F900F900F90C7
:103FD0000F900F90D501C401D2CF89ED91E09F934E
:103FE0008F930E94E4160F900F90DF91CF911F9155
:103FF0000F91FF90EF90BF90AF909F908F9008959A
:10400000AFEBB0E0E6E0F0E20C94663320E631E09E
:1040100042E651E062E070E080E090E00E94CE0F66
:104020008F3F41F48FE691E09F938F930E94E416B7
:104030000F900F900E9415340E9415349F938F9318
:104040008BE392E09F938F930E94E4160FE010E0C1
:1040500020E030E04BE751E061E070E080E090E08C
:104060000E943A156BE871E0CE018A960E946D3489
:1040700004E010E020E030E0AE01465D5F4F60E01C
:1040800070E0CB010E943A150F900F900F900F90A7
:104090008F3F41F480E991E09F938F930E94E41653
:1040A0000F900F908DE991E00E94E51583EA91E071
:1040B0009F938F9383E092E09F938F931F921F9221
:1040C0000E94AC160F900F900F900F900F900F90D2
:1040D0009E012F5F3F4F1901AE0145565F4FC555F9
:1040E000DF4F59834883CB5AD040CE018D559F4F27
:1040F000C355DF4F99838883CD5AD04000E5F02E19
:10410000A5EBB1E0BF93AF931F921F920E94AC1634
:10411000ECE2F1E085919591A591B591F89EF001C1
:10412000F99EF00D1124CF01845D9A4FE85DFA4F9E
:10413000938382839183808340E050E0BA0184A11D
:1041400095A10E94F91201E210E020E030E0AE01FA
:10415000465D5F4F60E070E0CB010E94BC10482FCD
:10416000880F550B660B770B0F900F900F900F90E9
:104170004E3FFFEF5F076F077F0709F493C342309D
:104180005105610571050CF4BBCFEAE2F0E0EC0FDC
:10419000FD1FE40FF51F8AE080839E01255B3F4FE2
:1041A0006901CE0185599F4F7C018E0109551F4F32
:1041B000910181549109D0DD2B013C019FEF4916FB
:1041C00059066906790649F48CEB91E09F938F9329
:1041D0008BE491E09F938F93B1C14114510461042A
:1041E000710409F48BCFB301A20141505109610957
:1041F0007109FA01EE0FFF1FEE0FFF1FABE4B0E0F5
:10420000AC0FBD1FEA0FFB1F80819181A281B3819A
:10421000892B8A2B8B2BE1F4C955DF4F888199813B
:10422000AA81BB81C75AD0400297A109B109C955DB
:10423000DF4F88839983AA83BB83C75AD0402A0162
:104240003B01B1E0C754DF4FB883C95BD04005C024
:10425000C754DF4F1882C95BD040E3E04E165104CB
:10426000610471040CF4E4C0B301A201425051098D
:10427000610971099A01220F331F220F331FEBE4EA
:10428000F0E0EC0FFD1FE20FF31FC080D180E28051
:10429000F380D701C6010197A109B1090297A105D1
:1042A000B10508F04FC0D301C2010197A109B109BE
:1042B000880F991F880F991FEBE4F0E0EC0FFD1FAA
:1042C000E80FF91F80809180A280B380F3E08F1601
:1042D0009104A104B10409F011CFEBE6F0E0EC0F7A
:1042E000FD1FE80FF91FA1E0CA16D104E104F10493
:1042F00041F4408051805101A40CB51C00E010E055
:1043000007C0608071808101060D171DA12CB12CA2
:10431000EBE6F0E0EC0FFD1FE20FF31F80819181CF
:10432000A281B381C955DF4F88839983AA83BB8358
:10433000C75AD0402A013B01433051056105710540
:104340002CF47AC0A12CB12C00E010E0B301A20142
:1043500042505109610971099A01220F331F220F3E
:10436000331FEBE4F0E0EC0FFD1FE20FF31FC08002
:10437000D180E280F380D701C6010197A109B1097C
:104380000297A105B10508F057C0D301C2010197FA
:10439000A109B109880F991F880F991FEBE4F0E07C
:1043A000EC0FFD1FE80FF91F408051806280738081
:1043B000B3E04B1651046104710409F09FCEE1E0B3
:1043C000CE16D104E104F10481F4A114B10409F082
:1043D00095CEEBE6F0E0EC0FFD1FE80FF91F4080F3
:1043E00051805101A40CB51C0EC0012B09F086CEE2
:1043F000EBE6F0E0EC0FFD1FE80FF91F6080718025
:104400008101060D171DEBE6F0E0EC0FFD1FE20F3A
:10441000F31F80819181A281B381C955DF4F8883C9
:104420009983AA83BB83C75AD0402A013B0104C0A9
:10443000A12CB12C00E010E0FE01E55BFF4F80E015
:1044400090E0DC0184159505A605B70574F441914B
:10445000519161917191433051056105710509F0E8
:104460004DCE0196A11DB11DEDCF41145104610443
:10447000710409F443CE21E735E0CD54DF4F398391
:104480002883C35BD040C0900801D0900901E09020
:104490000A01F0900B01C155DF4F188219821A8270
:1044A0001B82CF5AD040C155DF4F288139814A81C4
:1044B0005B81CF5AD0402C153D054E055F05C1F1FB
:1044C000CD54DF4FE881F981C35BD0402591359110
:1044D000CD54DF4FF983E883C35BD040C254DF4F34
:1044E00039832883CE5BD040C9010E9440344C01FF
:1044F000AC01C254DF4F68817981CE5BD040C101ED
:104500000E944934892B29F1C155DF4F8881998157
:10451000AA81BB81CF5AD0400196A11DB11DC155C2
:10452000DF4F88839983AA83BB83CF5AD040BBCF08
:104530003F922F924AEC51E05F934F931F921F924C
:104540000E94AC160F900F900F900F900F900F904D
:10455000D5CDF101E80DF91D80818111D5CFC1556F
:10456000DF4FA881B981CF5AD040AA0FBB1FC954D1
:10457000DF4FB983A883C75BD040FD01C155DF4F32
:1045800028813981CF5AD040E20FF31FE35EFC4F00
:104590008491882309F44BC0A114B10409F0AECD75
:1045A000012B09F0ABCDC754DF4F3881C95BD04038
:1045B0003111A4CD9E0125593F4F7E014BE8E40EF9
:1045C000F11C80E090E0DC01870184159505A605CB
:1045D000B70584F4F90141915191619171919F0165
:1045E000420D531DF701419351937F010196A11D87
:1045F000B11DEBCFC954DF4FE881F981C75BD040D3
:10460000C155DF4F28813981CF5AD040E20FF31FC7
:10461000E25EFC4F0590F491E02DB801C2010995CE
:104620006D3F7F4F8F4F9F4F09F068CD3BC1A11465
:10463000B104E1F025ED31E0A50162E070E080E039
:1046400090E00E94CE0F282F880F330B440B550BA0
:10465000C654DF4F288339834A835B83CA5BD040CB
:104660002F3F3F4F4F4F5F4F49F448CDC654DF4F68
:10467000188219821A821B82CA5BD040011511056B
:1046800089F120E631E0A80162E070E080E090E08E
:104690000E94CE0F282F880F330B440B550BCD549F
:1046A000DF4F288339834A835B83C35BD0402F3F2E
:1046B0003F4F4F4F5F4F09F421CDA12CB12C650125
:1046C000E12CF12C870122E030E040E050E0CD54B5
:1046D000DF4F688179818A819B81C35BD0400E94D2
:1046E000C30808C0CD54DF4F188219821A821B827A
:1046F000C35BD040A401C254DF4F68817981CE5B97
:10470000D040CE0185569F4F0E945734EBE9F0E030
:10471000EC0FFD1FE80DF91D1082C255DF4F988187
:10472000CE5AD0409F93C355DF4FA881CD5AD04079
:10473000AF937F926F925F924F921F9282E08F931E
:10474000C455DF4FB881CC5AD040BF93C555DF4F19
:10475000E881CB5AD040EF931F9284E18F93C954E4
:10476000DF4FE881F981C75BD040E350FD4F859171
:1047700095919F938F93C954DF4FE881F981C75B6F
:10478000D040C155DF4F28813981CF5AD040E20F48
:10479000F31FE25EFC4F859195919F938F930E944A
:1047A0002109C155DF4F688379838A839B83CF5A60
:1047B000D0400FB6F894DEBF0FBECDBF6F3F7F4F26
:1047C0008F4F9F4F69F488ED91E09F938F931F92D5
:1047D0001F920E94AC160F900F900F900F908ECCEE
:1047E000C955DF4FC880D980EA80FB80C75AD040C6
:1047F000CE018D559F4F4C0151018E0105591F4F20
:10480000A3019201C155DF4F688179818A819B8123
:10481000CF5AD04025DA8F3FB1F22BE5C155DF4F9B
:10482000A881B981CF5AD0402A9FC0012B9F900DFB
:10483000112481539D4FFC01EF5AFF4FC654DF4FA7
:1048400028813981CA5BD040318320833296CD5490
:10485000DF4F48815981C35BD040518340830E9420
:104860005C11C155DF4F688179818A819B81CF5A64
:10487000D0400E945D12C754DF4F5881C95BD040C1
:1048800051113CCC0E941F11C155DF4F2881398145
:104890004A815B81CF5AD04062177307840795071E
:1048A00089F72CCC61E070E080E090E0C154DF4FEC
:1048B000E2E10C948233E0918E02F0918F022E2F70
:1048C0009F2F81918032D9F38930C9F320938E02D2
:1048D00090938F020895CF93DF93EC0110927C02A6
:1048E00080E090E0FE012491222369F160918E0224
:1048F00070918F02FB01E80FF91F2081FE013491B6
:10490000231303C001962196EDCFFE01449130E0C0
:1049100020583F4F50E02417350749F40196860F81
:10492000971F90938F0280938E02C5DF0CC0FE010B
:104930008491219687FFFBCF80917C028F5F8093CB
:104940007C02B9DFCDCFDF91CF910895B4DFE09144
:104950008E02F0918F0280E090E06AE03E2F2F2FD0
:10496000419150ED540F5A30A8F4893959E1950717
:1049700038F030938E0220938F028FEF9FEF0895CF
:10498000689F9001699F300D1124C901C097840F61
:10499000911DE4CF30938E0220938F020895E09111
:1049A0008502F09186028091830290918402409169
:1049B0007A0250917B02E817F90751F0208131818A
:1049C0002417350720F42281E20FF11DF4CFCF0127
:1049D0000895E0918302F0918402329690E0808104
:1049E0008A30B1F0981769F0823269F0873269F045
:1049F00091110CC02FE9280F2A3140F48052808396
:104A000005C090E003C092E201C097E23196E7CF83
:104A10000895FF920F931F93CF93DF93C1E0D0E0EF
:104A20004ADFE0918E02F0918F02A081AD3249F40D
:104A30003196F0938F02E0938E02D195C195D10902
:104A4000EFCFA03331F43196F0938F02E0938E02D2
:104A50008EC08FEC8A0F8930B8F480E090E04AE095
:104A6000489F9001499F300D11248191B901680F31
:104A7000711DCB01C097208120532A3088F3F09319
:104A80008F02E0938E0275C08FEB8A0F8A3108F097
:104A90004DC0818181548A3178F0B0E0A154B04892
:104AA000AA0FBB1F8091810290918202A80FB91FAB
:104AB0003C9111962C9150C08DE796E00CDFF09060
:104AC0007C0275E0F71609F44FC0E0918E02F09178
:104AD0008F028081883209F047C03196F0938F02AF
:104AE000E0938E02B7D08C01E0918E02F0918F029C
:104AF00080818932C9F53196F0938F02E0938E025E
:104B000081E0F81659F0F81690F124E0F2120EC088
:104B10000E941534B8010E9427332BC0C80117FF2B
:104B200028C088279927801B910B23C0E0918E0213
:104B3000F0918F0280818832B9F43196F0938F0220
:104B4000E0938E0287D0382F292FE0918E02F091CA
:104B50008F028081893241F43196F0938F02E09385
:104B60008E02832F922F05C081E08093890280E01E
:104B700090E0BC016C9FC0016D9F900D7C9F900DDB
:104B80001124CDB7DEB7E5E00C948F331F93CF939C
:104B9000DF933FDFEC018FDE11E0E0918E02F091B8
:104BA0008F0280818A3279F43196F0938F02E093FC
:104BB0008E022FDF9E01289FE001299FD00D389F94
:104BC000D00D1124EACF8F3289F43196F0938F0201
:104BD000E0938E021EDFBC01892B29F0CE010E94DA
:104BE0002733EB01DACF10938902D7CFCE01DF91C3
:104BF000CF911F910895CF93DF93E0918E02F091B2
:104C00008F0280818D3229F08B3219F0BFDFEC01E9
:104C100002C0C0E0D0E0E0918E02F0918F0280816E
:104C20008D3249F43196F0938F02E0938E02AEDF1D
:104C3000C81BD90BF0CF8B3249F43196F0938F0219
:104C4000E0938E02A3DFC80FD91FE5CFCE01DF911D
:104C5000CF910895CF93DF93CEDFEC01809189024D
:104C600081113EC089E696E036DEE0917C02E730B5
:104C7000B9F18E2F90E087309105A0F5FC01E05945
:104C8000FF4F0C945633B7DF31E020E0C817D90747
:104C900024F522C0B0DF31E020E0C817D907E9F4DD
:104CA0001BC0A9DF31E020E08C179D07B4F014C0D1
:104CB000A2DF31E020E0C817D90771F40EC09BDFF6
:104CC00031E020E08C179D0744F406C094DF31E00A
:104CD00020E0C817D9070CF030E0832F922F04C0D2
:104CE000CE0102C080E090E0DF91CF910895282F9F
:104CF000082E000C330B3F938F938CED91E09F9324
:104D00008F930E94E4160F900F900F900F900895CC
:104D10000F931F93CF93DF93EC0197FF05C0D195BD
:104D2000C195D1098DE2E3DFE0917D02F0917E0231
:104D300000E010E02AE030E0CE01B9010E94273304
:104D4000805D8293EB010F5F1F4F2097A9F7F093CF
:104D50007E02E0937D02E0917D02F0917E028191DE
:104D6000F0937E02E0937D02C2DF0150110999F7B2
:104D7000DF91CF911F910F910895CF93DF93EC01B5
:104D8000CE01FE012491222329F02196FC01849179
:104D9000AEDFF6CFDF91CF9108958AE0A8DF8DE0F6
:104DA000A6CFEBDFFACFE0918C02F0918D028081EB
:104DB00091813396F0938D02E0938C02A9DF80E21B
:104DC00096DFE0918C02F0918D0280818A3059F05B
:104DD0008EDF80918C0290918D02019690938D02CE
:104DE00080938C02EECF3196F0938D02E0938C028B
:104DF000D4CF7DDF80E27BDF8091830290918402BB
:104E0000029690938F0280938E0260E070E0CB0157
:104E10000E94500B082E000C990B8A30910511F45A
:104E20008DE090E08A3049F08D3039F020918E028B
:104E300030918F028830D1F408C0AFDFE0918E024C
:104E4000F0918F028AE0808308958091830290918F
:104E5000840228173907C9F22150310930938F0293
:104E600020938E028DEE95E088DFCFCF40918102B6
:104E700050918202425051092417350711F488E0FD
:104E800006C0F9018193F0938F02E0938E022FDF29
:104E9000BCCFA4E0B1E0EFE4F7E20C946633CE01BE
:104EA000019690938602809385029093840280936A
:104EB00083024E018BEF881A8EEF980A90927E0241
:104EC00080927D02CE0189519F4F909388028093FA
:104ED00087024497909382028093810286E296E053
:104EE00060DF809181029091820220918302309153
:104EF0008402821B930B0CDF89E196E052DF83E092
:104F000096E04FDF2E01ACEF4A1AAEEF5A0A57E493
:104F1000252E66E4362E0EE51092800210927F0256
:104F200090927E0280927D0286E696E03ADF8EE3E2
:104F300060DF4FDDC0908302D09084027601B2E042
:104F4000EB0EF11CD701FD0131968C918A3011F0E6
:104F5000DF01F9CFB0938F02A0938E0220918102DE
:104F600030918202BF01C901FB014291BF01FC01E6
:104F70004293CF01E616F706B9F7C7018A1B9B0BD0
:104F80000197820F931F90938F0280938E02DEDC35
:104F90005C0190937B0280937A028DDCA114B104B2
:104FA00009F48CC0FFEFAF16BF0609F484C060900F
:104FB0008E0270908F0210E0F301E10FF11D8081ED
:104FC0008A3011F01F5FF8CF1C5F730183E0E81A8D
:104FD000F108F0928F02E0928E02D701AD92BC925E
:104FE000F30131971083DBDCFC01C816D906D1F040
:104FF00080819181A816B906A9F482819F01280FAA
:10500000311DC81AD108AF014C155D0539F0D90121
:105010008D919D01DA018D93AD01F6CF50938402FD
:1050200040938302D3018C918A3009F480CFA09100
:105030008302B0918402112369F1212F30E0C7016E
:105040008A1B9B0B2817390708F4C9019D01280FFB
:10505000391FA9015D01CC24DD24CE1ADF0AB50178
:105060006C0D7D1D672B39F0D5016E915D01DA0164
:105070006E93AD01F4CFD701AF01480F591FE4176C
:10508000F50719F06D916193FACF181BE80EF91E20
:10509000D901D1CFB0938402A0938302F0928F0202
:1050A000E0928E0244CF10928902D4DD20918902D1
:1050B000222309F459C08AE596E038CFF0928F0296
:1050C000E0928E02F60182818A3009F430CF82E9C3
:1050D00096E001DC10917C02812F90E08D319105EA
:1050E00008F0D0C0FC01E958FF4F0C945633809172
:1050F000850290918602909384028093830285EFCB
:1051000095E014CFE0918E02F0918F0280818A3079
:10511000E9F08FE596E031DE80917F029091800288
:10512000009791F0E0918E02F0918F0210811A3079
:1051300009F0008390938D0280938C0234DEE0911D
:105140008E02F0918F02108328DEF1CE80918502CD
:10515000909186029093840280938302E8CE80919E
:105160008502909186026EC1E0918E02F0918F02CD
:1051700020812A3009F49FCF892B09F0A8CF82C063
:105180001092890267DD90937B0280937A0280916E
:105190008902811190CFE0918E02F0918F0280817F
:1051A0008A3009F44EC187CFE0918E02F0918F02D0
:1051B00080818A3009F0ADCF809183029091840282
:1051C00041C179DBE0918E02F0918F0210818FEB6B
:1051D000810F8A3108F09DCF3196F0938F02E093D2
:1051E0008E0269DBE0918E02F0918F0280818A301D
:1051F00009F068C080918E0290918F0290938B028B
:1052000080938A028FE3F5DDE4DB80918302909145
:105210008402029690938F0280938E024CDB109250
:10522000890218DD209189022111E4CFE12FF0E0FD
:10523000E154F048EE0FFF1F20918102309182026D
:10524000E20FF31F9183808380918A0290918B02F9
:1052500090938F0280938E0280918E0290918F02A4
:10526000FC01019620812A33D9F3F0938F02E09359
:105270008E0221DBE0918E02F0918F0280818A30D4
:1052800009F025CFE0917F02F0918002309709F478
:105290004ECE8281E80FF11DF0938002E0937F02F1
:1052A00080917F029091800220918302309184024C
:1052B0008217930709F430CE039690938F02809360
:1052C0008E0205CF8A3309F495CF23CFF4DAE0912B
:1052D0008E02F0918F0210818FEB810F8A3108F0DE
:1052E00018CF3196F0938F02E0938E02E4DAE091CA
:1052F0008E02F0918F0280818D3309F00ACF3196B2
:10530000F0938F02E0938E02D6DA10928902A2DC2B
:105310006C01809189028111FCCE8AE796E0DBDA8C
:1053200080917C028111F5CE95DC7C01809189020F
:105330008111EFCE85E796E0CEDA80917C02811173
:1053400007C088DC5C0180918902882321F0E1CECE
:10535000AA24A394B12CAFDA80918E0290918F028F
:10536000DC012C912A3019F02A3309F0D2CE309189
:1053700089023111A0CE2A3009F09DCEE0917D0244
:10538000F0917E029F01265F3F4F4091870250912E
:1053900088022417350720F483E596E002DDBCCDB2
:1053A0003A97F0937E02E0937D02A12FB0E0A154E2
:1053B000B048AA0FBB1F2091810230918202A20F38
:1053C000B31FCD92DC9230821183F382E282B582E8
:1053D000A4829187808780917F0290918002978339
:1053E00086833ACF1092890235DC90937B028093BA
:1053F0007A028091890281115ECEA0918E02B091D5
:105400008F028C918A3009F056CEE0917D02F091A6
:105410007E02CF0105962091870230918802821783
:10542000930708F4B9CF3597F0937E02E0937D029D
:105430002082B483A38380917F0290918002928323
:105440008183ADDA9093800280937F0229CF33DA93
:10545000E0918E02F0918F02808181548A3108F0B0
:105460002ACE3196F0938F02E0938E0224DAE091F7
:105470008E02F0918F0280818A3319F08A3009F010
:1054800048CE80917D0290917E0220918E023091D3
:105490008F02FC0121503109E415F50508F00BCE0F
:1054A00040814634C9F0473409F036CD1A3091F4C2
:1054B000218132813093800220937F0223813481C5
:1054C00030938F0220938E02059690937E028093F4
:1054D0007D02C2CE3596E0CF153009F043C0D90128
:1054E0004C91A42FB0E04181042E000C550BA41761
:1054F000B507C1F5A154B048AA0FBB1F8091810226
:1055000090918202A80FB91F2D913C91119784812F
:105510009581280F391F2D933C938481958118160E
:10552000190634F4828193818217930744F414C0DE
:10553000892B91F082819381281739076CF080853F
:10554000918590938F0280938E02868197819093AC
:10555000800280937F0280CE3A96F0937E02E093A1
:105560007D027ACE3A9698CFE0918E02F0918F022A
:1055700080819FEB980F9A3108F09DCDE82EF12C99
:10558000B1E4EB1AB0E8FB0AEE0CFF1C809181023B
:1055900090918202E80EF91ECF01019690938F023E
:1055A00080938E0288D9E0918E02F0918F028081E3
:1055B0008D3309F0AECD3196F0938F02E0938E02D9
:1055C0007AD91092890246DB9C018091890281116F
:1055D000A0CDE0918E02F0918F0290819A3019F067
:1055E0009A3309F096CDF7013183208335CE10929E
:1055F000890230DB8091890281118BCD5CD9E091E9
:105600008E02F0918F0280818C3209F082CD31962A
:10561000F0938F02E0938E024ED9109289021ADB2A
:1056200080918902811175CDE0918E02F0918F02F7
:1056300080818A3009F41DCE8A3309F40DCE69CDFC
:1056400085D990937B0280937A02E0918E02F0914B
:105650008F0280818A3009F05CCDA1D990938D02B0
:1056600080938C0220918C0230918D028091830274
:10567000909184022817390709F44ECC94DBF2CFBD
:10568000E0918E02F0918F0280818A3339F485DBBC
:1056900080918E0290918F020196DACD8A3009F4C2
:1056A000F1CD09D9E0918E02F0918F021081123272
:1056B00011F0173219F53196F0938F02E0938E02B4
:1056C0008191181719F08A30D9F718C0E0918E022D
:1056D000F0918F028081181759F009DB80918E02BA
:1056E00090918F02019690938F0280938E02EECF5D
:1056F0003196F0938F02E0938E0213C0E0918E02F8
:10570000F0918F028081823209F403CD873209F44F
:1057100000CD109289029EDA209189022111F9CCE4
:10572000F7DAE0918E02F0918F0280818C3231F4B1
:105730003196F0938F02E0938E02B3CF8B3361F4F6
:1057400081818A3019F08A3309F0E3CC3196F093E5
:105750008F02E0938E0280CD8A3019F08A3309F0EF
:10576000D8CC1BDB79CD809181029091820220916F
:10577000830230918402821B930BCADA89E196E09E
:1057800010DB6ACD1092890265DA2091890221111D
:10579000C0CC0E94183460CDCC5FDE4FE2E1B2C7CE
:1057A000AF92BF92CF92DF92EF92FF920F931F932F
:1057B000A12CB12C6501E12CF12C870124E030E013
:1057C00040E050E060E070E0CB010E94C30861DB84
:1057D00025E030E040E050E060E070E0CB010E9466
:1057E000C30880E01F910F91FF90EF90DF90CF9062
:1057F000BF90AF900895FC0140E050E08AE09191A5
:10580000292F990F330B2115310589F0B901605308
:1058100071096A30710568F4849FB001859F700D2D
:105820001124260F371FA90140535109E8CFCA019F
:10583000089580E090E00895FC019C012D5F3F4FAA
:1058400037FF02C02D5F3F4F35952795359527953A
:10585000AF014C5F5F4F240F351FE93087E0F80739
:105860008CF0CF01855A96406CE97FEFF0D6260F79
:10587000371FCF018154964060E971E0E8D6260FCA
:10588000371F03C0E93DF64014F02D5F3F4FC901BB
:1058900067E070E0DCC6EF92FF920F931F93CF9307
:1058A000DF937C01C1E0D0E006E412E0CE15DF0515
:1058B00044F41F930F930E94E41621960F900F90CB
:1058C000F5CFCDB7DEB7E6E029C7A0E0B0E0EAE665
:1058D000FCE2FFC64C018B01CB01AEDFEC018DE198
:1058E00080930E018EE180931501C8010196A4DF1B
:1058F00007968C1B9D0B67E070E0A9D6813091055F
:1059000031F0029739F083E18093150103C08CE1F7
:1059100080930E01EDE0F1E0CF018C5091408815AD
:10592000990534F48191C80FD11D87FDDA95F4CF24
:10593000CE0167E070E08BD68C01880F991F800F35
:10594000911F0196A8DFC1E0D0E0C401845F9E4FA3
:105950004C0136E4E32E32E0F32E4AE0A42EB12CC3
:105960005CEDC52E51E0D52E6EE1562E71E7672E07
:1059700072E0772EF4018081282F082E000C330B63
:105980002C173D070CF446C0C330D10539F48331E0
:10599000C1F4F4015082CEE0D0E003C0CA30D1059A
:1059A00084F0CE01B50153D6605D7F4F7F936F9336
:1059B000DF92CF920E94E4160F900F900F900F90FD
:1059C00006C0FF92EF920E94E4160F900F90CE0156
:1059D000B5013DD6C0969F938F93DF92CF920E94E0
:1059E000E416FF92EF920E94E4160F5F1F4F0F9094
:1059F0000F900F900F900F900F900730110541F40A
:105A00007F926F920E94E4160F900F9000E010E0DA
:105A10002196B0CF81E792E09F938F930E94E41686
:105A20000F900F90CDB7DEB7EFE06FC6A0E0B0E00B
:105A3000EBE1FDE24FC67B01823091052CF480E062
:105A400090E00E946D0A03C0029709F44BC0F70171
:105A500082819381D0DE6C01EC012197CC30D1059D
:105A600008F091C0F70184819581C5DE8C01019712
:105A70008F30974208F087C0FE01EE0FFF1FE05005
:105A8000F94F859195919F938F938FED91E09F931F
:105A90008F930E94E4161F930F9387EE91E09F93DC
:105AA0008F930E94E41688E497E09F938F938CE590
:105AB00091E09F938F930E94E416B801C60105DF21
:105AC00081E792E09F938F930E94E41680E090E03C
:105AD0000E946D0A8DB79EB70E960FB6F8949EBFC2
