:100000000C949E000C94BF000C94BF000C94BF0095
:100010000C94BF000C94BF000C94BF000C94BF0064
:100020000C94BF000C94BF000C94BF000C94BF0054
:100030000C94BF000C94BF000C94BF000C945E02A3
:100040000C94BF000C94BF000C94BF000C94BF0034
:100050000C94BF000C94BF000C94BF000C94BF0024
:100060000C94BF000C94BF000C94BF000C94BF0014
:100070000C94BF000C94C1000C94BF000C94BF0002
:100080000C94BF000C94BF000C94BF000C94BF00F4
:100090000C94BF000C94BF000C94BF000C94BF00E4
:1000A0000C94BF000C94BF000C94BF000C94BF00D4
:1000B0000C94BF000C94BF000C94BF000C94BF00C4
:1000C0000C94BF000C94BF000C94BF000C94BF00B4
:1000D0000C94BF000C94BF000C94BF000C94BF00A4
:1000E0000C94BF003E014701550168010F017601E4
:1000F0007D01220130010C9476010C9430010C94A6
:100100007D010C9455010C9468010C943E010C94F3
:1001100047010C9422010C940F0145464765666720
:1001200000202B2D2E3031323334353637383968B4
:10013000006364696E6F70737578580011241FBE78
:10014000CFEFD1E2DEBFCDBF00E00CBF13E0A0E0F7
:10015000B2E0E8EFF1E100E00BBF02C007900D92C2
:10016000A236B107D9F726E0A2E6B3E001C01D929E
:10017000AD32B207E1F70E94A8040C94FA080C947F
:1001800000001F920F920FB60F9211240F900FBE16
:100190000F901F90189590917A00976090937A0035
:1001A00090917C00906490937C00882329F080914A
:1001B0007C00806280937C0080917A0080628093D2
:1001C0007A0080917A00806880937A0080917A002A
:1001D000886080937A0080917C00807F80937C008F
:1001E00080917A00806480937A0080E092E00C94A1
:1001F0004A04EAE7F0E080818F7B80830895909144
:100200007A009F7B90937A0090E089309105A0F46A
:10021000FC01EE58FF4F80917C000C94EA078C7F24
:1002200080937C0080917C00846080937C0080912E
:100230007C00877F80937C0080917A00806480932B
:100240007A000895876080937C0080917C00877F8E
:1002500080937C0080917A00806480937A00089576
:10026000887F80937C0080917C00886080937C00F4
:1002700080917A00806480937A000895807F8093D3
:100280007C0080917A00806480937A000895816078
:1002900080937C0080917C00817F80937C008091A2
:1002A0007A00806480937A0008958E7F80937C002A
:1002B00080917C00826080937C0080917C00837FB1
:1002C00080937C0080917A00806480937A00089506
:1002D000836080937C0080917C00837F80937C008E
:1002E00080917A00806480937A0008958160809381
:1002F0007C0080917C008D7F93CF8E7F80937C00EB
:1003000080917C00866080937C0080917C00877F58
:1003100080937C0080917A00806480937A000895B5
:100320000E94000482E00E94B70381E00E94CB009B
:100330000E94C6020E944B02529A5A9A559A569AA5
:1003400084E192E00E944A0488E392E00E944A0419
:1003500089E492E00C944A04CF93DF93EC01C95DE9
:10036000D94F8881813031F08FE592E00E944A04B4
:1003700081E08883DF91CF91089587E792E00E9422
:100380004A0480916A038B3F18F48B5F80936A0361
:1003900008958FE892E00E944A0480916A038530B4
:1003A00018F0855080936A0308958FE592E00C94CD
:1003B0004A04009731F46130710549F01092270624
:1003C00008958130910569F0029789F00895809130
:1003D00027068130D9F30E94BD0181E08093270672
:1003E00008956130710549F0109228060895613032
:1003F000710569F0109229060895809128068130D0
:1004000029F30E94C90181E080932806089582E0C3
:1004100090E00C94AC01F8944B9B0DC04C9B0BC02E
:1004200080912C068F5F80932C068B30D0F082E079
:1004300090E00C94AC0110922C06109229064B9B74
:1004400012C080912A068F5F80932A068B30B8F401
:100450004C9B0FC080912B068F5F80932B068B30B7
:10046000A0F47894089510922A06109227064C99C9
:10047000F1CF10922B06109228067894089561E02F
:1004800070E080E090E00C94D90161E070E081E0E0
:1004900090E00C94D9018AB1877E8AB91092B2009B
:1004A000E1EBF0E0808184608083E0E7F0E0808130
:1004B0008160808387EA92E00C944A041F920F9235
:1004C0000FB60F9211240BB60F922F933F934F93B9
:1004D0005F936F937F938F939F93AF93BF93EF93AC
:1004E000FF930E940B02FF91EF91BF91AF919F91FB
:1004F0008F917F916F915F914F913F912F910F90CD
:100500000BBE0F900FBE0F901F901895823469F0AC
:100510008434A9F42AB181E090E0062E01C0880F4E
:100520000A94EAF7282B2AB9089524B181E090E0D3
:10053000062E01C0880F0A94EAF7282B24B90895E3
:10054000823479F08434D1F42BB181E090E0062E2E
:1005500001C0880F0A94EAF7442389F0282B2BB9AD
:10056000089525B181E090E0062E01C0880F0A941D
:10057000EAF7411108C08095822385B908958095D6
:1005800082238BB90895282B25B908951092B900BC
:1005900080E28093B80080EC92E00C944A048130B1
:1005A00099F038F0823041F484E98093BC0080E017
:1005B000089584EA8093BC008091BC0087FFFCCF43
:1005C0008091B900887F089584E88093BC00809171
:1005D000BC0087FFF1CFF4CFFF920F931F93CF930F
:1005E000DF93D82FF62E072F142FC2E380E00E944E
:1005F000CF02883369F0883011F08031B1F4D093A4
:10060000BB0081E00E94CF02803211F0883359F4A0
:10061000C15061F7CFEFD0E0CE01DF91CF911F91B4
:100620000F91FF900895883161F0CFEFD0E082E024
:100630000E94CF02CE01DF91CF911F910F91FF90C9
:100640000895111131C080E48093BB0081E00E94C5
:10065000CF02883251F7F092BB0081E00E94CF02B6
:10066000883219F70093BB0081E00E94CF028832E4
:10067000E1F61123E9F080E68093BB0081E00E945F
:10068000CF02883291F6F092BB0081E00E94CF0247
:10069000883259F60093BB0081E00E94CF02883275
:1006A00021F6C1E0D0E0C3CF80E68093BB00CECF7F
:1006B00080E48093BB00E2CFCF93DF93C2E3D82FD7
:1006C000D16080E00E94CF02883369F0883011F059
:1006D0008031C9F4D093BB0081E00E94CF02803208
:1006E00011F0883339F4C15061F78FEF90E0DF915A
:1006F000CF910895883139F48091BB0090E09093B8
:1007000065038093640382E00E94CF028FEF90E044
:10071000DF91CF91089585B5836085BD84B58160F3
:1007200084BD559A569A84ED92E00C944A04E1E80F
:10073000F0E0808183608083E0E8F0E08081896080
:100740008083219A229A8AEE92E00C944A04E1EB8B
:10075000F0E0808184608083E0EBF0E08081816064
:100760008083539A239A80E093E00C944A0481306A
:10077000B1F058F0823019F0833021F008950E94D2
:10078000970308950E94A70308950E948B030E9477
:1007900097030E94A70386E193E00C944A040E9409
:1007A0008B03089594B5906894BD87BD089594B562
:1007B000906294BD88BD0895E0E8F0E02081206853
:1007C000208390938900809388000895E0E8F0E00A
:1007D00020812062208390938B0080938A0008956B
:1007E000E0EBF0E09081906890838093B3000895EF
:1007F000E0EBF0E09081906290838093B4000895E4
:100800008091C10088618093C1008091C2008660A0
:100810008093C20083E38093C4001092C50080914E
:10082000C10080688093C100EFE2F3E090E3809123
:10083000C00085FFFCCF9093C60091919111F7CF36
:100840008091C00085FFFCCF8AE08093C6000895A8
:100850009091C00095FFFCCF8093C6008091C000AE
:1008600085FFFCCF8AE08093C60008952091C000E8
:1008700025FFFCCF8093C6008091C00085FFFCCF90
:100880009093C6008091C00085FFFCCF8AE08093E2
:10089000C6000895FC012081222351F031969091E9
:1008A000C00095FFFCCF2093C60021912111F7CF06
:1008B0008091C00085FFFCCF8AE08093C600089538
:1008C0008091C10080688093C10080916203909103
:1008D0006303009729F4809126068D3039F008953E
:1008E000FC01E659FC4F80818D30C9F78AE00895FC
:1008F0001F920F920FB60F9211240BB60F922F93E7
:100900008F939F93EF93FF93809162039091630382
:100910002091C600FC01E559FC4F208301968C3BD9
:1009200022E0920781F09093630380936203FF912A
:10093000EF919F918F912F910F900BBE0F900FBE53
:100940000F901F9018951092630310926203EFCFDF
:10095000F8940E94900183E493E00E944A04789402
:1009600065E070E084E40E94860280916A0390E072
:100970000E94DC03FACF6F927F928F929F92AF9288
:10098000BF92CF92DF92EF92FF920F931F93CF937C
:10099000DF93CDB7DEB72B970FB6F894DEBF0FBE4F
:1009A000CDBF6C017B013A01FC0117821682838165
:1009B00081FF03C1CE0101964C01F601B380F7011E
:1009C000B3FC0591B3FE01917F01002309F4F1C04E
:1009D000053249F4B3FC0591B3FE01917F01053264
:1009E00011F010E019C0B601802F90E00E94440879
:1009F00053013501E2CF002309F4DBC0602F70E022
:100A000081E291E00E94FB07892B49F0F701B3FCDA
:100A10000591B3FE01917F0117FFEDCF04C00332B2
:100A200039F00C3619F0011105C0C3C01068EECFC3
:100A300010E1ECCF602F70E08AE191E00E94FB07AB
:100A4000892B41F05301F4E0AF0EB11CB6018FE3E6
:100A500090E010C0033631F0033779F0033511F51B
:100A600011600BC0530182E0A80EB11CB601F30166
:100A7000808191810E944408BCCF5301F2E0AF0E07
:100A8000B11CF30160807180F30110FD859110FFAE
:100A900081913F01882309F4ACCFB60190E00E9418
:100AA0004408F2CF043611F0093621F5530117FF3F
:100AB00009C0F4E0AF0EB11CF30160817181828145
:100AC00093810AC0F2E0AF0EB11CF3016081718125
:100AD000072E000C880B990B1F7E97FF08C090957E
:100AE0008095709561957F4F8F4F9F4F10642AE0DE
:100AF00030E030C0003791F040F40835A1F00F36F7
:100B000009F057C028E030E011C0053719F0083768
:100B100031F04FC01F7E2AE030E008C0106114623F
:100B200020E130E003C0146020E132E0530117FF00
:100B300009C0F4E0AF0EB11CF301608171818281C4
:100B4000938108C0F2E0AF0EB11CF30160817181A6
:100B500080E090E0A4010E949908082F081916FF70
:100B600005C0B6018DE290E00E94440814FF15C054
:100B7000FE01E00FF11D8081803379F0B60180E342
:100B800090E00E94440812FF08C01072812F90E08C
:100B9000B601885A9F4F0E9444080150F401E00FAB
:100BA000F11D8081B60190E00E9444080111F5CF4B
:100BB00020CFF6018681978102C08FEF9FEF2B96A1
:100BC0000FB6F894DEBF0FBECDBFDF91CF911F915E
:100BD0000F91FF90EF90DF90CF90BF90AF909F90DC
:100BE0008F907F906F90089520FD09C0FC0123FD38
:100BF00005C022FF02C0738362835183408308953E
:100C000044FD17C046FD17C0AB01BC01DA01FB0172
:100C1000AA0FBB1FEE1FFF1F1094D1F74A0F5B1FD7
:100C20006E1F7F1FCB01BA01660F771F881F991FA8
:100C300009C033E001C034E0660F771F881F991F99
:100C40003150D1F7620F711D811D911D08950F93D1
:100C50001F93CF93DF938C01C8010E940608EC011B
:100C600097FD08C00E94F207892BB1F7B801CE01A9
:100C70000E948008CE01DF91CF911F910F910895BE
:100C80008F929F92AF92BF92EF92FF920F931F931A
:100C9000CF93DF938C01D62F7A01B22E0E940608E3
:100CA0009C0133272B32310531F02D32310561F4AF
:100CB0008B2D8068B82ED15011F480E068C0C80137
:100CC0000E94060897FDF9CFCB2DCD7F2B2D2073E9
:100CD00009F58033F9F4AA24AA94AD0E09F443C0AF
:100CE000C8010E94060897FD3EC09C012F7D332756
:100CF0002835310549F4C264D250A9F1C8010E94D7
:100D0000060897FF07C02FC0B6FE02C0C26001C030
:100D1000C261DA2D812C912C540120ED280F28304E
:100D200080F0C4FF04C0B8010E94800819C02A30B6
:100D300040F0C6FFF8CF2F7D3FEE320F363098F7E8
:100D400027504C2FC501B4010E9400064B015C01E5
:100D5000C260D15059F0C8010E94060897FFDDCF4C
:100D6000C1FD04C0AACF812C912C5401C7FF08C03B
:100D7000B094A09490948094811C911CA11CB11CEF
:100D80002C2FB501A401C7010E94F40581E0DF9179
:100D9000CF911F910F91FF90EF90BF90AF909F90D8
:100DA0008F9008955F926F927F928F929F92AF92F1
:100DB000BF92CF92DF92EF92FF920F931F93CF9348
:100DC000DF936C01EB015A01FC0117821682512C52
:100DD000F601F380FE01F3FC8591F3FE8191182F5B
:100DE000EF01882309F4E1C090E00E94F207892B0B
:100DF00021F0C6010E942706EBCF153241F4FE0117
:100E0000F3FC1591F3FE1191EF01153281F4C60147
:100E10000E94060897FDC7C0412F50E09C01332770
:100E200024173507A9F2B6010E948008BEC01A3205
:100E300039F4F3FC1591F3FE1191EF0101E001C0CB
:100E400000E0E12C20ED210F2A3080F402606E2DAD
:100E500070E080E090E040E20E940006E62EFE0195
:100E6000F3FC1591F3FE1191EF01ECCF01FF03C0EC
:100E7000E11003C09AC0EE24EA94183619F01C362B
:100E800051F010C0FE01F3FC1591F3FE1191EF013A
:100E9000183641F408600460FE01F3FC1591F3FE7E
:100EA0001191EF01112309F480C0612F70E081E3FB
:100EB00091E00E94FB07892B09F477C000FD07C071
:100EC000F50180809180C50102965C0102C0812CF1
:100ED000912C1E3651F4F6014681578160E070E096
:100EE000202FC4010E94F40573CF1336A9F401FD2D
:100EF00002C0EE24E394C6010E94060897FD53C089
:100F00008114910429F0F4018083C40101964C01FD
:100F1000EA94E110F0CF43C0C6010E94270697FD76
:100F200042C01F3661F128F4143639F1193651F1F7
:100F300028C0133771F0153701F123C081149104D3
:100F400029F0F4016082C40101964C01EA94EE207C
:100F500071F0C6010E9406083C0197FD08C00E947E
:100F6000F207892B59F3B601C3010E94800881144E
:100F70009104A9F0F401108212C0006203C0006164
:100F800001C00064202FA4016E2DC6010E944006FE
:100F9000811105C0F6018381807329F406C000FD2C
:100FA00017CF539415CF552019F0852D90E002C02E
:100FB0008FEF9FEFDF91CF911F910F91FF90EF90F7
:100FC000DF90CF90BF90AF909F908F907F906F9069
:100FD0005F900895EE0FFF1F881F8BBF0790F6915B
:100FE000E02D199491110C94F708803219F0895072
:100FF0008550C8F70895FC010590061621F00020E1
:10100000D9F7C00108953197CF010895CF93DF93A9
:10101000EC012B8120FF33C026FF0AC02F7B2B83DE
:101020008E819F8101969F838E838A8190E029C063
:1010300022FF0FC0E881F9818081082E000C990BF6
:10104000009719F420622B831AC03196F983E88344
:101050000EC0EA85FB85199597FF09C02B81019683
:1010600011F080E201C080E1822B8B8308C02E81C9
:101070003F812F5F3F4F3F832E83992702C08FEF21
:101080009FEFDF91CF9108950F931F93CF93DF933D
:10109000FB01238121FD03C08FEF9FEF2CC022FFB6
:1010A00016C046815781248135814217530744F485
:1010B000A081B1819D012F5F3F4F318320838C93AD
:1010C000268137812F5F3F4F3783268314C08B01E2
:1010D000EC01FB010084F185E02D1995892BE1F6E7
:1010E000D80116968D919C911797019617969C930F
:1010F0008E931697CE01DF91CF911F910F91089596
:10110000FB01238120FF12C026FD10C08F3F3FEF5F
:10111000930761F082832F7D2064238326813781AA
:101120002150310937832683992708958FEF9FEF48
:101130000895FA01AA27283051F1203181F1E8946D
:101140006F936E7F6E5F7F4F8F4F9F4FAF4FB1E0BA
:101150003ED0B4E03CD0670F781F891F9A1FA11DB5
:10116000680F791F8A1F911DA11D6A0F711D811DB6
:10117000911DA11D20D009F468943F912AE0269F7B
:1011800011243019305D3193DEF6CF010895462FDA
:101190004770405D4193B3E00FD0C9F7F6CF462FBB
:1011A0004F70405D4A3318F0495D31FD4052419324
:1011B00002D0A9F7EACFB4E0A695979587957795E1
:1011C0006795BA95C9F700976105710508959B0168
:1011D000AC010A2E06945795479537952795BA95F1
:1011E000C9F7620F731F841F951FA01D08959927CB
:0811F00088270895F894FFCF51
:1011F80030783033202D20414443206973207570A6
:101208002E2E2E0030783031202D204861726477E0
:101218006172652073657475702073756363657397
:101228007366756C2E2E2E0042696F7320636F6D86
:10123800706C6574652E2E2E005374617274696E1D
:1012480067206D61696E20636F64652E2E2E0030F5
:10125800783833202D20427574746F6E20332070D7
:101268007265737365640030783831202D204275BB
:1012780074746F6E2031207072657373656400300A
:10128800783832202D20427574746F6E20322070A9
:101298007265737365640030783037202D204445BB
:1012A800424F554E43452069732075702E2E2E00EF
:1012B80030783035202D20545749206973207570B7
:1012C8002E2E2E0030783131202D2050574D5F3092
:1012D8002069732075702E2E2E0030783132202D23
:1012E8002050574D5F312069732075702E2E2E00C7
:1012F80030783133202D2050574D5F3220697320CC
:1013080075702E2E2E0030783130202D2050574DFC
:101318005F414C4C2069732075702E2E2E0030785A
:101328003034202D20554152542069732075702E79
:101338002E2E00307836202D204D61696E20636F87
:10134800646520636865636B706F696E742E2E2EFA
:02135800000093
:00000001FF
