:100000006DC0000089C0000087C0000085C00000EE
:1000100083C0000081C000007FC000007DC00000E0
:100020007BC0000079C0000077C0000075C00000F0
:1000300073C0000071C000004EC100006DC0000020
:100040006BC0000069C00000D7C0000065C00000A0
:1000500063C0000061C000005FC000005DC0000020
:100060005BC0000059C000000C948C000C948C0004
:100070000C948C000C948C000C948C000C948C00D0
:100080000C948C000C948C000C948C000C948C00C0
:100090000C948C000C948C000C948C000C946B01D0
:1000A0000C948C000C948C000C948C000C94FC0030
:1000B0000C948C000C948C000C948C000C948C0090
:1000C0000C948C000C948C000C948C007010841098
:1000D0008E109A10C510A410B010BB1011241FBEB2
:1000E000CFEFD8E0DEBFCDBF14E0A0E0B1E0EEE599
:1000F000FBE302C005900D92AC33B107D9F727E0BE
:10010000ACE3B4E001C01D92AE32B207E1F70C944B
:100110007A050E94401722C373CFFF93EF93FC012F
:1001200000820FB6F89404A21182228233824482A4
:1001300055826682778280869186A286B386C4863F
:10014000D586E686F786008B118B228B338B448B0A
:10015000558B668B778B808F918FA28FB38FC48FD7
:10016000D58F0F90068E0F90078E0DB600A20EB69B
:1001700001A2FB0100A00DBE01A00EBE078C0F92D4
:10018000068C0F92D58DC48DB38DA28D918D808DEF
:10019000778966895589448933892289118900893B
:1001A000F784E684D584C484B384A2849184808453
:1001B000778066805580448033802280118004A03F
:1001C0000FBE0080EF91FF910EF418950895E09115
:1001D0000001F0910101158287E6848386E0828325
:1001E00088E981830895E0910001F09101019081F7
:1001F00095FFFDCF868308951F920F920FB60F9241
:1002000011242F933F934F935F936F937F938F931B
:100210009F93AF93BF93EF93FF934091C60040939A
:10022000420420E030E061E070E080E090E00E9475
:100230003913FF91EF91BF91AF919F918F917F9172
:100240006F915F914F913F912F910F900FBE0F9043
:100250001F901895A4E0B0E0E0E3F1E00C94A91A37
:1002600019821A821B821C8219821A821B821C82AA
:1002700009811A812B813C81061717072807390746
:1002800070F4000009811A812B813C810F5F1F4FA0
:100290002F4F3F4F09831A832B833C83E9CF24964A
:1002A000E4E00C94C51A80E284B92D9A60E47DE004
:1002B00083E090E0CFDF2D9860E47DE083E090E084
:1002C000C9CF10926B0410926C0410926D041092BE
:1002D0006E0481E008951F920F920FB60F921124C1
:1002E0002F933F934F935F936F937F938F939F933E
:1002F000AF93BF93EF93FF93809175049091760431
:10030000A0917704B09178040196A11DB11D80934E
:10031000750490937604A0937704B0937804883E94
:100320009340A105B105D8F08091790490917A04A9
:10033000A0917B04B0917C040196A11DB11D809316
:10034000790490937A04A0937B04B0937C04109278
:1003500075041092760410927704109278048091BC
:100360006F049091700426E0289FF001299FF00D02
:100370001124E15EF94F828193818430910584F4E8
:10038000289FF001299FF00D1124E15EF94F808133
:100390009181019791838083892B11F40E94E10C54
:1003A0008091710490917204A0917304B0917404CF
:1003B0000197A109B10949F08093710490937204E7
:1003C000A0937304B09374040EC081E090E0A0E0A9
:1003D000B0E08093710490937204A0937304B0937F
:1003E00074040E942D0AFF91EF91BF91AF919F91EC
:1003F0008F917F916F915F914F913F912F910F90CE
:100400000FBE0F901F90189594D690937004809310
:100410006F0481E090E0A0E0B0E0809371049093DD
:100420007204A0937304B093740410927904109230
:100430007A0410927B0410927C041092750410923E
:100440007604109277041092780485B5836085BD98
:1004500084B5826084BD89EF87BDEEE6F0E08081DF
:10046000826080830895633071058105910588F469
:10047000AB01BC0129E2249FC001259F900D1124EE
:100480008E5F9E4FDC015696ED91FC915797099532
:1004900008958FEF0895A8E0B0E0E1E5F2E00C9454
:1004A0009B1ACD8CDE8C3BA02CA02F8D38A1203444
:1004B000310524F480E490E098A38F8F8F8D98A16C
:1004C000092E000CAA0BBB0B89839A83AB83BC83D8
:1004D000BC01CD0179D22C0130913C0420913D0426
:1004E00080913E0490913F04612C712C14E0E12E28
:1004F000F12C00E010E0632F722FA80197010E94F9
:10050000791A4B015C016D839E82AF82B8869DE5AE
:10051000989DF001999DF00D1124EF57FB4F8081BC
:100520009181B501A4014F5F5F4F6F4F7F4F892BC2
:1005300009F045C040933C0450933D0460933E0451
:1005400070933F04AFEF4A165A0609F04CC0E0E042
:10055000F0E044AD55AD66AD77AD495F5F4F6F4F8D
:100560007F4F487F052E000C660B770B82AD93AD55
:10057000092E000CAA0BBB0B0496A11DB11D841BF8
:10058000950BA60BB70BECD0B8A1BF93EF8DEF93F3
:100590002F923F9283E891E09F938F930E946D0D7D
:1005A0000F900F900F900F900F900F90FFEFFD8323
:1005B0002FEF2E833FEF3F834FEF4887C2C0342F8A
:1005C000252FCB01AFEF6A1A7A0AB4E06B167104DB
:1005D00009F091CF40933C0450933D0460933E0456
:1005E00090933F04B4CF2FEF82169206A206B20674
:1005F00009F4ADCF89A19AA1181619060CF0A7CF5E
:100600008091F5059091F605A091F705B091F80558
:100610000196A11DB11D8093F5059093F605A09359
:10062000F705B093F80585E090E091838083A9A158
:10063000BAA1B383A28353AE42AE89819A81AB81C2
:10064000BC8184AF95AFA6AFB7AFDF01A95BBF4F49
:100650001C92A32DB22D8F0180E090E02D91FC0122
:10066000E05CFF4FE00FF11F2083222321F0019671
:100670008730910599F72DE5289DC001299D900DA2
:100680001124DC01AF57BB4F7D01FD01E85BFF4F3B
:100690008FEF9FEF918380838ED1F701E65BFF4F51
:1006A000608371838283938338961082319611829E
:1006B0001082329611821082329611821082F701D6
:1006C000C6AAD7AA8DA19EA195A784A7DE01979659
:1006D00020E030E02817390764F44D915D91F9016D
:1006E000EE0FFF1FE00FF11F57A746A72F5F3F4FE9
:1006F000F1CFFC017796EE0FFF1F4DE5489D90016D
:10070000499D300D1124E20FF31FEF57FB4F11826B
:100710001082F901EF57FB4F848F958F21553B4F86
:10072000228F338F80EA9CE0D2018C9311979C93A7
:100730001197CC921197DC92B4E04B1A510844A265
:1007400055A26D817E818F8198852896E2E10C9477
:10075000B71A61E070E080E090E008952CD1B5C355
:10076000A0E0B0E0E6EBF3E00C94A11AFC01411527
:1007700051056105710509F443C080911B069091F4
:100780001C06E817F907E0F180911D0690911E06FE
:100790008E179F07A8F1495F5F4F6F4F7F4F487FCC
:1007A000052E000C660B770BA0911506B09116066E
:1007B000C5E1D6E0109709F43FC0AE17BF0728F493
:1007C000ED010D90BC91A02DF5CF86E0C531D80785
:1007D000E1F0CA80DB80EC80FD808E010D2E000CE4
:1007E000220B330B0C0D1D1D2E1D3F1D6F010F2EF7
:1007F000000CEE08FF08C016D106E206F30610F45E
:100800008FEF7FC0109721F41EC000E010E0980128
:100810006F010F2E000CEE08FF08C40ED51EE61E59
:10082000F71E4D010B2E000CAA08BB088C149D046A
:10083000AE04BF0440F4E4CF86E0C531D80749F6E2
:1008400000E010E09801C0901706D0901806E090E4
:100850001906F0901A06C40ED51EE61EF71EC092A9
:100860001706D0921806E0921906F0921A066F0148
:100870000F2E000CEE08FF08C016D106E206F306A4
:1008800071F40A811B812C813D81400F511F621F31
:10089000731F4A835B836C837D83FE0108C0B18331
:1008A000A0834283538364837583F983E883428101
:1008B0005381648175818F010F2E000C220B330B45
:1008C000040F151F261F371F6D010B2E000CEE089D
:1008D000FF080C151D052E053F0591F412960D918C
:1008E0001D912D913C911597400F511F621F731F51
:1008F00042835383648375838D919C91918380831C
:1009000081E0CDB7DEB7ECE00C94BD1A26E0AC0177
:10091000249FC001259F900D1124FC01E15EF94F39
:1009200042815381443051051CF5BA01052E000C5B
:10093000880B990B249FF001259FF00D1124E15E97
:10094000F94FA281B38144815581249FF001259FF5
:10095000F00D1124E15EF94FB383A2832A9FF001C9
:100960002B9FF00D1124E15EF94F558344830895C8
:100970006FEF7FEFCB01089546E0469FF001479F60
:10098000F00D1124E15EF94FA281B38124813581FC
:10099000429FF001439FF00D1124E15EF94FB383B4
:1009A000A2834A9FF0014B9FF00D1124E15EF94FA5
:1009B00035832483089560917D0470917E04809135
:1009C0007F04909180040895A0E0B0E0EAEEF4E0A6
:1009D0000C94A51A611571058105910509F46BC088
:1009E000DC01CB010796A11DB11DBC01687FCB01C5
:1009F000770FAA0BBB0BE0911506F0911606C0E02D
:100A0000D0E040E050E025E136E0309781F0C28050
:100A1000D380E480F580C816D906EA06FB0610F0FC
:100A2000E901AF019F010190F081E02DEECF41156A
:100A3000510509F440C0FA010281138124813581F6
:100A400080179107A207B30729F4208131813983E8
:100A5000288311C0081B190B2A0B3B0BFA010283D8
:100A6000138324833583052E000C660B770B400F10
:100A7000511F621F731F00911706109118062091D5
:100A8000190630911A06081B190B2A0B3B0B009311
:100A90001706109318062093190630931A06049728
:100AA000A109B109052E000C660B770B840F951F69
:100AB000A61FB71F02C08FEF9FEFCDB7DEB7E8E0EC
:100AC0000C94C11A633071058105910588F4AB015E
:100AD000BC0129E2249FC001259F900D11248E5F47
:100AE0009E4FDC015296ED91FC9153970995089524
:100AF0008FEF089573D38AE991E09F938F93B3D2D8
:100B00008DEA91E09F938F93AED28FEC91E09F930B
:100B10008F93A9D2D7D21092F5051092F6051092B4
:100B2000F7051092F8051092810610928206109235
:100B3000830610928406E1E8F4E00F900F900F9086
:100B40000F900F900F9011821082DF01A05CBF4FB9
:100B50001C9213AE12AE13821282E35AFF4F25E0AD
:100B6000E53FF20781F7C9EFD5E005E116E018820D
:100B700019821A821B821C82DCD29E838D83279667
:100B80000C171D07A1F79DDBD4D2909380068093AC
:100B90007F0660E070E0CB0195DF61E070E080E00F
:100BA00090E090DF62E070E080E090E08BDF2CDC92
:100BB000E0911506F091160680E090E0DC01309798
:100BC00061F04281538164817581840F951FA61F56
:100BD000B71F0190F081E02DF2CFBF93AF939F93A9
:100BE0008F9381EF91E09F938F933DD21F921F923D
:100BF0001F921F9289E092E09F938F931F92CAE009
:100C0000CF931F9280E48F931F921F9244DC2DE5B7
:100C1000269FF001279FF00D1124EF57FB4F81E035
:100C200090E0918380834AD18FE092E09F938F93ED
:100C30001AD21F921F928CE192E09F938F931F9282
:100C4000CF931F92D0E8DF9385ED96E19F938F932A
:100C500022DCD6D41F921F9282E292E09F938F9360
:100C60001F92CF931F92DF938CEB96E19F938F930C
:100C700012DC2DB73EB7285D3F4F0FB6F8943EBF4C
:100C80000FBE2DBFBDD4FFCF1F93CF93DF93FA01CB
:100C900034973B9708F054C0643071058105910585
:100CA00008F04EC03DE5369FF001379FF00D11244E
:100CB000EF57FB4F0190F081E02DEF2B09F440C07E
:100CC00036E0349FF001359FF00D1124E15EF94FBD
:100CD00042815381022E000C330BC6E016E0C49F04
:100CE000F001C59FF00D1124E15EF94FA081B181A3
:100CF000A217B30718F042815381F0CFC481D58188
:100D0000169FD001179FB00D1124A15EB94F139605
:100D10005C934E9312971596DC93CE9314972D9374
:100D20003C931C9FD0011D9FB00D1124A15EB94FB3
:100D300013967C936E9312977583648381E001C050
:100D40008FEFDF91CF911F9108954F925F926F9235
:100D50007F928F929F92AF92BF92CF92DF92EF924B
:100D6000FF92CF93DF9300D000D0CDB7DEB76B01F9
:100D70007C01CA0104970B9708F088C084E0C8166C
:100D8000D104E104F10408F081C08DE58C9DF001EF
:100D90008D9DF00D1124EF57FB4F80819181892BA0
:100DA00009F474C04A01052E000CAA08BB0886E0AD
:100DB000849FF001859FF00D1124E15EF94F82813F
:100DC0009381092E000CAA0BBB0B4F5F5F4F2A01CA
:100DD000550F6608770849825A826B827C8266E0EA
:100DE00049805A806B807C8084159505A605B705DF
:100DF00069F566E06C9DF0016D9DF00D1124E15EDA
:100E0000F94F538242829582848231832083689D88
:100E1000A001699D500D1124FA01E15EF94FD382C2
:100E2000C282649DF001659DF00D1124E15EF94FD1
:100E3000D582C48284159505A605B70529F1808160
:100E40009181821B930B918380831EC0689FF00168
:100E5000699FF00D1124E15EF94F40815181241703
:100E6000350758F0241B350B428153814C015D013D
:100E7000CA01550FAA0BBB0BB3CF2C013D018981D1
:100E80009A81AB81BC81B5CF81E001C08FEF0F901B
:100E90000F900F900F90DF91CF91FF90EF90DF9028
:100EA000CF90BF90AF909F908F907F906F905F900A
:100EB0004F900895F89480E00895089578940895E7
:100EC000FFCF8FEF089581E00895A0E0B0E0EBE65A
:100ED000F7E00C94A51A643071058105910508F0BE
:100EE000B1C02DE5269FF001279FF00D1124EF578B
:100EF000FB4F20813181232B09F4A4C061157105BA
:100F00008105910509F49EC06B017C018091F50576
:100F10009091F605A091F705B091F8050197A10908
:100F2000B1098093F5059093F605A093F705B0936A
:100F3000F8050297A105B1050CF46FD58DE58C9DE0
:100F400080018D9D100D1124F801E553FB4F608148
:100F5000718182819381A7019601C2D3C0E0D0E064
:100F6000FE01E00FF11FEC52FB4F60817181072EF3
:100F7000000C880B990B77DA2296C630D10581F7E1
:100F80008DE58C9DE0018D9DD00D1124CF57DB4F59
:100F90004CAD5DAD6EAD7FAD495F5F4F6F4F7F4F25
:100FA000487F052E000C660B770B8AAD9BAD092E92
:100FB000000CAA0BBB0B0496A11DB11D841B950B45
:100FC000A60BB70BCDDB888199818430910581F028
:100FD00030F48130910549F0029729F127C086301D
:100FE000910551F0079721F021C01982188235D25E
:100FF000C701B6016AD41AC0C85BDF4F88819981E6
:1010000027E0289FF001299FF00D1124E750FA4FA7
:1010100081819281A381B4810196A11DB11D81833B
:101020009283A383B483C701B601A6DC8DE58C9DB2
:10103000F0018D9DF00D1124EF57FB4F11821082AE
:1010400081E001C08FEFCDB7DEB7E8E00C94C11AA4
:10105000CF93C82F8A3011F48DE0C5D88C2FC3D818
:1010600081E0CF910895A1E5B0E0E9E3F8E00C94C8
:10107000A71A8E01065A1F4FF801E190F1908F01D7
:1010800021E530E040E050E060E070E0CE01019604
:101090000E94FD1A9801A70160E570E0CE0101965B
:1010A0000E94041B8E010F5F1F4FF80181918F0179
:1010B000882311F0CDDFF9CF81E0CF5ADF4FE6E092
:1010C0000C94C31A0F931F93CF93DF938EE297E094
:1010D000A0E8BB270196A11DB11DEC0190931C0651
:1010E00080931B062FEF38E030931E0620931D06D9
:1010F000E5E1F6E09183808319821882092E000CC5
:10110000AA0BBB0B4FEF58E060E070E08A019B0137
:10111000081B190B2A0B3B0B0A831B832C833D8373
:101120000283138324833583DF91CF911F910F9125
:10113000089520917D0130917E012031310544F5E3
:10114000C901029690937E0180937D01A9014F5FB2
:101150005F4F66E0629FF001639FF00D1124E15E36
:10116000F94F538342838FEF9FEF9583848391835D
:101170008083649FF001659FF00D1124E15EF94FBB
:10118000938382833583248311821082C901089559
:101190008FEF9FEF08950F931F93CF93DF936330EB
:1011A000710581059105A0F4E901DA018B019C012B
:1011B00049E2409FC001419F900D11248E5F9E4FD8
:1011C000FC0124893589AE01BD01F901099501C0F1
:1011D0008FEFDF91CF911F910F910895F89463D80D
:1011E00062D80E94E700B5CA0F931F936330710560
:1011F0008105910590F48B019C0159E2509FC0013B
:10120000519F900D11248E5F9E4FDC019096ED91C1
:10121000FC919197642F099501C08FEF1F910F9159
:101220000895CF93DF939A01245031092B30310573
:10123000E8F56430710581059105C0F52DE5269F1F
:10124000F001279FF00D1124EF57FB4F20813181D2
:10125000232B61F14F5F5F4F26E0249FF001259F14
:10126000F00D1124E15EF94FC481D581269FD00194
:10127000279FB00D1124A15EB94F13965C934E9336
:1012800012971596DC93CE9314972C9FD0012D9F27
:10129000B00D1124A15EB94F13967C936E931297F3
:1012A00075836483462F372F282F04C04FEF3FEFFD
:1012B0002FEF9FEF642F732F822FDF91CF9108952F
:1012C000CF939C01245031092B303105F8F4C6E04E
:1012D000C89FF001C99FF00D1124E15EF94F2281F2
:1012E00033812430310594F411DBC69FF001C79F90
:1012F000F00D1124E15EF94F2FEF3FEF358324838A
:1013000033832283462F372F282F04C04FEF3FEF20
:101310002FEF9FEF642F732F822FCF910895A0E0BE
:10132000B0E0E5E9F9E00C94A51ADA016330710543
:101330008105910590F4A90198016B017C0169E296
:101340006C9DC0016D9D900D11248E5F9E4FEC0130
:10135000E88DF98DBD01099501C08FEFCDB7DEB7DE
:10136000E8E00C94C11A6430710581059105C8F458
:101370002DE5269FF001279FF00D1124EF57FB4F1D
:1013800020813181232B69F022E030E031832083FA
:1013900040917F0650918006228176DC5ED081E00C
:1013A00008958FEF0895CF92DF92EF92FF92C09051
:1013B0007D04D0907E04E0907F04F09080048DE561
:1013C0008C9DF0018D9DF00D1124EF57FB4FDF0137
:1013D000AE5ABF4F8C91811105C083E090E091839C
:1013E00080833BD02DE52C9DC0012D9D900D1124B7
:1013F0009C012F573B4FF901E25BFF4F60817181E8
:101400008281938134961082FF90EF90DF90CF908D
:10141000089540917D0450917E0460917F04709105
:1014200080042DE5249FC001259F900D11248F5726
:101430009B4FFC01EE5AFF4F2081213049F4DC0123
:10144000A25BBF4F6D917D918D919C91108208950B
:1014500061E070E080E090E00895CF92DF92EF923B
:10146000FF9228DD8091810690918206A0918306EB
:10147000B0918406181619061A061B0624F481E09A
:10148000809385066CC0C0907D04D0907E04E0906F
:101490007F04F09080048DE58C9DF0018D9DF00D12
:1014A0001124EF57FB4F80819181019729F522810B
:1014B000338140917F065091800686E0849FD00161
:1014C000859FB00D1124A15EB94F12966D917C914C
:1014D0001397869FD001879FB00D1124A15EB94F4D
:1014E0008D919C9182179307D0F182E090E09183D7
:1014F0008083C701B601C8DB80917F06909180068A
:10150000DFDE60937D0470937E0480937F0490936C
:1015100080042DE5269FD001279FB00D1124FD01E9
:10152000EF57FB4F41E050E05183408341E050E0F2
:1015300060E070E040937104509372046093730410
:1015400070937404BD016B577B4F2C9DC0012D9D82
:10155000900D11248B579B4F0E948D00AFDCFF90A4
:10156000EF90DF90CF90089561307105810591056E
:1015700031F06230710581059105F1F03FC0809135
:10158000810690918206A0918306B0918406AC01F9
:10159000BD014F5F5F4F6F4F7F4F40938106509368
:1015A00082066093830670938406892B8A2B8B2B8B
:1015B00019F51092850620C08091810690918206CF
:1015C000A0918306B0918406181619061A061B0608
:1015D000ACF40197A109B10980938106909382062A
:1015E000A0938306B0938406892B8A2B8B2B21F43E
:1015F00080918506811131DF81E008958FEF089594
:10160000CF93DF93643071058105910598F42DE542
:10161000269FF001279FF00D1124EF57FB4F2081EB
:1016200031812530310531F4D281C3819CDE8D2F8B
:101630009C2F02C08FEF9FEFDF91CF9108958430F0
:10164000910568F427E0289FF001299FF00D1124EF
:10165000E750FA4F8081882311F0818108958FEF40
:101660000895CF93DF9397FF03C0CFEFDFEF34C030
:10167000C0914004D091410440E050E0A7E09E01B9
:101680002F5F3F4F2430310514F020E030E0AC9F55
:10169000F001AD9FF00D1124E750FA4FB081B11168
:1016A0000FC0309341042093400421E02083CF3FBA
:1016B0002FEFD20789F061837283838394830CC0F8
:1016C0004F5F5F4F4430510511F0E901D8CF30939F
:1016D000410420934004C9CFCE01DF91CF910895FA
:1016E000A0E0B0E0E6E7FBE00C94A51A64307105D9
:1016F0008105910540F5ADE5A69FF001A79FF00D8E
:101700001124EF57FB4FC081D1812097E1F0DF0119
:10171000AE5ABF4FFC90F11016C089019A016B01BF
:101720007C01E25BFF4F008311832283338321E03E
:101730002C93C330D10519F0279739F4C6D0C701CF
:10174000B60111DE02C08FEF01C081E0CDB7DEB778
:10175000E8E00C94C11A8430910500F527E0289F39
:10176000F001299FF00D1124E750FA4F8081882362
:10177000A9F081819281A381B481AC01BD014F5F49
:101780005F4F6F4F7F4F4183528363837483B7FFF3
:1017900007C08581968194DDE6DD02C08FEF089554
:1017A00081E00895A0E0B0E0E8EDFBE00C94A51A1C
:1017B0006A017B018430910508F03DC077FD3BC094
:1017C00027E0289FE001299FD00D1124C750DA4F50
:1017D0008881882381F161E070E080E090E0C4DEE0
:1017E0008E010F5F1F4F2596C114D104E104F1044F
:1017F000D9F0F80180819181A281B381AC01BD0152
:101800004F5F5F4F6F4F7F4F40835183628373837E
:10181000B7FF04C08881998153DDA5DDF1E0CF1ABF
:10182000D108E108F108E0CF62E070E080E090E0EC
:101830009BDE81E001C08FEFCDB7DEB7E8E00C940E
:10184000C11ACF92DF92EF92FF92CF93DF9397FD71
:1018500033C06B017C01672B682B692B11F4E1D03D
:1018600029C028DBD82F40916F04509170046091FB
:101870007D0470917E0480917F0490918004960194
:1018800064DAC82F8F3F19F48D2F17DB16C08091B3
:101890007D0490917E042DE5289FF001299FF00D95
:1018A0001124EF57FB4F84E090E091838083D5DDD6
:1018B0008D2F03DBC1E001C0CFEF8C2FDF91CF91E3
:1018C000FF90EF90DF90CF9008956430710581050F
:1018D0009105A0F52DE5269FF001279FF00D11241D
:1018E000EF57FB4F208131812115310539F124302B
:1018F000310519F02730310509F546E0469FD00142
:10190000479FB00D1124A15EB94F12962D913C91C5
:101910001397243031057CF4429FF001439FF00D72
:101920001124E15EF94F408151812D913C91240FAA
:10193000351F3183208320D881E008958FEF0895EB
:101940003AD8C3CA84309105C0F527E0289FF0013A
:10195000299FF00D1124E750FA4F2081222369F1CD
:10196000418152816381748141505109610971093A
:10197000418352836383748377FF21C09C0160910C
:101980007D0470917E0480917F04909180044DE5E8
:10199000469FD001479FB00D1124AF57BB4F46E083
:1019A00050E011965C934E93A85BBF4F2D933C93F0
:1019B0004581568136DC51DD02C08FEF089581E00C
:1019C0000895CF9361E070E080E090E0CDDDC6E067
:1019D00080916F0490917004C89FF001C99FF00D31
:1019E0001124E15EF94F228133812430310574F4F2
:1019F000C29FF001C39FF00D1124E15EF94F2081D9
:101A00003181232B19F45CDCAEDCE2CF62E070E0C4
:101A100080E090E0A9DDCF9108958EE292E047D07A
:101A20004FCA1BDD81E00895823621F415B88FEF8F
:101A300084B965B90895823611F485B108958FEFA0
:101A400008951F93CF93DF93162F89303CF4C1E0A4
:101A500001C0CC0F8A95EAF7D4E617C0282F082ECC
:101A6000000C330B8E304CF428503109C1E001C01A
:101A7000CC0F2A95EAF7D2E608C02D503109C1E013
:101A800001C0CC0F2A95EAF7D3E68D2FD4DF1123BE
:101A900019F06C2F682B03C0C0956C2F68238D2F15
:101AA000C3DF80E090E0DF91CF911F9108950F9305
:101AB0001F93CF93DF938C010E94F41AE801080F63
:101AC000191FC017D10721F089910E94F300F9CFA7
:101AD000DF91CF911F910F910895A1E5B0E0E3E769
:101AE000FDE00C94A81A9E01275A3F4FF90141913D
:101AF00051919F0161E570E0CE0101960E94041BA7
:101B00008E010F5F1F4F8DE5F82EF801808188232D
:101B100059F18A3099F480917D0490917E04F89E69
:101B2000F001F99EF00D1124EA52FB4F60817181A2
:101B3000072E000C880B990B4DE056DB80917D043D
:101B400090917E04F89EF001F99EF00D1124EA5266
:101B5000FB4F60817181072E000C880B990BF801F7
:101B600041918F0141DBD1CF80E090E0CF5ADF4F30
:101B7000E5E00C94C41A0F931F9300E010E0980165
:101B8000041715072607370764F4DC01ED91CD0132
:101B90000F5F1F4F2F4F3F4FE111F2CFB801C90127
:101BA00004C06FEF7FEF8FEF9FEF1F910F910895AC
:101BB000A5E0B0E0EEEDFDE00C949B1A382E292E46
:101BC0008B0169017A0140E150E060E070E0D3DF11
:101BD0004B015C0141E050E060E070E0C801CBDF08
:101BE0002B013C014FEF84169406A406B40609F4B9
:101BF0006BC06F3F7F4F8F4F9F4F09F465C083E0ED
:101C0000C816D104E104F10408F05EC08091860694
:101C100090918706A0918806B0918906843091053D
:101C2000A105B1050CF050C03C822D8225E1289F12
:101C3000F001299FF00D1124FB83EA8320E030E0BE
:101C400040E050E0BA01481559056A057B059CF44F
:101C5000EC81FD812190FD83EC83EA81FB81E20F21
:101C6000F31FE657F94F20824F5F5F4F6F4F7F4F53
:101C70002F5F3F4FE8CF14141504160417045CF4CB
:101C8000F801208135E1389FF001399FF00D1124D2
:101C9000E657F94F208B25E1289FF001299FF00D91
:101CA0001124E657F94FC18AD28AE38AF48A019651
:101CB000A11DB11D8093860690938706A093880688
:101CC000B093890681E001C08FEF2596E2E10C9484
:101CD000B71AA8E1B0E0EFE6FEE00C949B1A86E0AC
:101CE000E7EAF2E0DE01519601900D928A95E1F764
:101CF0001092860610928706109288061092890626
:101D000002E011E085E5282E82E0382E97E0C92E0A
:101D100092E0D92E23E8A22E22E0B22E3EE5832EB9
:101D200032E0932ECE014196FE013196412C512C8A
:101D300032017F01DC012D91CD01DF012D932223A2
:101D400039F02FEF421A520A620A720AFD01F2CFED
:101D5000D8011896AF8BB88F2FEF421A520A620A39
:101D6000720A80E148165104610471044CF48D91AB
:101D70009FEB980F9A3108F4805E81938111ECCF2C
:101D8000FF92EF92E3EEF2E0FF93EF936CD9D8016C
:101D900013968C9113978F9312968C9112978F9321
:101DA00011968C9111978F938C918F933F922F92D4
:101DB0005AD90FB6F894DEBF0FBECDBFF1E14F1672
:101DC0005104610471043CF0988D9F93AF89AF93E7
:101DD0009F928F9211C0F8012081318142815381FD
:101DE00068E072E0C701E4DE8F3F61F4F88DFF9395
:101DF0002F892F93BF92AF9236D90F900F900F90EB
:101E00000F9005C0DF92CF922ED90F900F90075DF3
:101E10001F4F81E00D37180709F084CF81E06896E5
:101E2000E2E10C94B71A4F925F926F927F928F9279
:101E30009F92AF92BF92DF92EF92FF920F931F9308
:101E4000CF93DF9300D000D01F92CDB7DEB7E090E4
:101E50008606F09087060091880610918906E9822F
:101E6000FA820B831C832AE836E0812C912C5401E2
:101E7000E980FA800B811C818E149F04A006B106B4
:101E8000ACF47C01F901412C512C3201D701419174
:101E90004423C1F00FEFE01AF00A5C9145130AC029
:101EA0001FEF411A510A610A710AF0CF6FEF7FEFFD
:101EB000CB0165C00FEF801A900AA00AB00A2B5E12
:101EC0003F4FD6CF7D83D62E40E150E060E070E0FA
:101ED00052DE698385E1889D8001899D100D112462
:101EE0000656194F40E150E060E070E0C80143DE63
:101EF000A9812A2FAA0F330B440B550B241935093E
:101F0000460957092B013C01B1E04B1A5108610801
:101F10007108420E531E641E751EE1E14E165104F7
:101F2000610471041CF62B013C01D801ED2DFD81EB
:101F300081E0481A51086108710814141504160448
:101F400017041CF48D918193F3CF12161306140617
:101F500015064CF4D7018D917D01819321503109F3
:101F600041095109F2CF85E1889DF001899DF00D6D
:101F70001124E657F94F61897289838994890F90FA
:101F80000F900F900F900F90DF91CF911F910F91B5
:101F9000FF90EF90DF90BF90AF909F908F907F90D9
:101FA0006F905F904F900895CF92DF92EF92FF92E3
:101FB000FB01C12CD12C7601C216D306E406F5062E
:101FC00064F46191DC016D93CD01662341F0BFEFB4
:101FD000CB1ADB0AEB0AFB0AEFCF8FEF01C081E0DF
:101FE000FF90EF90DF90CF900895A0E1B0E0EBEF8D
:101FF000FFE00C94A11A8B0149015A0120E130E065
:1020000040E050E0BC01CE010196CEDF8F3FF1F001
:10201000C12CD12C76010DC020E130E040E050E031
:10202000B801CE010196C0DF8FEFC81AD80AE80ABE
:10203000F80A8091860690918706A0918806B09153
:102040008906C816D906EA06FB0614F08FEF0AC007
:10205000B801CE010196E7DE681579058A059B0572
:10206000D9F2862F6096ECE00C94BD1AA0E1B0E0A6
:10207000ECE3F0E10C94A91AFC01CB018A01208168
:10208000318142815381BE016F5F7F4FAEDF682F88
:10209000880F770B880B990B6F3F2FEF7207820722
:1020A000920731F09801AE014F5F5F4F74D801C0C5
:1020B0008FEF6096E4E00C94C51A0F931F93CF93B3
:1020C000DF93FC0184819581A681B781FA01339762
:1020D000E830F10508F059C0EA59FF4F0C94951A01
:1020E00020E5289F8001299F100D1124E801C2528C
:1020F000D94F8CA19DA126DCEA81FB8110818CA1A6
:102100009DA129DB812F42C020E5289FF001299F56
:10211000F00D1124E252F94F82E509C020E5289F15
:10212000F001299FF00D1124E252F94F83E481AFB1
:1021300081E02CC020E5289FF001299FF00D11249B
:10214000E252F94F8BE4F3CF20E5289FF001299F5D
:10215000F00D1124E252F94F84A195A170DA16C056
:1021600020E5289FF001299FF00D1124E252F94F3C
:1021700081E082AF0BC020E5289FF001299FF00D80
:102180001124E252F94F12AED3CF8FEFDF91CF91EE
:102190001F910F910895A0E0B0E0E1EDF0E10C9403
:1021A000A51ADC011496CD90DD90ED90FC90179768
:1021B00080E58C9DE0018D9DD00D11248E01025291
:1021C000194FF80184A195A1BDDBD801ED91FC91D7
:1021D00011979F012F5F3F4F11963C932E93808163
:1021E000AE014E5F584F2417350720F0CE51D94F1E
:1021F000CD93DC9390E59C9DF0019D9DF00D112405
:10220000E252F94F91AD933461F4DF01AE5BBF4F01
:102210009C91992331F0ED5BFF4F9081891301C0B0
:102220008EEFCDB7DEB7E8E00C94C11ACF93C82F7C
:102230008A3011F08D3059F4FB0185AD882339F0D7
:102240008DE090E00E94F3008AE090E015C080EEFF
:102250008C0F8F3570F0FB0184AD882351F08EE533
:1022600090E00E94F30080E48C0F082E000C990B84
:1022700003C08C2FCC0F990B0E94F300CF910895CF
:10228000EF92FF921F93CF93DF93EC01142F8CA159
:102290009DA1D5D9082E000C990BAA0BBB0BB7FF3B
:1022A00003C080E090E0DC0129AD2235C1F48097C5
:1022B000A105B1050CF058C1EA81FB81CF0101965F
:1022C0009B838A8310832A813B81CE0184962817C1
:1022D000390708F423C180979B838A831FC11D306F
:1022E00019F43EAD31111AE0FE01E55BFF4F10829B
:1022F0002B34F1F48097A105B1050CF0E6C0EA811A
:10230000FB81CF0101969B838A8310832A813B81C5
:10231000CE0184962817390718F080979B838A830B
:102320008AAD882309F4FAC0BE01812F7FDFF6C091
:10233000FE01EB5BFF4F80819E012A5B3F4F7901DD
:10234000181320C0319780818823E1F08A819B8116
:10235000F90120813181821B930B9E012C5F3F4F3D
:102360008217930708F480969B838A83F701108273
:102370001182128213828DE090E00E94F3008AE0C5
:1023800090E0A9C0FE01E05CFF4F8081181721F0AA
:1023900031968081181352C08FAD882309F44EC046
:1023A000F70180819181A281B381181619061A065E
:1023B0001B060CF0D9C00197A109B1098083918354
:1023C000A283B3838A819B819C0121503109AE0194
:1023D0004C5F5F4F2417350718F03B832A8303C0F7
:1023E0004F969B838A838AAD882309F4BDC0EA8116
:1023F000FB81808180528F3590F08CAD882379F0FD
:1024000088E090E00E94F3008BAD882341F080E2E9
:1024100090E00E94F30088E090E00E94F30088E0E2
:1024200090E00E94F3008BAD882309F49DC080E208
:1024300090E00E94F30088E090E04DC01A3011F067
:102440001D3049F58AAD882319F0BE01812FEEDEDB
:10245000EA81FB81CF0101969B838A8310832A81C5
:102460003B81CE0184962817390718F080979B830B
:102470008A83F70140815181628173814F5F5F4F91
:102480006F4F7F4F8CA19DA18DD9F70110821182D2
:102490001282138269C08CA19DA1D1D8082E000C94
:1024A000990BAA0BBB0BB7FF03C080E090E0DC01E7
:1024B000F7014081518162817381840F951FA61FAE
:1024C000B71F4F97A105B1054CF0C15BDF4F888165
:1024D000082E000C990B0E94F30046C0FE01ED5B34
:1024E000FF4F90818AAD19131DC0319790819923B8
:1024F000C9F0882319F0BE01812F98DEF701808191
:102500009181A281B381892B8A2B8B2B69F5EA817A
:10251000FB81CF0101969B838A8310838CA19DA1AF
:102520001AD922C0882319F0BE01812F7FDEF7015E
:1025300080819181A281B3810196A11DB11D80830B
:102540009183A283B383EA81FB81CF0101969B83B0
:102550008A8310832A813B81CE018496281739070C
:1025600018F080979B838A83DF91CF911F91FF9012
:10257000EF900895CF92DF92EF92FF92CF93DF9387
:10258000FC01E55BFF4F208121116CC0EC012CA9FF
:102590003DA98EA99FA92817390761F02CA93DA94B
:1025A0008EA99FA92817390759F4C12CD12C76017F
:1025B000C3941FC08AA99BA942D888307CF352C01B
:1025C000EEA1FFA1CF0101969FA38EA38081082ECB
:1025D000000C990B0E94F3002CA93DA9CE01C996CD
:1025E0002817390718F001979DAB8CABC12CD12C63
:1025F00076018AA99BA923D828E030E0281B31095D
:1026000087FD3395CA94CD28CE28CF2801F5121620
:102610001306ECF4EEA1FFA1CF0101969FA38EA3B8
:102620008081082E000C990B0E94F3002EA13FA17F
:10263000CE01C2962817390718F008979FA38EA3DA
:1026400041E050E060E070E08AA99BA9ABD82CA9DA
:102650003DA98EA99FA92817390721F48AA99BA90A
:102660000E941F0BDF91CF91FF90EF90DF90CF90F2
:102670000895609106017091070150E5569FC001D1
:10268000579F900D11248252994F60E070E0232BE8
:1026900009F070CFF5CD0F931F93CF93DF93FC011B
:1026A00084819581A681B78120E5289F8001299F9B
:1026B000100D1124C8018E51994FE801C252D94F13
:1026C0009B838A839983888360E070E0CB010E94BA
:1026D000310B9DA38CA3C801885F984F99A788A749
:1026E0009FA38EA368E070E080E090E00E94310B31
:1026F0009BAB8AAB0A5E184F1FAB0EAB1DAB0CAB8E
:1027000083E489AF81E08AAF8BAF8CAF8DAF8EAFA2
:102710008FAFFE01E05CFF4F98E0908331969FE71A
:10272000908331968083319694E0908331968083B4
:10273000319695E190833196108211821282138234
:102740003496808331961082319693E1908331964E
:1027500091E1908331968083C15BDF4F87E088836E
:1027600081E0DF91CF911F910F910895F89421E0BE
:1027700030E048E561E070E080E090E07ADF789456
:1027800008958F929F92AF92BF92DF92EF92FF9245
:102790000F931F93CF93DF937C01D62EFC0184808F
:1027A0009580A680B780FAE06F130EC080E5889D03
:1027B000F001899DF00D1124E45DF84F808188239C
:1027C00019F06DE0C701DDDF80E5889D8001899DFE
:1027D000100D1124E801C252D94F8AA99BA9B2D881
:1027E000E8A5F9A5CF01019699A788A7D082C801CD
:1027F000805F984F28A539A52817390720F0085F72
:10280000184F19A708A7F70184A195A1AFDF81E0B0
:10281000DF91CF911F910F91FF90EF90DF90BF90CC
:10282000AF909F908F900895A0E0B0E0E9E1F4E1CF
:1028300088C68C017B0149015A0157FD5BC0FC0130
:1028400084819581A681B78120E5289FF001299F89
:10285000F00D1124E252F94F81AD833469F18114F6
:102860009104A104B10471F484A195A10E941F0BED
:10287000882E880F9908AA08BB0881149104A10426
:10288000B104D1F1E701C12CD12C7601C814D904CF
:10289000EA04FB044CF4C8017EDC8993FFEFCF1AF5
:1028A000DF0AEF0AFF0AF2CFD501C401B7FE27C045
:1028B00080E090E0DC0123C0C8016DDC8E3FF1F0C8
:1028C000E7018993C12CD12C7601C394C814D90493
:1028D000EA04FB0414F08C2D12C08A30E1F38D3031
:1028E000D1F3C80158DC89939FEFC91AD90AE90AC4
:1028F000F90AECCF8FEF03C080E001C08EEFCDB7B7
:10290000DEB7ECE03AC6A0E0B0E0E8E8F4E11DC6CE
:102910008C0169017A0157FD11C0232B242B252B33
:1029200011F481E00CC0EB016991C8012ADF81E05C
:10293000C81AD108E108F108B9F7F3CF8FEFCDB786
:10294000DEB7E8E01EC6A0E0B0E0E8EAF4E1F3C5D7
:10295000F901E6011701C12CD12C7601C39440E0A6
:1029600050E0BA0123E0422E512C612C712C46011B
:10297000570121E0821A9108A108B108DC012C91CD
:10298000211108C0F8014083518362837383B4012D
:10299000C501C3C02A30B1F329E0C216D104E10455
:1029A000F104A9F0DC011AC0488259826A827B8254
:1029B000373209F061C04A015B010196DC011197D1
:1029C0002C91321709F498C02A3009F058C06FEFE3
:1029D0007FEF8FEF9FEFA1C0393029F4CD013D91FA
:1029E0003032D1F7FBCF3A3039F4D8014D935D93B3
:1029F0006D937C931397CBCF3323B9F3D1014D93D0
:102A00005D936D937D931D0101963C33A1F03E33A0
:102A1000B9F0363249F6188219821A821B82DF0118
:102A2000A40FB51F3C934A015B01BFEF8B1A9B0AB1
:102A3000AB0ABB0A19C0812C912C5401839405C0A8
:102A400022E0822E912CA12CB12C88829982AA821C
:102A5000BB82DF01A40FB51F3C934A015B012FEF3E
:102A6000821A920AA20AB20ADF01A80DB91D4E5FAE
:102A70005F4F6F4F7F4F49C0323271F49CCF22239A
:102A800009F4A5CFDF01A80DB91D2C93AFEF8A1A69
:102A90009A0AAA0ABA0A91CFDF01A40FB51F3C9384
:102AA0004A015B01BFEF8B1A9B0AAB0ABB0AAC0160
:102AB000CA01DA012D91AD012A30F1F02223E1F0B3
:102AC000322F3D7F3C3309F482CF2032A9F02930E8
:102AD00099F0263289F0273209F479CF223209F4AD
:102AE00076CFCF01880D991DDC012C93BFEF8B1A97
:102AF0009B0AAB0ABB0ADCCFB501A4014F5F5F4F55
:102B00006F4F7F4FDF01A80DB91D1C92BFEFCB1A8D
:102B1000DB0AEB0AFB0A24962ACFCDB7DEB7E2E147
:102B200026C54F925F926F927F92AF92BF92CF92E3
:102B3000DF92EF92FF920F931F93CF93DF938FE17A
:102B400094E09F938F93C3EED2E0DF93CF930E94E4
:102B500033088FEE93E09F938F93DF93CF930E9480
:102B60003308C1E8D4E001EC14E08DB79EB70896B5
:102B70000FB6F8949EBF0FBE8DBF412C512C320171
:102B80008DEAC82E82E0D82E93EBE92E92E0F92E42
:102B900027E0A22E22E0B22E88819981892B09F4A8
:102BA0004AC07F926F925F924F921F930F93DF9272
:102BB000CF920E943308F80185858F9384858F9387
:102BC00083858F9382858F93FF92EF920E943308C3
:102BD0008B818F938A818F93FF92EF920E943308AB
:102BE00089818F9388818F93FF92EF920E9433089F
:102BF0008FAD8F938EAD8F938DAD8F938CAD8F9363
:102C0000FF92EF920E943308F80181858F938085AF
:102C10008F93FF92EF920E9433088DB79EB78096F4
:102C20000FB6F8949EBF0FBE8DBFBF92AF920E94A9
:102C300033080F900F909FEF491A590A690A790AD1
:102C4000C35ADF4F035A1F4FE4E04E16510461048C
:102C5000710409F0A1CF80E0DF91CF911F910F9116
:102C6000FF90EF90DF90CF90BF90AF907F906F90EC
:102C70005F904F9008954F925F926F927F92AF92C4
:102C8000BF92CF92DF92EF92FF920F931F93CF9359
:102C9000DF93029754F088EB92E09F938F930E940A
:102CA00033080F900F9081E058C08EEC92E09F9314
:102CB0008F930E94330882E393E09F938F930E9447
:102CC0003308C2E0D1E00F900F900F900F90412C8D
:102CD000512C320180EBA82E82E0B82E92EEC92E44
:102CE00092E0D92E2FEAE22E22E0F22E07E012E047
:102CF0007F926F925F924F92BF92AF920E94330881
:102D0000CE0108969F938F93DF92CF920E94330853
:102D10008F818F938E818F938D818F938C818F93F1
:102D2000FF92EF920E9433081F930F930E94330883
:102D30008FEF481A580A680A780AA9968DB79EB785
:102D400042960FB6F8949EBF0FBE8DBF93E0491612
:102D500051046104710461F680E0DF91CF911F910D
:102D60000F91FF90EF90DF90CF90BF90AF907F904A
:102D70006F905F904F90089580E090E0C6E9D1E0B9
:102D80008C010F5F1F4F9F938F93DF93CF930E9410
:102D900033086AE070E080E090E00E94210C0F9020
:102DA0000F900F900F90C801EBCF61E070E08DE0C5
:102DB00090E00E94210D62E370E080E090E00E94CC
:102DC000210C60E070E08DE090E00E94210D62E354
:102DD00070E080E090E00E94210CE7CFA0E0B0E03E
:102DE000E3EFF6E1AAC312161306140615060CF05B
:102DF00044C0F7FC42C0F8017901EE0CFF1CADE5C0
:102E0000A69F8001A79F100D1124C12CD12C4190A9
:102E100051906190719048018C0C9D1CD401AF576A
:102E2000BB4F4A0C5B1C9F965C924E929E97B2E001
:102E3000CB0ED11CCE14DF0451F7EDE5E69F8001E7
:102E4000E79F100D1124D801AF57BB4F9D963C93BF
:102E50002E939C97F9017796EE0FFF1FCF01800FFD
:102E6000911FFC01EF57FB4F118210825C962C934F
:102E70005C975D961C9281E001C08FEFE0E179C321
:102E8000ACEAB0E0E5E4F7E156C38BE991E09F934B
:102E90008F9388E593E09F938F930E9433080F9060
:102EA0000F900F900F909E012F5F3F4F1901AE01C1
:102EB00045565F4FCD55DF4F59834883C35AD040A5
:102EC0006DE573E07F936F930E94330801E210E099
:102ED00020E030E0AE01465D5F4F60E070E0CB0186
:102EE0000E948F09482F880F550B660B770B0F90A8
:102EF0000F904E3F9FEF59076907790709F4E9C220
:102F00004230510561057105DCF2EAE2F0E0EC0FB8
:102F1000FD1FE40FF51F8AE08083DE01A55BBF4F34
:102F20006D01FE01E559FF4F7F018E0101561F4FD4
:102F30009101CE018A9607DD2B013C016F3FFFEF27
:102F40007F078F079F0741F424E633E03F932F93D9
:102F500082E793E09F93C5C16115710581059105D5
:102F600029F487E092E09F938F93D8C1AB01BC0115
:102F70004150510961097109FA01EE0FFF1FEE0F6F
:102F8000FF1F8BE490E08C0F9D1FE80FF91F8081DD
:102F90009181A281B381892B8A2B8B2BE1F4C156BD
:102FA000DF4F88819981AA81BB81CF59D040029798
:102FB000A109B109C156DF4F88839983AA83BB83D6
:102FC000CF59D0402A013B0191E0C755DF4F98838C
:102FD000C95AD04005C0C755DF4F1882C95AD040E2
:102FE000A3E04A165104610471040CF4F3C0B30168
:102FF000A2014250510961097109FA01EE0FFF1F48
:10300000EE0FFF1FABE4B0E0AC0FBD1FAE0FBF1F54
:103010000D911D912D913C91D901C8010197A109F4
:10302000B1090297A105B10508F04CC0D301C20156
:103030000197A109B109880F991F880F991FABE467
:10304000B0E0AC0FBD1FA80FB91FCD90DD90ED9083
:10305000FC90B3E0CB16D104E104F10409F074CF85
:10306000ABE6B0E0AC0FBD1FA80FB91F01301105D2
:103070002105310539F42D913C91220D331D80E05D
:1030800090E006C08D919C91820D931D20E030E070
:10309000ABE6B0E0AC0FBD1FEA0FFB1FC080D180D4
:1030A000E280F380C156DF4FC882D982EA82FB8278
:1030B000CF59D0402A013B014330510561057105CC
:1030C0002CF48CC020E030E080E090E0B301A2015D
:1030D0004250510961097109CB55DF4F488359832B
:1030E0006A837B83C55AD040BA01660F771F660F8B
:1030F000771FEBE4F0E0EC0FFD1FE60FF71FC08039
:10310000D180E280F3804601570151E0851A910891
:10311000A108B108A2E08A169104A104B10408F044
:103120005DC053014201B1E08B1A9108A108B108BA
:10313000A401440F551F440F551FEBE4F0E0EC0FC2
:10314000FD1FE40FF51F80809180A280B380E3E033
:103150008E169104A104B10409F0F6CEF1E0CF1669
:10316000D104E104F10471F4232B09F0EDCEEBE678
:10317000F0E0EC0FFD1FE40FF51F20813181220DDF
:10318000331D0DC0892B09F0DFCEEBE6F0E0EC0F2C
:10319000FD1FE40FF51F80819181820D931DEBE6E9
:1031A000F0E0EC0FFD1FE60FF71F408151816281B7
:1031B0007381C156DF4F488359836A837B83CF591C
:1031C000D040CB55DF4F488059806A807B80C55AFC
:1031D000D04004C020E030E080E090E0FE01E55BFC
:1031E000FF4F40E050E0BA014415550566057705EC
:1031F0007CF4C190D190E190F19013E0C116D1041C
:10320000E104F104F1F44F5F5F4F6F4F7F4FECCF5C
:103210004114510461047104A1F045EE53E0C65518
:10322000DF4F59834883CA5AD040C0907F01D09065
:103230008001E0908101F0908201812C912C540159
:103240002EC064E673E07F936F9368C0BF01DA011C
:103250001D91AD01CB55DF4F1883C55AD0401123C6
:1032600009F447C03196DB016C91CB55DF4FB88133
:10327000C55AD040B61751F34FEF841A940AA40AE6
:10328000B40AC655DF4F68817981CA5AD0406B5F56
:103290007F4FC655DF4F79836883CA5AD0408C145C
:1032A0009D04AE04BF04C1F0C655DF4FA881B981AB
:1032B000CA5AD040BC91C455DF4FB883CC5AD040D5
:1032C000C655DF4FE881F981CA5AD04001814B2FA2
:1032D000502FFE013196BACF3F922F9286E793E0AE
:1032E0009F938F930E9433080F900F900F900F9031
:1032F000E7CD40814111C0CF45E0489DF001499D97
:10330000F00D1124EB51FC4F4281442309F446C0D7
:10331000232B49F0ECE8F3E0FF93EF930E9433088E
:103320000F900F90CDCD892BA9F7C755DF4FB881EE
:10333000C95AD040B111EECFDE01A559BF4FFE01F1
:10334000E557FF4F00E010E09801AF0104151505A7
:103350002605370574F4CD90DD90ED90FD90C10108
:103360008C0D9D1D819391930F5F1F4F2F4F3F4FEA
:10337000EDCF85E0889DF001899DF00D1124EB5182
:10338000FC4F0380F481E02DC301B20109956D3F2C
:103390007F4F8F4F9F4F09F093CD9BC0CC55DF4F90
:1033A0003881C45AD0403F93CD55DF4F4881C35A2E
:1033B000D0404F937F926F925F924F921F9282E024
:1033C0008F930F93C455DF4F5881CC5AD0405F93F1
:1033D0001F9284E18F9381E08F931F9284818F935A
:1033E00083818F930E944B02CB55DF4F6883798393
:1033F0008A839B83C55AD0400FB6F894DEBF0FBEB8
:10340000CDBFCB55DF4F88819981AA81BB81C55A39
:10341000D0408F3F9F4FAF4FBF4F29F429EB33E090
:103420003F932F937BCFC156DF4FC880D980EA806E
:10343000FB80CF59D040BE0165567F4F4B015101F3
:103440008E0105591F4FA3019201CB55DF4F6881B3
:1034500079818A819B81C55AD040C0DC8F3FF1F2CF
:103460002DE5CB55DF4FA881B981C55AD0402A9FA1
:10347000C0012B9F900D11248F579B4FFC01ED5ADB
:10348000FF4F118210823296118210820E94090A27
:10349000CB55DF4F688179818A819B81C55AD040A5
:1034A0000E94000BC755DF4FB881C95AD040B111F7
:1034B00007CD0E94D309CB55DF4F288139814A813E
:1034C0005B81C55AD040621773078407950789F757
:1034D000F7CC80ED93E09F938F930E9433080F9079
:1034E0000F9061E070E080E090E0C455DF4FE2E1D2
:1034F0003EC0052E97FB16F400940FD057FD05D063
:1035000051D007FC02D046F408C050954095309544
:1035100021953F4F4F4F5F4F08959095809570953F
:1035200061957F4F8F4F9F4F0895EE0FFF1F0590BE
:10353000F491E02D09942F923F924F925F926F92F7
:103540007F928F929F92AF92BF92CF92DF92EF9233
:10355000FF920F931F93CF93DF93CDB7DEB7CA1BB4
:10356000DB0B0FB6F894DEBF0FBECDBF09942A88DF
:10357000398848885F846E847D848C849B84AA8487
:10358000B984C884DF80EE80FD800C811B81AA8114
:10359000B981CE0FD11D0FB6F894DEBF0FBECDBFDF
:1035A000ED010895A1E21A2EAA1BBB1BFD010DC05F
:1035B000AA1FBB1FEE1FFF1FA217B307E407F507E3
:1035C00020F0A21BB30BE40BF50B661F771F881FBF
:1035D000991F1A9469F760957095809590959B0155
:1035E000AC01BD01CF010895FC0105900020E9F771
:1035F000809590958E0F9F1F0895DC0101C06D93FB
:1036000041505040E0F70895AEE0B0E0E9E0FBE162
:10361000A0CF8C01FA0186E08C831A83098377FF9F
:1036200002C060E070E8CB0101979E838D83A90101
:10363000BF01CE01019611D04D815E8157FD0AC0B8
:103640002F813885421753070CF49A01F801E20FD5
:10365000F31F10822E96E4E098CFABE0B0E0E2E3F7
:10366000FBE169CF6C017B018A01FC0117821682A4
:10367000838181FFBFC1CE0101963C01F601938198
:10368000F70193FD859193FF81917F01882309F4D0
:10369000ADC1853239F493FD859193FF81917F010E
:1036A000853221F4B60190E0C0D1E8CF912C212CD5
:1036B000312CFFE1F315D8F08B3279F038F48032F9
:1036C00079F08332A1F4232D20611DC08D3261F089
:1036D000803369F4232D216016C0832D8260382E3B
:1036E000E32DE4603E2E2AC0F32DF8601DC037FCA8
:1036F0002DC020ED280F2A3040F08E32B9F436FC70
:1037000075C1232D2064322E19C036FE06C08AE012
:10371000989E200D1124922E11C0EAE02E9E200DBD
:103720001124222EF32DF0623F2E08C08C3621F496
:10373000832D8068382E02C0883641F4F70193FD4E
:10374000859193FF81917F018111B3CF982F9F7D48
:103750009554933028F40C5F1F4F9FE399830DC05D
:10376000833631F0833771F0833509F055C020C0BE
:10377000F801808189830E5F1F4F88248394912CE8
:10378000530112C02801F2E04F0E511CF801A08035
:10379000B18036FE03C0692D70E002C06FEF7FEF8D
:1037A000C50138D14C018201F32DFF773F2E15C0A2
:1037B000280122E0420E511CF801A080B18036FEA3
:1037C00003C0692D70E002C06FEF7FEFC50117D114
:1037D0004C01F32DF0683F2E820133FC19C0822D7D
:1037E00090E088169906A0F4B60180E290E01DD121
:1037F0002A94F5CFF50137FC859137FE81915F0161
:10380000B60190E012D121102A9421E0821A910889
:103810008114910479F7E1C0843611F0893639F5C5
:10382000F80137FE07C060817181828193810C5F4E
:103830001F4F08C060817181072E000C880B990B07
:103840000E5F1F4FF32DFF763F2E97FF09C0909517
:103850008095709561957F4F8F4F9F4FF0683F2EF9
:103860002AE030E0A3011DD1882E861844C0853798
:1038700031F4232D2F7EB22E2AE030E025C0932D87
:10388000997FB92E8F36C1F018F4883579F0AEC023
:10389000803719F0883721F0A9C0E92FE061BE2EEA
:1038A000B4FE0DC0FB2DF460BF2E09C034FE0AC06B
:1038B000292F2660B22E06C028E030E005C020E1A6
:1038C00030E002C020E132E0F801B7FE07C06081BD
:1038D0007181828193810C5F1F4F06C0608171816D
:1038E00080E090E00E5F1F4FA301DBD0882E86188A
:1038F000FB2DFF773F2E36FE0DC0232D2E7FA22EEF
:10390000891458F434FE0BC032FC09C0832D8E7E1E
:10391000A82E05C0B82CA32C03C0B82C01C0B92C0C
:10392000A4FE0FC0FE01E80DF11D8081803321F45B
:103930009A2D997EA92E09C0A2FE06C0B394B39415
:1039400004C08A2D867809F0B394A3FC10C0A0FEB1
:1039500006C0B21480F4280C922C9B180DC0B2142F
:1039600058F4B60180E290E060D0B394F8CFB2147E
:1039700018F42B1802C0982C212CA4FE0FC0B601FD
:1039800080E390E052D0A2FE16C0A1FC03C088E7FD
:1039900090E002C088E590E0B6010CC08A2D8678E0
:1039A00051F0A1FE02C08BE201C080E2A7FC8DE2D3
:1039B000B60190E03AD0891430F4B60180E390E08B
:1039C00034D09A94F8CF8A94F301E80DF11D8081E8
:1039D000B60190E02AD08110F6CF222009F44ECE15
:1039E000B60180E290E021D02A94F7CFF6018681DB
:1039F000978102C08FEF9FEF2B96E2E1B8CDFC01DB
:103A00000590615070400110D8F7809590958E0F09
:103A10009F1F0895FC016150704001900110D8F77C
:103A2000809590958E0F9F1F08950F931F93CF93AE
:103A3000DF93FB01238121FD03C08FEF9FEF2CC09B
:103A400022FF16C0468157812481358142175307D2
:103A500044F4A081B1819D012F5F3F4F31832083CA
:103A60008C93268137812F5F3F4F3783268314C085
:103A70008B01EC01FB010084F185E02D0995892B78
:103A8000E1F6D80116968D919C911797019617969D
:103A90009C938E931697CE01DF91CF911F910F913A
:103AA0000895FA01AA27283051F1203181F1E894D4
:103AB0006F936E7F6E5F7F4F8F4F9F4FAF4FB1E021
:103AC0003ED0B4E03CD0670F781F891F9A1FA11D1C
:103AD000680F791F8A1F911DA11D6A0F711D811D1D
:103AE000911DA11D20D009F468943F912AE0269FE2
:103AF00011243019305D3193DEF6CF010895462F41
:103B00004770405D4193B3E00FD0C9F7F6CF462F21
:103B10004F70405D4A3318F0495D31FD405241938A
:103B200002D0A9F7EACFB4E0A69597958795779547
:103B30006795BA95C9F700976105710508959B01CE
:103B4000AC010A2E06945795479537952795BA9557
:0E3B5000C9F7620F731F841F951FA01D0895F3
:103B5E00C0000000000000000000434F4E534F4CC9
:103B6E00450000004B1363076307141483146107A9
:103B7E00CB10C1135D100038391335010000000061
:103B8E000000004E554C4C44455600000063076340
:103B9E00076307630763076107630763076107002E
:103BAE000061070002000000000000004E414D457C
:103BBE00535041434500690E361061076107610796
:103BCE0061076107610761070000610700040002D9
:103BDE000000006572726F722067657473746B3AC1
:103BEE00202573202C2025640A000A57656C636F0C
:103BFE006D6520746F2058696E75210A0058696EC4
:103C0E0075204F5320436F7079726967687420284E
:103C1E00632920323031322C20323031350A0044C3
:103C2E00616E69656C204564756172646F205175B3
:103C3E00696E7465726F2056696C6C656761730A84
:103C4E00000A0A0A467265654D454D3A25642028DC
:103C5E006279746573290A0A006E756C6C70007354
:103C6E0074617274207368656C6C0A00626C696EA4
:103C7E006B00636F7265310073746F700A000A0A0D
:103C8E00416C6C20757365722070726F636573730F
:103C9E006573206861766520636F6D706C65746501
:103CAE00642E0A0A00096964203A202564006E61B8
:103CBE006D6573706163653A20646576696365202E
:103CCE006E616D6520257320746F6F206C6F6E674B
:103CDE000D0A006E616D6573706163653A206361F4
:103CEE006E6E6F74206D6F756E7420646576696389
:103CFE00652025640D0A002F6465762F0025730953
:103D0E0025640009256420004E6F20617267756D71
:103D1E00656E747320616C6C6F7765640A000A447B
:103D2E006576696365094E616D65094D696E6F72E1
:103D3E000A000925730046726565204C6973743A52
:103D4E000A000A426C6F636B096164647265737377
:103D5E00094C656E677468092864656329094C65AA
:103D6E006E6774680928686578290A002D2D2D2D37
:103D7E002D2D2D2D2D2D2D2D2D2D2D2D2D2D2D2D65
:103D8E002D2D2D2D2D2D2D2D2D2D2D2D2D2D2D2D55
:103D9E002D2D2D2D2D2D2D2D2D0A000925396400AB
:103DAE00093078253038780025730A0A0078736850
:103DBE002024200053796E746178206572726F72C0
:103DCE000A0025730A00636F6D6D616E64202573A2
:103DDE00206E6F7420666F756E640A0043616E6E9E
:103DEE006F7420726564697265637420492F4F2069
:103DFE006F72206261636B67726F756E64206120F3
:103E0E006275696C74696E0A0043616E6E6F742020
:103E1E006372656174652070726F636573730A00F7
:103E2E005368656C6C20636C6F7365640A00707305
:103E3E000064657600DE03019115E103013B160A6D
:103E4E006E616D6509696409706172656E740970E1
:103E5E0072696F0973746174650973746B6C656E46
:103E6E000973656D2077616974730A2D2D0A000A36
:103E7E007461626C65206F662063757272656E7414
:0C3E8E002070726F6365737365730A0027
:00000001FF
