:10000000ABC00000CBC00000C9C00000C7C00000EA
:10001000C5C00000C3C00000C1C00000BFC00000D8
:10002000BDC00000BBC00000B9C00000B7C00000E8
:10003000B5C00000B3C00000B1C00000AFC00000F8
:10004000ADC0000095C10000A9C00000A7C000001D
:10005000A5C00000A3C00000A1C000009FC0000018
:100060009DC0000012C1000099C0000097C00000B0
:1000700095C0000093C0000091C000008FC0000038
:100080008DC000008BC0000089C0000087C0000048
:1000900085C0000083C0000081C000007FC0000058
:1000A0007DC000007BC0000079C0000077C0000068
:1000B00075C0000073C0000071C000006FC0000078
:1000C0006DC000006BC0000069C0000067C0000088
:1000D00065C0000063C0000061C000005FC0000098
:1000E0005DC000000C94CE000C94CE000C94CE00A9
:1000F0000C94CE000C94CE000C94CE000C94CE0048
:100100000C94CE000C94CE000C94CE000C94CE0037
:100110000C94CE000C94CE000C94CE000C94CE0027
:100120000C94CE000C94B8010C94CE000C94CE002C
:100130000C94CE000C94CE000C94CE000C94CE0007
:100140000C94CE000C94450119102D10371043105B
:100150006E104D105910641011241FBECFEFD1E264
:10016000DEBFCDBF00E00CBF16E0A0E0B2E0EAEADF
:10017000FBE300E00BBF02C007900D92A03CB1076B
:10018000D9F72BE2A0ECB6E001C01D92AC38B20763
:10019000E1F70C9476050E942A17F3C231CFFF9342
:1001A000EF93FC0100820FB6F89404A21182228220
:1001B0003382448255826682778280869186A286C7
:1001C000B386C486D586E686F786008B118B228B94
:1001D000338B448B558B668B778B808F918FA28F5F
:1001E000B38FC48FD58F0F90068E0F90078E0DB6EC
:1001F00000A20EB601A2FB0100A00DBE01A00EBE22
:10020000078C0F92068C0F92D58DC48DB38DA28D65
:10021000918D808D778966895589448933892289B2
:1002200011890089F784E684D584C484B384A284C8
:1002300091848084778066805580448033802280DA
:10024000118004A00FBE0080EF91FF910895E1ECB2
:10025000F0E0808188618083A2ECB0E08C918660C0
:100260008C9387E68093C4001092C50080818068DB
:10027000808308959091C00095FFFCCF8093C600C5
:100280008091C00086FFFCCF08951F920F920FB699
:100290000F9211240BB60F922F933F934F935F93BE
:1002A0006F937F938F939F93AF93BF93EF93FF933E
:1002B0004091C6004093A40C20E030E061E070E083
:1002C00080E090E00E94E112FF91EF91BF91AF9129
:1002D0009F918F917F916F915F914F913F912F915E
:1002E0000F900BBE0F900FBE0F901F901895A4E0BB
:1002F000B0E0EDE7F1E00C94951A19821A821B82A6
:100300001C8219821A821B821C8209811A812B810C
:100310003C81061717072807390770F40000098188
:100320001A812B813C810F5F1F4F2F4F3F4F098355
:100330001A832B833C83E9CF2496E4E00C94B11A12
:1003400080E284B92D9A60E47DE083E090E0CFDF25
:100350002D9860E47DE083E090E0C9CF1092CD0C51
:100360001092CE0C1092CF0C1092D00C81E0089518
:100370008091D70C9091D80CA091D90CB091DA0C47
:100380000196A11DB11D8093D70C9093D80CA0931A
:10039000D90CB093DA0C883E9340A105B105D8F092
:1003A0008091DB0C9091DC0CA091DD0CB091DE0C07
:1003B0000196A11DB11D8093DB0C9093DC0CA093E2
:1003C000DD0CB093DE0C1092D70C1092D80C10926A
:1003D000D90C1092DA0C8091D10C9091D20C26E0BD
:1003E000289FF001299FF00D1124EB53FF4E8281CD
:1003F00093818A30910584F4289FF001299FF00DA4
:100400001124EB53FF4E808191810197918380836A
:10041000892B11F40E94A00C8091D30C9091D40CE4
:10042000A091D50CB091D60C0197A109B10949F062
:100430008093D30C9093D40CA093D50CB093D60C8E
:100440000DC081E090E0A0E0B0E08093D30C9093E9
:10045000D40CA093D50CB093D60CD3D73FD69093A1
:10046000D20C8093D10C81E090E0A0E0B0E08093CA
:10047000D30C9093D40CA093D50CB093D60C1092BF
:10048000DB0C1092DC0C1092DD0C1092DE0C109242
:10049000D70C1092D80C1092D90C1092DA0C109242
:1004A0008000E1E8F0E01082109285001092840054
:1004B00088E592E09093890080938800808188602D
:1004C0008083808185608083EFE6F0E080818260B8
:1004D000808308956E3071058105910588F4AB0124
:1004E000BC0129E2249FC001259F900D112480505A
:1004F0009E4FDC015696ED91FC9157971995089502
:100500008FEF0895A8E0B0E0E8E8F2E00C94871AD5
:10051000CE8CDF8C3CA02DA088A199A1092E000CC7
:10052000AA0BBB0B89839A83AB83BC83BC01CD012F
:1005300055D22C013091C0062091C1068091C2068F
:100540009091C306612C712C1AE0E12EF12C00E091
:1005500010E0632F722FA80197010E94631A4B01CC
:100560005C016D839E82AF82B8869BE5989DF00109
:10057000999DF00D1124ED51F34F80819181B501CA
:10058000A4014F5F5F4F6F4F7F4F892B71F54093F1
:10059000C0065093C1066093C2067093C306AFEFC6
:1005A0004A165A06B1F54AB35BB36CB37DB388B350
:1005B00099B3E9D0B9A1BF93E8A1EF932F923F92ED
:1005C00084E494E09F938F930E94E90C0F900F9026
:1005D0000F900F900F900F90FFEFFD832FEF2E8362
:1005E0003FEF3F834FEF4887BFC0342F252FCB010C
:1005F000AFEF6A1A7A0ABAE06B16710409F0A9CF54
:100600004093C0065093C1066093C2069093C30600
:10061000CACF2FEF82169206A206B20621F28AA155
:100620009BA1181619060CF0BECF80917110909105
:100630007210A0917310B09174100196A11DB11D9C
:100640008093711090937210A0937310B0937410F4
:1006500085E090E091838083AAA1BBA1B383A283AC
:1006600051AE40AE89819A81AB81BC8182AF93AF9C
:10067000A4AFB5AFDF01AB5BBF4F1C92A32DB22D72
:100680008F0180E090E02D91F801E80FF91F26AF6F
:10069000222321F0019687309105A9F72BE5289DAB
:1006A000C001299D900D1124DC01AD51B34F7D0196
:1006B000FD01EA5BFF4F8FEF9FEF91838083F5D1C0
:1006C000F701E85BFF4F60837183828393833896E1
:1006D00010823196118210823296118210823296E7
:1006E00011821082F701C4AAD5AA8EA19FA193A757
:1006F00082A7DE01989620E030E02817390764F4DD
:100700004D915D91F901EE0FFF1FE00FF11F55A70D
:1007100044A72F5F3F4FF1CFFC017696EE0FFF1FEE
:100720004BE5489D9001499D300D1124E20FF31FC8
:10073000ED51F34F11821082F901ED51F34F848F87
:10074000958F215F324F228F338F8FE59CE0D2014E
:100750008C9311979C931197CC921197DC92B4E0F3
:100760004B1A510844A255A26D817E818F819885D4
:100770002896E2E10C94A31A61E070E080E090E03A
:10078000089593D195C3A0E0B0E0E9ECF3E00C94B8
:100790008D1AFC01411551056105710509F443C02D
:1007A0008091C1109091C210E817F907E0F1809193
:1007B000C3109091C4108E179F07A8F1495F5F4F37
:1007C0006F4F7F4F487F052E000C660B770BA09173
:1007D000BB10B091BC10CBEBD0E1109709F43FC037
:1007E000AE17BF0728F4ED010D90BC91A02DF5CFF9
:1007F00080E1CB3BD807E1F0CA80DB80EC80FD8054
:100800008E010D2E000C220B330B0C0D1D1D2E1D09
:100810003F1D6F010F2E000CEE08FF08C016D10619
:10082000E206F30610F48FEF7FC0109721F41EC08C
:1008300000E010E098016F010F2E000CEE08FF0899
:10084000C40ED51EE61EF71E4D010B2E000CAA0885
:10085000BB088C149D04AE04BF0440F4E4CF80E1D7
:10086000CB3BD80749F600E010E09801C090BD10DE
:10087000D090BE10E090BF10F090C010C40ED51EF6
:10088000E61EF71EC092BD10D092BE10E092BF10BF
:10089000F092C0106F010F2E000CEE08FF08C0167A
:1008A000D106E206F30671F40A811B812C813D8199
:1008B000400F511F621F731F4A835B836C837D83CC
:1008C000FE0108C0B183A083428353836483758390
:1008D000F983E88342815381648175818F010F2EF2
:1008E000000C220B330B040F151F261F371F6D0141
:1008F0000B2E000CEE08FF080C151D052E053F05FC
:1009000091F412960D911D912D913C911597400FE8
:10091000511F621F731F42835383648375838D91BC
:100920009C919183808381E0CDB7DEB7ECE00C949D
:10093000A91A26E0AC01249FC001259F900D112427
:10094000FC01EB53FF4E428153814A3051051CF5A7
:10095000BA01052E000C880B990B249FF001259FEE
:10096000F00D1124EB53FF4EA281B38144815581D8
:10097000249FF001259FF00D1124EB53FF4EB3830C
:10098000A2832A9FF0012B9FF00D1124EB53FF4E01
:100990005583448308956FEF7FEFCB01089546E0C0
:1009A000469FF001479FF00D1124EB53FF4EA281AB
:1009B000B38124813581429FF001439FF00D1124C2
:1009C000EB53FF4EB383A2834A9FF0014B9FF00D80
:1009D0001124EB53FF4E3583248308950F931F9307
:1009E000CF93DF93611571058105910509F456C018
:1009F000DC01CB010796A11DB11DBC01687FCB01B5
:100A0000072E000CAA0BBB0BE091BB10F091BC10A1
:100A1000CBEBD0E1309709F441C0028113812481EE
:100A2000358180179107A207B30729F4208131810E
:100A30003983288316C080179107A207B30748F5AA
:100A40006E0F7F1F7983688340815181EB01598349
:100A50004883081B190B2A0B3B0B0A831B832C832F
:100A60003D834091BD105091BE106091BF107091B8
:100A7000C0108A019B01081B190B2A0B3B0B00932A
:100A8000BD101093BE102093BF103093C010CF0143
:100A900007C0EF010190F081E02DBCCF8FEF9FEFF9
:100AA000DF91CF911F910F9108956091DF0C7091AC
:100AB000E00C8091E10C9091E20C08956E3071058C
:100AC0008105910588F4AB01BC0129E2249FC00196
:100AD000259F900D112480509E4FDC015296ED9180
:100AE000FC915397199508958FEF08954CD38BE59A
:100AF00094E09F938F9396D28EE694E09F938F938A
:100B000091D280E994E09F938F938CD2BAD21092C5
:100B10007110109272101092731010927410109243
:100B20009311109294111092951110929611E3EE78
:100B3000FCE00F900F900F900F900F900F9011828C
:100B4000108216AE11AE10AE13821282E55AFF4F1C
:100B500080E1E137F80799F7C5E7D0E118821982FB
:100B60001A821B821C82BAD29E838D83279690E1C3
:100B7000CB3BD90799F7F2DBB1D2909392118093D6
:100B80009111C12CD12C7601C701B60197DF8FEFEF
:100B9000C81AD80AE80AF80A9EE0C916D104E10486
:100BA000F10491F75BDCE091BB10F091BC1080E0A8
:100BB00090E0DC01309761F042815381648175815E
:100BC000840F951FA61FB71F0190F081E02DF2CF73
:100BD000BF93AF939F938F9382EB94E09F938F93F8
:100BE00021D21F921F921F921F928AEC94E09F9332
:100BF0008F931F928AE08F931F9280E48F931F92AE
:100C00001F9280DC2BE5269FF001279FF00D112419
:100C1000ED51F34F81E090E09183808342D11F92A8
:100C20001F921F921F9280ED94E09F938F931F92CB
:100C300084E18F931F9288EC8F9381EC96E19F93D0
:100C40008F9360DCB1D486ED94E09F938F93EAD1CB
:100C50008DB79EB780960FB6F8949EBF0FBE8DBF1E
:100C6000CDEDD4E0DF93CF93DDD10F900F90FACF8D
:100C70001F93CF93DF93FA013A97779708F054C008
:100C80006A3071058105910508F04EC03BE5369F3D
:100C9000F001379FF00D1124ED51F34F0190F081D9
:100CA000E02DEF2B09F440C036E0349FF001359F72
:100CB000F00D1124EB53FF4E42815381022E000CA4
:100CC000330BC6E016E0C49FF001C59FF00D112460
:100CD000EB53FF4EA081B181A217B30718F04281F8
:100CE0005381F0CFC481D581169FD001179FB00DDD
:100CF0001124AB53BF4E13965C934E9312971596E7
:100D0000DC93CE9314972D933C931C9FD0011D9F91
:100D1000B00D1124AB53BF4E13967C936E93129774
:100D20007583648381E001C08FEFDF91CF911F91C4
:100D300008954F925F926F927F928F929F92AF929F
:100D4000BF92CF92DF92EF92FF92CF93DF9300D0CA
:100D50001F92CDB7DEB76B017C01CA010A97479796
:100D600008F088C08AE0C816D104E104F10408F054
:100D700081C08BE58C9DF0018D9DF00D1124ED510E
:100D8000F34F80819181892B09F474C04A01052EAB
:100D9000000CAA08BB0886E0849FF001859FF00D37
:100DA0001124EB53FF4E82819381092E000CAA0B74
:100DB000BB0B4F5F5F4F2A01550F660877084982CA
:100DC0005A826B827C8266E049805A806B807C808C
:100DD00084159505A605B70569F566E06C9DF001DB
:100DE0006D9DF00D1124EB53FF4E5382428295828C
:100DF000848231832083689DA001699D500D112458
:100E0000FA01EB53FF4ED382C282649DF001659DCF
:100E1000F00D1124EB53FF4ED582C4828415950545
:100E2000A605B70529F180819181821B930B9183DF
:100E300080831EC0689FF001699FF00D1124EB5361
:100E4000FF4E408151812417350758F0241B350B84
:100E5000428153814C015D01CA01550FAA0BBB0BA6
:100E6000B3CF2C013D0189819A81AB81BC81B5CF83
:100E700081E001C08FEF0F900F900F900F90DF91E6
:100E8000CF91FF90EF90DF90CF90BF90AF909F9069
:100E90008F907F906F905F904F900895F89480E0CE
:100EA000089578940895FFCF8FEF089581E0089515
:100EB000A0E0B0E0EEE5F7E00C94911A6A3071051D
:100EC0008105910508F09DC02BE5269FF001279F25
:100ED000F00D1124ED51F34F20813181232B09F4C2
:100EE00090C0611571058105910509F48AC06B01F7
:100EF0007C018091711090917210A0917310B0914B
:100F000074100197A109B109809371109093721028
:100F1000A0937310B09374100297A105B1050CF45F
:100F20003BD58BE58C9D80018D9D100D1124F80122
:100F3000E55DF24F6081718182819381A701960105
:100F4000A3D3C0E0D0E0FE01E00FF11FEC5CF24F54
:100F500060817181072E000C880B990BBBDA2296F9
:100F6000C630D10581F78BE58C9DE0018D9DD00DBC
:100F70001124CD51D34F4AAD5BAD6CAD7DAD88AD85
:100F800099AD01DC888199818430910581F030F43C
:100F90008130910549F0029729F127C086309105EB
:100FA00051F0079721F021C0198218822AD2C70177
:100FB000B6014AD41AC0CA5BDF4F8881998127E005
:100FC000289FF001299FF00D1124EB58FF4E8181DD
:100FD0009281A381B4810196A11DB11D8183928369
:100FE000A383B483C701B601DADC8BE58C9DF001E5
:100FF0008D9DF00D1124ED51F34F1182108281E08F
:1010000001C08FEFCDB7DEB7E8E00C94AD1ACF93F7
:10101000C82F8A3011F48DE02DD98C2F2BD981E087
:10102000CF910895A1E5B0E0E8E1F8E00C94931ABF
:101030008E01055A1F4FF801E190F1908F0121E5D3
:1010400030E040E050E060E070E0CE0101960E94A8
:10105000E91A9801A70160E570E0CE0101960E94AF
:10106000F01A8E010F5F1F4FF80181918F018823C5
:1010700011F0CDDFF9CF81E0CF5ADF4FE6E00C94DD
:10108000AF1ACF93DF9345EC56E05093C2104093D4
:10109000C11080EA9CE09093C4108093C310EBEBE6
:1010A000F0E151834083C4ECD6E01A821982092E04
:1010B000000CAA0BBB0B052E000C660B770B841BD8
:1010C000950BA60BB70B8B839C83AD83BE8382836A
:1010D0009383A483B583DF91CF91089520913E043B
:1010E00030913F042232310544F5C90102969093B4
:1010F0003F0480933E04A9014F5F5F4F66E0629F0B
:10110000F001639FF00D1124EB53FF4E5383428394
:101110008FEF9FEF9583848391838083649FF00199
:10112000659FF00D1124EB53FF4E9383828335832B
:10113000248311821082C90108958FEF9FEF0895D3
:101140000F931F93CF93DF936E3071058105910547
:10115000A0F4E901DA018B019C0149E2409FC00142
:10116000419F900D112480509E4FFC0124893589A8
:10117000AE01BD01F901199501C08FEFDF91CF914B
:101180001F910F910895F894DBD8DAD860D8F4CA8B
:101190000F931F936E3071058105910590F48B01BB
:1011A0009C0159E2509FC001519F900D1124805025
:1011B0009E4FDC019096ED91FC919197642F1995CB
:1011C00001C08FEF1F910F910895CF93DF939A0184
:1011D0002A50310927313105E8F56A30710581055A
:1011E0009105C0F52BE5269FF001279FF00D1124F6
:1011F000ED51F34F20813181232B61F14F5F5F4F20
:1012000026E0249FF001259FF00D1124EB53FF4EA3
:10121000C481D581269FD001279FB00D1124AB53E7
:10122000BF4E13965C934E9312971596DC93CE9314
:1012300014972C9FD0012D9FB00D1124AB53BF4E9E
:1012400013967C936E93129775836483462F372F82
:10125000282F04C04FEF3FEF2FEF9FEF642F732F26
:10126000822FDF91CF910895CF939C012A503109AD
:1012700027313105F8F4C6E0C89FF001C99FF00D91
:101280001124EB53FF4E228133812A30310594F42F
:1012900050DBC69FF001C79FF00D1124EB53FF4EAA
:1012A0002FEF3FEF3583248333832283462F372F5D
:1012B000282F04C04FEF3FEF2FEF9FEF642F732FC6
:1012C000822FCF910895A0E0B0E0E9E6F9E00C9418
:1012D000911ADA016E3071058105910590F4A9012A
:1012E00098016B017C0169E26C9DC0016D9D900DC0
:1012F000112480509E4FEC01E88DF98DBD011995A8
:1013000001C08FEFCDB7DEB7E8E00C94AD1A6A30BC
:10131000710581059105C8F42BE5269FF001279FF3
:10132000F00D1124ED51F34F20813181232B69F011
:1013300022E030E03183208340919111509192114D
:10134000228196DC5ED081E008958FEF0895CF92E0
:10135000DF92EF92FF92C090DF0CD090E00CE09013
:10136000E10CF090E20C8BE58C9DF0018D9DF00D71
:101370001124ED51F34FDF01A05BBF4F8C91811120
:1013800005C083E090E0918380833BD02BE52C9DCA
:10139000C0012D9D900D11249C012D51334FF90159
:1013A000E45BFF4F6081718182819381349610826A
:1013B000FF90EF90DF90CF9008954091DF0C509117
:1013C000E00C6091E10C7091E20C2BE5249FC001D0
:1013D000259F900D11248D51934FFC01E05BFF4F31
:1013E0002081213049F4DC01A45BBF4F6D917D91D8
:1013F0008D919C911082089561E070E080E090E012
:101400000895CF92DF92EF92FF9248DD8091931181
:1014100090919411A0919511B091961118161906FA
:101420001A061B0624F481E0809397116CC0C090CB
:10143000DF0CD090E00CE090E10CF090E20C8BE53A
:101440008C9DF0018D9DF00D1124ED51F34F8081A5
:101450009181019729F52281338140919111509119
:10146000921186E0849FD001859FB00D1124AB536B
:10147000BF4E12966D917C911397869FD001879FE6
:10148000B00D1124AB53BF4E8D919C9182179307E1
:10149000D0F182E090E091838083C701B601E8DB60
:1014A0008091911190919211DFDE6093DF0C709327
:1014B000E00C8093E10C9093E20C2BE5269FD00189
:1014C000279FB00D1124FD01ED51F34F41E050E095
:1014D0005183408341E050E060E070E04093D30CE2
:1014E0005093D40C6093D50C7093D60CBD01695108
:1014F000734F2C9DC0012D9D900D11248951934F48
:101500000E94CF00CEDCFF90EF90DF90CF90089547
:10151000613071058105910531F0623071058105F9
:101520009105F1F03FC08091931190919411A09199
:101530009511B0919611AC01BD014F5F5F4F6F4F98
:101540007F4F409393115093941160939511709332
:101550009611892B8A2B8B2B19F51092971120C08D
:101560008091931190919411A0919511B091961141
:10157000181619061A061B06ACF40197A109B10941
:101580008093931190939411A0939511B093961119
:10159000892B8A2B8B2B21F480919711811131DFBC
:1015A00081E008958FEF0895CF93DF936A3071053E
:1015B0008105910598F42BE5269FF001279FF00DFA
:1015C0001124ED51F34F208131812530310531F463
:1015D000D281C3819CDE8D2F9C2F02C08FEF9FEFA5
:1015E000DF91CF9108958A30910568F427E0289F14
:1015F000F001299FF00D1124EB58FF4E80818823C4
:1016000011F0818108958FEF0895CF93DF9397FFB5
:1016100003C0CFEFDFEF34C0C091A00CD091A10C7C
:1016200040E050E0A7E09E012F5F3F4F2A30310598
:1016300014F020E030E0AC9FF001AD9FF00D1124DC
:10164000EB58FF4EB081B1110FC03093A10C209325
:10165000A00C21E02083CF3F2FEFD20789F06183D8
:101660007283838394830CC04F5F5F4F4A30510570
:1016700011F0E901D8CF3093A10C2093A00CC9CF71
:10168000CE01DF91CF910895A0E0B0E0EAE4FBE065
:101690000C94911A6A3071058105910540F5ABE50E
:1016A000A69FF001A79FF00D1124ED51F34FC081CB
:1016B000D1812097E1F0DF01A05BBF4FFC90F110DA
:1016C00016C089019A016B017C01E45BFF4F008326
:1016D00011832283338321E02C93C330D10519F089
:1016E000279739F4B1D0C701B60111DE02C08FEFE0
:1016F00001C081E0CDB7DEB7E8E00C94AD1A8A30C6
:10170000910500F527E0289FF001299FF00D112495
:10171000EB58FF4E80818823A9F081819281A381BB
:10172000B481AC01BD014F5F5F4F6F4F7F4F41836D
:10173000528363837483B7FF07C08581968194DDEC
:10174000E6DD02C08FEF089581E00895A0E0B0E0EB
:10175000ECEAFBE00C94911A6A017B018A30910556
:1017600008F03DC077FD3BC027E0289FE001299F9E
:10177000D00D1124CB58DF4E8881882381F161E0A0
:1017800070E080E090E0C4DE8E010F5F1F4F259671
:10179000C114D104E104F104D9F0F80180819181F0
:1017A000A281B381AC01BD014F5F5F4F6F4F7F4F8F
:1017B0004083518362837383B7FF04C0888199811A
:1017C00053DDA5DDF1E0CF1AD108E108F108E0CF43
:1017D00062E070E080E090E09BDE81E001C08FEF8E
:1017E000CDB7DEB7E8E00C94AD1A97FF02C08FEFDB
:1017F00008959B01AC01672B682B692B11F4D0D0A5
:1018000021C0E091D10CF091D20C6091DF0C70916D
:10181000E00C8091E10C9091E20CAF018ADA8F3FED
:1018200031F38091DF0C9091E00C2BE5289FF001C3
:10183000299FF00D1124ED51F34F84E090E0918346
:101840008083DFDD81E008956A30710581059105AF
:10185000A0F52BE5269FF001279FF00D1124ED51F7
:10186000F34F208131812115310539F124303105C3
:1018700019F02730310509F546E0469FD001479F12
:10188000B00D1124AB53BF4E12962D913C9113977E
:101890002A3031057CF4429FF001439FF00D112462
:1018A000EB53FF4E408151812D913C91240F351F08
:1018B0003183208374D881E008958FEF0895F5D89F
:1018C000F7CA8A309105C0F527E0289FF001299FCB
:1018D000F00D1124EB58FF4E2081222369F1418144
:1018E00052816381748141505109610971094183B9
:1018F00052836383748377FF21C09C016091DF0C66
:101900007091E00C8091E10C9091E20C4BE5469FC8
:10191000D001479FB00D1124AD51B34F46E050E0C8
:1019200011965C934E93AA5BBF4F2D933C934581D8
:1019300056814BDC66DD02C08FEF089581E008958B
:10194000CF9361E070E080E090E0E2DDC6E080915E
:10195000D10C9091D20CC89FF001C99FF00D1124B9
:10196000EB53FF4E228133812A30310574F4C29F3C
:10197000F001C39FF00D1124EB53FF4E2081318104
:10198000232B19F471DCC3DCE2CF62E070E080E06D
:1019900090E0BEDDCF91089580EF94E004D083CA3B
:1019A00030DD81E008950F931F93CF93DF938C0177
:1019B0000E94E01AE801080F191FC017D10721F093
:1019C00089910E943A01F9CFDF91CF911F910F9138
:1019D0000895A1E5B0E0EFEEFCE00C94941A9E01AE
:1019E000265A3F4FF901419151919F0161E570E005
:1019F000CE0101960E94F01A8E010F5F1F4F8BE5FA
:101A0000F82EF8018081882359F18A3099F4809169
:101A1000DF0C9091E00CF89EF001F99EF00D11247E
:101A2000EA5CF24F60817181072E000C880B990BE4
:101A30004DE0AEDB8091DF0C9091E00CF89EF00160
:101A4000F99EF00D1124EA5CF24F60817181072E3E
:101A5000000C880B990BF80141918F0199DBD1CFD4
:101A600080E090E0CF5ADF4FE5E00C94B01A0F937E
:101A70001F9300E010E098010417150726073707A9
:101A800064F4DC01ED91CD010F5F1F4F2F4F3F4FED
:101A9000E111F2CFB801C90104C06FEF7FEF8FEF02
:101AA0009FEF1F910F910895A6E0B0E0EAE5FDE0F9
:101AB0000C94871A782E592E6E83672E69017A014D
:101AC00040E450E060E070E0D2DF4B015C0140E6B2
:101AD00050E060E070E08E81962DC9DF2FEF821616
:101AE0009206A206B20609F47AC06F3FAFEF7A07FA
:101AF0008A079A0709F473C0EEE0CE16D104E10418
:101B0000F10408F06CC00091981110919911209186
:101B10009A1130919B1108321105210531050CF005
:101B20005EC0A72DB52DE4EAE09FA001E19F500D16
:101B30001124FA01E456FE4EFB83EA8340E050E0B4
:101B4000212C312C2101281439044A045B0484F42B
:101B5000FD91F983EA81FB81E40FF51F79807082A2
:101B6000EFEF2E1A3E0A4E0A5E0A4F5F5F4FEBCF31
:101B7000EE81F62D40E050E0812C912C5401861628
:101B80009706A806B9068CF47190DA01A05CBF4FE5
:101B90004A805B80A40DB51D7C92AFEF8A1A9A0A29
:101BA000AA0ABA0A4F5F5F4FEACF84EA809FF0012A
:101BB000819FF00D1124E45CFD4EC082D182E2824F
:101BC000F3820F5F1F4F2F4F3F4F009398111093D9
:101BD000991120939A1130939B1181E001C08FEFEE
:101BE0002696E2E10C94A31AA8E0B1E0EAEFFDE04A
:101BF0000C94871A86E0E9E6F5E0DE01AF5FBE4FA0
:101C000001900D928A95E1F7109298111092991116
:101C100010929A1110929B1100E012E087E1282E99
:101C200085E0382E98ECC92E94E0D92E25E4A22E1A
:101C300025E0B22E30E2832E35E0932ECE018F5F69
:101C40009E4FFE013196412C512C32017F01DC0167
:101C50002D91CD01DF012D93222339F02FEF421A70
:101C6000520A620A720AFD01F2CFD8011896C95FC2
:101C7000DE4FA883C750D140C85FDE4FB883C8503D
:101C8000D1402FEF421A520A620A720A8FEF4816A9
:101C900051046104710409F04CF48D919FEB980F8D
:101CA0009A3108F4805E81938111EBCFFF92EF921D
:101CB000E5ECF5E0FF93EF93B5D9D80113968C913D
:101CC00013978F9312968C9112978F9311968C91F4
:101CD00011978F938C918F933F922F92A3D90FB628
:101CE000F894DEBF0FBECDBFF1E04F165F06610472
:101CF00071047CF0C85FDE4F9881C850D1409F933B
:101D0000C95FDE4FA881C750D140AF939F928F9299
:101D100019C0F801208131814281538169EC74E05E
:101D2000C701C2DE8F3FA1F4C85FDE4FF881C85003
:101D3000D140FF93C95FDE4F2881C750D1402F9318
:101D4000BF92AF926FD90F900F900F900F9005C078
:101D5000DF92CF9267D90F900F90075D1F4F84E0FD
:101D60000E33180709F06ACF81E0C85FDE4FE2E169
:101D70000C94A31A4F925F926F927F928F929F92D0
:101D8000AF92BF92DF92EF92FF920F931F93CF9388
:101D9000DF9300D01F921F92CDB7DEB7E09098116D
:101DA000F090991100919A1110919B11E982FA8299
:101DB0000B831C832CE931E1812C912C5401E980A7
:101DC000FA800B811C818E149F04A006B106ACF42E
:101DD0007C01F901412C512C3201D701419144235E
:101DE000C1F00FEFE01AF00A5C9145130AC01FEF33
:101DF000411A510A610A710AF0CF6FEF7FEFCB01F0
:101E000065C00FEF801A900AA00AB00A2C553F4F08
:101E1000D6CF7D83D62E40E051E060E070E027DE33
:101E2000698384EA889D8001899D100D11240452E4
:101E30001E4E40E051E060E070E0C80118DEA9816C
:101E40002A2FAA0F330B440B550B241935094609C9
:101E500057092B013C01B1E04B1A51086108710888
:101E6000420E531E641E751EE1E04E165E066104AE
:101E700071041CF62B013C01D801ED2DFD8181E0A0
:101E8000481A51086108710814141504160417043F
:101E90001CF48D918193F3CF1216130614061506C8
:101EA0004CF4D7018D917D01819321503109410975
:101EB0005109F2CF84EA889DF001899DF00D11242B
:101EC000E45CFD4E60817181828193810F900F905F
:101ED0000F900F900F90DF91CF911F910F91FF9076
:101EE000EF90DF90BF90AF909F908F907F906F901A
:101EF0005F904F900895CF92DF92EF92FF92FB0197
:101F0000C12CD12C7601C216D306E406F50664F482
:101F10006191DC016D93CD01662341F0BFEFCB1AD7
:101F2000DB0AEB0AFB0AEFCF8FEF01C081E0FF90E5
:101F3000EF90DF90CF900895A0E0B1E0E2EAFFE0FB
:101F40000C948D1A8B0149015A0120E031E040E0E8
:101F500050E0BC01CE010196CEDF8F3FF1F0C12CE5
:101F6000D12C76010DC020E031E040E050E0B80116
:101F7000CE010196C0DF8FEFC81AD80AE80AF80A26
:101F80008091981190919911A0919A11B0919B1103
:101F9000C816D906EA06FB0614F08FEF0AC0B8018E
:101FA000CE010196E7DE681579058A059B05D9F211
:101FB000862FD395ECE00C94A91AA0E0B1E0E3EEF3
:101FC000FFE00C94951AFC01CB018A01208131813C
:101FD00042815381BE016F5F7F4FAEDF682F880F54
:101FE000770B880B990B6F3F2FEF720782079207D1
:101FF00031F09801AE014F5F5F4FA2D801C08FEF63
:10200000D395E4E00C94B11A0F931F93CF93DF9311
:10201000FC010481158126813781FA013397E8306C
:10202000F10508F05BC08827EC55FF4F8F4F0C94EB
:102030007F1A40E5409FC001419F900D1124EC01A3
:10204000C45CD44D8CA19DA13CDCEA81FB81108154
:102050008CA19DA154DB812F42C080E5809FF001BF
:10206000819FF00D1124E45CF44D82E509C080E508
:10207000809FF001819FF00D1124E45CF44D83E416
:1020800081AF81E02CC080E5809FF001819FF00D41
:102090001124E45CF44D8BE4F3CF80E5809FF001E4
:1020A000819FF00D1124E45CF44D84A195A19BDA8D
:1020B00016C080E5809FF001819FF00D1124E45C43
:1020C000F44D81E082AF0BC080E5809FF001819FDD
:1020D000F00D1124E45CF44D12AED3CF8FEFDF91FD
:1020E000CF911F910F910895A0E0B0E0EAE7F0E1F1
:1020F0000C94911ADC011496CD90DD90ED90FC903B
:10210000179780E58C9DE0018D9DD00D11248E01E7
:10211000045C144DF80184A195A1D3DBD801ED91A5
:10212000FC9111979F012F5F3F4F11963C932E9387
:102130008081AE01405A544D2417350720F0C05C11
:10214000D44DCD93DC9390E59C9DF0019D9DF00DC9
:102150001124E45CF44D91AD933461F4DF01AE5B86
:10216000BF4F9C91992331F0ED5BFF4F9081891314
:1021700001C08EEFCDB7DEB7E8E00C94AD1ACF9377
:10218000C82F8A3011F08D3059F4FB0185AD8823BA
:1021900039F08DE090E00E943A018AE090E015C0AD
:1021A00080EE8C0F8F3570F0FB0184AD882351F0E9
:1021B0008EE590E00E943A0180E48C0F082E000C1E
:1021C000990B03C08C2FCC0F990B0E943A01CF9131
:1021D0000895EF92FF921F93CF93DF93EC01142F9A
:1021E0008CA19DA100DA082E000C990BAA0BBB0B49
:1021F000B7FF03C080E090E0DC0129AD2235C1F4D7
:102200008097A105B1050CF058C1EA81FB81CF018F
:1022100001969B838A8310832A813B81CE01849619
:102220002817390708F423C180979B838A831FC12D
:102230001D3019F43EAD31111AE0FE01E55BFF4F90
:1022400010822B34F1F48097A105B1050CF0E6C0A3
:10225000EA81FB81CF0101969B838A8310832A81C7
:102260003B81CE0184962817390718F080979B830D
:102270008A838AAD882309F4FAC0BE01812F7FDFEB
:10228000F6C0FE01EB5BFF4F80819E012A5B3F4F52
:102290007901181320C0319780818823E1F08A8169
:1022A0009B81F90120813181821B930B9E012C5F60
:1022B0003F4F8217930708F480969B838A83F70128
:1022C00010821182128213828DE090E00E943A0106
:1022D0008AE090E0A9C0FE01E05CFF4F8081181702
:1022E00021F031968081181352C08FAD882309F4F4
:1022F0004EC0F70180819181A281B3811816190621
:102300001A061B060CF0D9C00197A109B1098083F8
:102310009183A283B3838A819B819C0121503109DF
:10232000AE014C5F5F4F2417350718F03B832A83BB
:1023300003C04F969B838A838AAD882309F4BDC06E
:10234000EA81FB81808180528F3590F08CAD8823AB
:1023500079F088E090E00E943A018BAD882341F04B
:1023600080E290E00E943A0188E090E00E943A0109
:1023700088E090E00E943A018BAD882309F49DC06B
:1023800080E290E00E943A0188E090E04DC01A306F
:1023900011F01D3049F58AAD882319F0BE01812F57
:1023A000EEDEEA81FB81CF0101969B838A83108355
:1023B0002A813B81CE0184962817390718F080972F
:1023C0009B838A83F70140815181628173814F5FD2
:1023D0005F4F6F4F7F4F8CA19DA1B8D9F70110823D
:1023E00011821282138269C08CA19DA1FCD8082E93
:1023F000000C990BAA0BBB0BB7FF03C080E090E069
:10240000DC01F7014081518162817381840F951F46
:10241000A61FB71F4F97A105B1054CF0C15BDF4F59
:102420008881082E000C990B0E943A0146C0FE01DB
:10243000ED5BFF4F90818AAD19131DC031979081DC
:102440009923C9F0882319F0BE01812F98DEF70186
:1024500080819181A281B381892B8A2B8B2B69F595
:10246000EA81FB81CF0101969B838A8310838CA133
:102470009DA145D922C0882319F0BE01812F7FDE9E
:10248000F70180819181A281B3810196A11DB11DC7
:1024900080839183A283B383EA81FB81CF0101967C
:1024A0009B838A8310832A813B81CE0184962817DF
:1024B000390718F080979B838A83DF91CF911F9112
:1024C000FF90EF900895CF92DF92EF92FF92CF931B
:1024D000DF93FC01E55BFF4F208121116BC0EC0114
:1024E0002CA93DA98EA99FA92817390761F02CA90D
:1024F0003DA98EA99FA92817390759F4C12CD12CC1
:102500007601C3941FC08AA99BA96DD888307CF33B
:1025100051C0EEA1FFA1CF0101969FA38EA38081A0
:10252000082E000C990B0E943A012CA93DA9CE015E
:10253000C9962817390718F001979DAB8CABC12CB1
:10254000D12C76018AA99BA94ED828E030E0281B1F
:10255000310987FD3395CA94CD28CE28CF2801F5BF
:1025600012161306ECF4EEA1FFA1CF0101969FA372
:102570008EA38081082E000C990B0E943A012EA197
:102580003FA1CE01C2962817390718F008979FA3DC
:102590008EA341E050E060E070E08AA99BA9D6D804
:1025A0002CA93DA98EA99FA92817390719F48AA932
:1025B0009BA919D8DF91CF91FF90EF90DF90CF903A
:1025C0000895609104027091050250E5569FC00184
:1025D000579F900D1124845C944D60E070E0232B94
:1025E00009F071CFF6CD0F931F93CF93DF93FC01CA
:1025F00084819581A681B78120E5289F8001299F4C
:10260000100D1124C801805C944DE801C45CD44DC8
:102610009B838A839983888360E070E0CB010E946A
:10262000050B9DA38CA3C8018A59944D99A788A72F
:102630009FA38EA368E070E080E090E00E94050B0D
:102640009BAB8AAB0C58144D1FAB0EAB1DAB0CAB48
:1026500083E489AF81E08AAF8BAF8CAF8DAF8EAF53
:102660008FAFFE01E05CFF4F98E0908331969FE7CB
:10267000908331968083319694E090833196808365
:10268000319695E1908331961082118212821382E5
:102690003496808331961082319693E190833196FF
:1026A00091E1908331968083C15BDF4F87E088831F
:1026B00081E0DF91CF911F910F910895F89421E06F
:1026C00030E048E561E070E080E090E07ADF789407
:1026D00008958F929F92AF92BF92DF92EF92FF92F6
:1026E0000F931F93CF93DF937C01D62EFC01848040
:1026F0009580A680B780FAE06F130EC080E5889DB4
:10270000F001899DF00D1124E657F44D8081882356
:1027100019F06DE0C701DDDF80E5889D8001899DAE
:10272000100D1124E801C45CD44D8AA99BA9C9D815
:10273000E8A5F9A5CF01019699A788A7D082C8017D
:102740008259944D28A539A52817390720F00A5930
:10275000144D19A708A7F70184A195A1AFDF81E067
:10276000DF91CF911F910F91FF90EF90DF90BF907D
:10277000AF909F908F900895A0E0B0E0E1ECF3E17E
:10278000CCC68C017B0149015A0157FD5BC0FC019D
:1027900084819581A681B78120E5289FF001299F3A
:1027A000F00D1124E45CF44D81AD833469F18114A2
:1027B0009104A104B10471F484A195A10E94F30ACB
:1027C000882E880F9908AA08BB0881149104A104D7
:1027D000B104D1F1E701C12CD12C7601C814D90480
:1027E000EA04FB044CF4C8017FDC8993FFEFCF1AA5
:1027F000DF0AEF0AFF0AF2CFD501C401B7FE27C0F6
:1028000080E090E0DC0123C0C8016EDC8E3FF1F077
:10281000E7018993C12CD12C7601C394C814D90443
:10282000EA04FB0414F08C2D12C08A30E1F38D30E1
:10283000D1F3C80159DC89939FEFC91AD90AE90A73
:10284000F90AECCF8FEF03C080E001C08EEFCDB767
:10285000DEB7ECE07EC6A0E0B0E0E0E3F4E161C604
:102860008C0169017A0157FD11C0232B242B252BE4
:1028700011F481E00CC0EB016991C8012ADF81E00D
:10288000C81AD108E108F108B9F7F3CF8FEFCDB737
:10289000DEB7E8E062C681E008951092A30C1092C2
:1028A000A20C81E00895CF93DF93EC018B818F938D
:1028B0008A818F9389818F9388818F938FE695E0AA
:1028C0009F938F930E9412080F900F900F900F907C
:1028D0000F900F908881DF91CF9108958091A20C85
:1028E0009091A30C092E000CAA0BBB0B820F931F17
:1028F000A41FB51F883E9340A105B10510F481E0E7
:1029000008958FEF08956091A20C7091A30CCB01F4
:10291000072E000CAA0BBB0B820F931FA41FB51F21
:10292000883E9340A105B10540F4260F371F309330
:10293000A30C2093A20C81E008958FEF089581E00D
:102940000895089581E0089581E0089581E0089553
:10295000A0E0B0E0EDEAF4E1DAC5F901E601170123
:10296000C12CD12C7601C39440E050E0BA0123E0A1
:10297000422E512C612C712C4601570121E0821A04
:102980009108A108B108DC012C91211108C0F801BF
:102990004083518362837383B401C501C3C02A306D
:1029A000B1F329E0C216D104E104F104A9F0DC017D
:1029B0001AC0488259826A827B82373209F061C02C
:1029C0004A015B010196DC0111972C91321709F441
:1029D00098C02A3009F058C06FEF7FEF8FEF9FEF5C
:1029E000A1C0393029F4CD013D913032D1F7FBCF70
:1029F0003A3039F4D8014D935D936D937C931397DE
:102A0000CBCF3323B9F3D1014D935D936D937D9378
:102A10001D0101963C33A1F03E33B9F0363249F640
:102A2000188219821A821B82DF01A40FB51F3C9302
:102A30004A015B01BFEF8B1A9B0AAB0ABB0A19C0A4
:102A4000812C912C5401839405C022E0822E912C7C
:102A5000A12CB12C88829982AA82BB82DF01A40FAB
:102A6000B51F3C934A015B012FEF821A920AA20A1A
:102A7000B20ADF01A80DB91D4E5F5F4F6F4F7F4F48
:102A800049C0323271F49CCF222309F4A5CFDF0173
:102A9000A80DB91D2C93AFEF8A1A9A0AAA0ABA0A8E
:102AA00091CFDF01A40FB51F3C934A015B01BFEF3B
:102AB0008B1A9B0AAB0ABB0AAC01CA01DA012D9141
:102AC000AD012A30F1F02223E1F0322F3D7F3C337B
:102AD00009F482CF2032A9F0293099F0263289F00A
:102AE000273209F479CF223209F476CFCF01880D4D
:102AF000991DDC012C93BFEF8B1A9B0AAB0ABB0A12
:102B0000DCCFB501A4014F5F5F4F6F4F7F4FDF01F7
:102B1000A80DB91D1C92BFEFCB1ADB0AEB0AFB0A0A
:102B200024962ACFCDB7DEB7E2E10DC54F925F9272
:102B30006F927F92AF92BF92CF92DF92EF92FF920D
:102B40000F931F93CF93DF9382EA96E09F938F9327
:102B5000C5ECD5E0DF93CF930E94120882E796E0A0
:102B60009F938F93DF93CF930E941208C3EEDCE014
:102B700001E21DE08DB79EB708960FB6F8949EBF90
:102B80000FBE8DBF412C512C320186E7C82E85E047
:102B9000D82E9CE7E92E95E0F92E28ECA22E24E011
:102BA000B22E88819981892B09F44AC07F926F9255
:102BB0005F924F921F930F93DF92CF920E94120861
:102BC000F80185858F9384858F9383858F93828584
:102BD0008F93FF92EF920E9412088B818F938A81CC
:102BE0008F93FF92EF920E94120889818F938881C0
:102BF0008F93FF92EF920E9412088DAD8F938CAD50
:102C00008F938BAD8F938AAD8F93FF92EF920E943B
:102C10001208F80181858F9380858F93FF92EF9240
:102C20000E9412088DB79EB780960FB6F8949EBF8B
:102C30000FBE8DBFBF92AF920E9412080F900F90EF
:102C40009FEF491A590A690A790AC55ADF4F055A8E
:102C50001F4FEAE04E1651046104710409F0A1CF40
:102C600080E0DF91CF911F910F91FF90EF90DF9067
:102C7000CF90BF90AF907F906F905F904F900895EE
:102C80004F925F926F927F92AF92BF92CF92DF92FC
:102C9000EF92FF920F931F93CF93DF93029754F01D
:102CA00081E895E09F938F930E9412080F900F90F8
:102CB00081E058C087E995E09F938F930E941208A6
:102CC0008BEA95E09F938F930E941208C0E0D2E0B8
:102CD0000F900F900F900F90412C512C320189E7EB
:102CE000A82E85E0B82E94ECC92E95E0D92E28E7C1
:102CF000E22E25E0F22E08EC14E07F926F925F92B4
:102D00004F92BF92AF920E941208CE0108969F93F5
:102D10008F93DF92CF920E9412088F818F938E81C2
:102D20008F938D818F938C818F93FF92EF920E946E
:102D300012081F930F930E9412088FEF481A580A27
:102D4000680A780AA9968DB79EB742960FB6F8948E
:102D50009EBF0FBE8DBF9EE04916510461047104F1
:102D600061F680E0DF91CF911F910F91FF90EF907E
:102D7000DF90CF90BF90AF907F906F905F904F901B
:102D8000089588EC95E09F938F930E9412080F900E
:102D90000F90C4EDD5E0DF93CF930E94120864E654
:102DA00070E080E090E00E94F50B0F900F90F3CF61
:102DB000A0E0B0E0EDEDF6E1ACC312161306140688
:102DC00015060CF044C0F7FC42C0F8017901EE0C86
:102DD000FF1CABE5A69F8001A79F100D1124C12CFD
:102DE000D12C419051906190719048018C0C9D1CA8
:102DF000D401AD51B34F4A0C5B1C9D965C924E9230
:102E00009C97B2E0CB0ED11CCE14DF0451F7EBE55A
:102E1000E69F8001E79F100D1124D801AD51B34FFB
:102E20009B963C932E939A97F9017696EE0FFF1F8F
:102E3000CF01800F911FFC01ED51F34F11821082E1
:102E40005C962C935C975D961C9281E001C08FEF9D
:102E5000E0E17BC3ACEAB0E0EFE2F7E158C38CE518
:102E600094E09F938F938BED95E09F938F930E94B7
:102E700012080F900F900F900F909E012F5F3F4F01
:102E80001901AE0145565F4FCD55DF4F5983488339
:102E9000C35AD04060EE75E07F936F930E94120892
:102EA00001E210E020E030E0AE01465D5F4F60E0FF
:102EB00070E0CB010E946309482F880F550B660B09
:102EC000770B0F900F904E3F9FEF590769077907D7
:102ED00009F4E9C24230510561057105DCF2EAE20C
:102EE000F0E0EC0FFD1FE40FF51F8AE08083DE01A8
:102EF000A55BBF4F6D01FE01E559FF4F7F018E01BC
:102F000001561F4F9101CE018A9622DD2B013C0113
:102F10006F3FFFEF7F078F079F0741F427EE35E0F4
:102F20003F932F9385EF95E09F93C5C16115710580
:102F30008105910529F488EC94E09F938F93D8C183
:102F4000AB01BC014150510961097109FA01EE0F51
:102F5000FF1FEE0FFF1F8BE490E08C0F9D1FE80F0B
:102F6000F91F80819181A281B381892B8A2B8B2BC0
:102F7000E1F4C156DF4F88819981AA81BB81CF5985
:102F8000D0400297A109B109C156DF4F88839983C8
:102F9000AA83BB83CF59D0402A013B0191E0C7559A
:102FA000DF4F9883C95AD04005C0C755DF4F1882FC
:102FB000C95AD040A3E04A165104610471040CF4CC
:102FC000F3C0B301A2014250510961097109FA012C
:102FD000EE0FFF1FEE0FFF1FABE4B0E0AC0FBD1F05
:102FE000AE0FBF1F0D911D912D913C91D901C801CC
:102FF0000197A109B1090297A105B10508F04CC0DC
:10300000D301C2010197A109B109880F991F880F47
:10301000991FABE4B0E0AC0FBD1FA80FB91FCD9056
:10302000DD90ED90FC90B3E0CB16D104E104F10407
:1030300009F074CFABE6B0E0AC0FBD1FA80FB91F0D
:10304000013011052105310539F42D913C91220DF6
:10305000331D80E090E006C08D919C91820D931D00
:1030600020E030E0ABE6B0E0AC0FBD1FEA0FFB1F85
:10307000C080D180E280F380C156DF4FC882D98200
:10308000EA82FB82CF59D0402A013B0143305105EF
:10309000610571052CF48CC020E030E080E090E008
:1030A000B301A2014250510961097109CB55DF4FAB
:1030B000488359836A837B83C55AD040BA01660F1F
:1030C000771F660F771FEBE4F0E0EC0FFD1FE60FB4
:1030D000F71FC080D180E280F3804601570151E0A4
:1030E000851A9108A108B108A2E08A169104A104EA
:1030F000B10408F05DC053014201B1E08B1A9108A0
:10310000A108B108A401440F551F440F551FEBE45B
:10311000F0E0EC0FFD1FE40FF51F80809180A2808E
:10312000B380E3E08E169104A104B10409F0F6CE59
:10313000F1E0CF16D104E104F10471F4232B09F07E
:10314000EDCEEBE6F0E0EC0FFD1FE40FF51F208164
:103150003181220D331D0DC0892B09F0DFCEEBE646
:10316000F0E0EC0FFD1FE40FF51F80819181820DCF
:10317000931DEBE6F0E0EC0FFD1FE60FF71F40811B
:10318000518162817381C156DF4F488359836A83BD
:103190007B83CF59D040CB55DF4F488059806A8020
:1031A0007B80C55AD04004C020E030E080E090E051
:1031B000FE01E55BFF4F40E050E0BA0144155505C4
:1031C000660577057CF4C190D190E190F19013E011
:1031D000C116D104E104F104F1F44F5F5F4F6F4F6A
:1031E0007F4FECCF4114510461047104A1F048E613
:1031F00056E0C655DF4F59834883CA5AD040C09025
:103200004004D0904104E0904204F0904304812CAB
:10321000912C54012EC067EE75E07F936F9368C0C8
:10322000BF01DA011D91AD01CB55DF4F1883C55A9F
:10323000D040112309F447C03196DB016C91CB5586
:10324000DF4FB881C55AD040B61751F34FEF841AFB
:10325000940AA40AB40AC655DF4F68817981CA5A14
:10326000D0406B5F7F4FC655DF4F79836883CA5A62
:10327000D0408C149D04AE04BF04C1F0C655DF4F8E
:10328000A881B981CA5AD040BC91C455DF4FB883D8
:10329000CC5AD040C655DF4FE881F981CA5AD04098
:1032A00001814B2F502FFE013196BACF3F922F92C2
:1032B00089EF95E09F938F930E9412080F900F90D3
:1032C0000F900F90E7CD40814111C0CF45E0489D60
:1032D000F001499DF00D1124E859F94F4281442332
:1032E00009F446C0232B49F0EFE0F6E0FF93EF939B
:1032F0000E9412080F900F90CDCD892BA9F7C755CA
:10330000DF4FB881C95AD040B111EECFDE01A559C7
:10331000BF4FFE01E557FF4F00E010E09801AF01FD
:10332000041515052605370574F4CD90DD90ED9054
:10333000FD90C1018C0D9D1D819391930F5F1F4FD7
:103340002F4F3F4FEDCF85E0889DF001899DF00D17
:103350001124E859F94F0380F481E02DC301B20133
:1033600019956D3F7F4F8F4F9F4F09F093CD9BC0B5
:10337000CC55DF4F3881C45AD0403F93CD55DF4FF5
:103380004881C35AD0404F937F926F925F924F9281
:103390001F9282E08F930F93C455DF4F5881CC5A10
:1033A000D0405F931F9284E18F9381E08F931F92AF
:1033B00084818F9383818F930E948202CB55DF4F4C
:1033C000688379838A839B83C55AD0400FB6F8946B
:1033D000DEBF0FBECDBFCB55DF4F88819981AA815B
:1033E000BB81C55AD0408F3F9F4FAF4FBF4F29F48D
:1033F0002CE336E03F932F937BCFC156DF4FC8803D
:10340000D980EA80FB80CF59D040BE0165567F4FFE
:103410004B0151018E0105591F4FA3019201CB555C
:10342000DF4F688179818A819B81C55AD040C0DC99
:103430008F3FF1F22BE5CB55DF4FA881B981C55AFB
:10344000D0402A9FC0012B9F900D11248D51934F86
:10345000FC01EF5AFF4F11821082329611821082C6
:103460000E94DD09CB55DF4F688179818A819B817C
:10347000C55AD0400E94D40AC755DF4FB881C95AF7
:10348000D040B11107CD0E94A709CB55DF4F28814D
:1034900039814A815B81C55AD0406217730784071E
:1034A000950789F7F7CC83E596E09F938F930E9469
:1034B00012080F900F9061E070E080E090E0C4553A
:1034C000DF4FE2E140C0052E97FB16F400940FD0C9
:1034D00057FD05D053D007FC02D046F408C05095E4
:1034E0004095309521953F4F4F4F5F4F08959095F0
:1034F0008095709561957F4F8F4F9F4F0895EE0F88
:10350000FF1F881F8BBF0790F691E02D19942F9213
:103510003F924F925F926F927F928F929F92AF9263
:10352000BF92CF92DF92EF92FF920F931F93CF93B0
:10353000DF93CDB7DEB7CA1BDB0B0FB6F894DEBF47
:103540000FBECDBF19942A88398848885F846E845D
:103550007D848C849B84AA84B984C884DF80EE80B7
:10356000FD800C811B81AA81B981CE0FD11D0FB6C0
:10357000F894DEBF0FBECDBFED010895A1E21A2E73
:10358000AA1BBB1BFD010DC0AA1FBB1FEE1FFF1F07
:10359000A217B307E407F50720F0A21BB30BE40B57
:1035A000F50B661F771F881F991F1A9469F760959E
:1035B0007095809590959B01AC01BD01CF01089558
:1035C000FC0105900020E9F7809590958E0F9F1FD4
:1035D0000895DC0101C06D9341505040E0F708951B
:1035E0000F931F93CF93DF93CDB7DEB72E970FB610
:1035F000F894DEBF0FBECDBF8C01FA0186E08C834C
:103600001A83098377FF02C060E070E8CB0101975D
:103610009E838D83A901BF01CE01019619D04D81F2
:103620005E8157FD0AC02F813885421753070CF47D
:103630009A01F801E20FF31F10822E960FB6F8944C
:10364000DEBF0FBECDBFDF91CF911F910F910895C7
:103650002F923F924F925F926F927F928F929F92A2
:10366000AF92BF92CF92DF92EF92FF920F931F9390
:10367000CF93DF93CDB7DEB72B970FB6F894DEBFAD
:103680000FBECDBF6C017B018A01FC01178216823F
:10369000838181FFBFC1CE0101963C01F601938178
:1036A000F70193FD859193FF81917F01882309F4B0
:1036B000ADC1853239F493FD859193FF81917F01EE
:1036C000853221F4B60190E0D6D1E8CF912C212C9F
:1036D000312CFFE1F315D8F08B3279F038F48032D9
:1036E00079F08332A1F4232D20611DC08D3261F069
:1036F000803369F4232D216016C0832D8260382E1B
:10370000E32DE4603E2E2AC0F32DF8601DC037FC87
:103710002DC020ED280F2A3040F08E32B9F436FC4F
:1037200075C1232D2064322E19C036FE06C08AE0F2
:10373000989E200D1124922E11C0EAE02E9E200D9D
:103740001124222EF32DF0623F2E08C08C3621F476
:10375000832D8068382E02C0883641F4F70193FD2E
:10376000859193FF81917F018111B3CF982F9F7D28
:103770009554933028F40C5F1F4F9FE399830DC03D
:10378000833631F0833771F0833509F055C020C09E
:10379000F801808189830E5F1F4F88248394912CC8
:1037A000530112C02801F2E04F0E511CF801A08015
:1037B000B18036FE03C0692D70E002C06FEF7FEF6D
:1037C000C5014ED14C018201F32DFF773F2E15C06C
:1037D000280122E0420E511CF801A080B18036FE83
:1037E00003C0692D70E002C06FEF7FEFC5012DD1DE
:1037F0004C01F32DF0683F2E820133FC19C0822D5D
:1038000090E088169906A0F4B60180E290E033D1EA
:103810002A94F5CFF50137FC859137FE81915F0140
:10382000B60190E028D121102A9421E0821A910853
:103830008114910479F7E1C0843611F0893639F5A5
:10384000F80137FE07C060817181828193810C5F2E
:103850001F4F08C060817181072E000C880B990BE7
:103860000E5F1F4FF32DFF763F2E97FF09C09095F7
:103870008095709561957F4F8F4F9F4FF0683F2ED9
:103880002AE030E0A30133D1882E861844C0853762
:1038900031F4232D2F7EB22E2AE030E025C0932D67
:1038A000997FB92E8F36C1F018F4883579F0AEC003
:1038B000803719F0883721F0A9C0E92FE061BE2ECA
:1038C000B4FE0DC0FB2DF460BF2E09C034FE0AC04B
:1038D000292F2660B22E06C028E030E005C020E186
:1038E00030E002C020E132E0F801B7FE07C060819D
:1038F0007181828193810C5F1F4F06C0608171814D
:1039000080E090E00E5F1F4FA301F1D0882E861853
:10391000FB2DFF773F2E36FE0DC0232D2E7FA22ECE
:10392000891458F434FE0BC032FC09C0832D8E7EFE
:10393000A82E05C0B82CA32C03C0B82C01C0B92CEC
:10394000A4FE0FC0FE01E80DF11D8081803321F43B
:103950009A2D997EA92E09C0A2FE06C0B394B394F5
:1039600004C08A2D867809F0B394A3FC10C0A0FE91
:1039700006C0B21480F4280C922C9B180DC0B2140F
:1039800058F4B60180E290E076D0B394F8CFB21448
:1039900018F42B1802C0982C212CA4FE0FC0B601DD
:1039A00080E390E068D0A2FE16C0A1FC03C088E7C7
:1039B00090E002C088E590E0B6010CC08A2D8678C0
:1039C00051F0A1FE02C08BE201C080E2A7FC8DE2B3
:1039D000B60190E050D0891430F4B60180E390E055
:1039E0004AD09A94F8CF8A94F301E80DF11D8081B2
:1039F000B60190E040D08110F6CF222009F44ECEDF
:103A0000B60180E290E037D02A94F7CFF6018681A4
:103A1000978102C08FEF9FEF2B960FB6F894DEBF11
:103A20000FBECDBFDF91CF911F910F91FF90EF900F
:103A3000DF90CF90BF90AF909F908F907F906F90CE
:103A40005F904F903F902F900895FC01059061503A
:103A500070400110D8F7809590958E0F9F1F0895A4
:103A6000FC016150704001900110D8F7809590954D
:103A70008E0F9F1F08950F931F93CF93DF93FB012A
:103A8000238121FD03C08FEF9FEF2CC022FF16C0C2
:103A900046815781248135814217530744F4A08120
:103AA000B1819D012F5F3F4F318320838C9326810D
:103AB00037812F5F3F4F3783268314C08B01EC0182
:103AC000FB010084F185E02D1995892BE1F6D801E1
:103AD00016968D919C911797019617969C938E93AD
:103AE0001697CE01DF91CF911F910F910895FA01A2
:103AF000AA27283051F1203181F1E8946F936E7F2D
:103B00006E5F7F4F8F4F9F4FAF4FB1E03ED0B4E01D
:103B10003CD0670F781F891F9A1FA11D680F791F5E
:103B20008A1F911DA11D6A0F711D811D911DA11D6F
:103B300020D009F468943F912AE0269F112430197F
:103B4000305D3193DEF6CF010895462F4770405D1A
:103B50004193B3E00FD0C9F7F6CF462F4F70405DC9
:103B60004A3318F0495D31FD4052419302D0A9F724
:103B7000EACFB4E0A6959795879577956795BA951E
:103B8000C9F700976105710508959B01AC010A2EE4
:103B900006945795479537952795BA95C9F7620FBB
:0A3BA000731F841F951FA01D0895D8
:103BAA000000000000000000434F4E534F4C4500F8
:103BBA000000F31256075607BC132B14540774104F
:103BCA00691304100038E1123501000000000000FA
:103BDA00004750494F300000000000A21456075613
:103BEA0007A414A6145407560756079F140008A1E1
:103BFA00146302000000010000004750494F3100E1
:103C0A0000000000A21456075607A414A61454076D
:103C1A00560756079F140108A11464030000000206
:103C2A000000004750494F320000000000A214561D
:103C3A00075607A414A6145407560756079F1402DA
:103C4A0008A1146E04000000030000004750494F09
:103C5A00330000000000A21456075607A414A61445
:103C6A005407560756079F140208A1146E05000050
:103C7A0000040000004750494F340000000000A231
:103C8A001456075607A414A6145407560756079F36
:103C9A00140208A1146E0600000005000000475037
:103CAA00494F350000000000A21456075607A41415
:103CBA00A6145407560756079F140208A1146E0744
:103CCA00000000060000004750494F36000000007F
:103CDA0000A21456075607A414A6145407560756EA
:103CEA00079F140208A1146E0800000000000000DB
:103CFA004E554C4C44455600000056075607560789
:103D0A005607560754075607560754070000540724
:103D1A000009000000000000004E414D455350418B
:103D2A00434500F40DDD0F54075407540754075454
:103D3A00075407540700005407000A000000000057
:103D4A000000454550524F4D300000004D145314A9
:103D5A004B146E1483145407540754075407000075
:103D6A005607000B000000010000005646530000F1
:103D7A0000000000004D1453144B146E14831454A5
:103D8A000754075407540700005607000C000000A8
:103D9A0002000000534443415244000000004D1405
:103DAA0053144B146E1483145407540754075407BE
:103DBA0000005607000D00000003000000535241A6
:103DCA004D0000000000004D1453144B146E148370
:103DDA0014540754075407540700005607000A00F2
:103DEA00020000006572726F72206D616C6C6F6305
:103DFA003A202573202C2025640A000A57656C6333
:103E0A006F6D6520746F2058696E75210A005869B4
:103E1A006E75204F5320436F7079726967687420FA
:103E2A0028632920323031322C20323031350A00D1
:103E3A0044616E69656C204564756172646F2051D6
:103E4A0075696E7465726F2056696C6C656761730B
:103E5A000A000A0A0A467265654D454D3A256420EC
:103E6A00286279746573290A0A006E756C6C700091
:103E7A00626C696E6B0072656164790A006E756CBA
:103E8A006C70726F636573730A0073746F700A00E3
:103E9A000A0A416C6C20757365722070726F6365D3
:103EAA0073736573206861766520636F6D706C65E6
:103EBA007465642E0A0A00096964203A20256400A0
:103ECA006E616D6573706163653A206465766963D6
:103EDA0065206E616D6520257320746F6F206C6F8D
:103EEA006E670D0A006E616D6573706163653A20D5
:103EFA0063616E6E6F74206D6F756E742064657683
:103F0A006963652025640D0A002F6465762F0069B0
:103F1A00643A25690A002573092564000925642085
:103F2A00004E6F20617267756D656E747320616CE7
:103F3A006C6F7765640A000A446576696365094EA1
:103F4A00616D65094D696E6F720A002D2D2D2D2D3B
:103F5A002D2D2D2D2D2D2D2D2D2D2D2D2D2D2D2D87
:103F6A002D2D0A0009257300617175692065737426
:103F7A006F790A00626C696E6B0A0025730A0A007F
:103F8A007873682024200053796E746178206572F2
:103F9A00726F720A0025730A00636F6D6D616E6439
:103FAA00202573206E6F7420666F756E640A004355
:103FBA00616E6E6F742072656469726563742049FC
:103FCA002F4F206F72206261636B67726F756E6428
:103FDA002061206275696C74696E0A0043616E6EB5
:103FEA006F74206372656174652070726F636573A4
:103FFA00730A005368656C6C20636C6F7365640A9E
:10400A000070730064657600610601961564060106
:10401A0040160A6E616D6509696409706172656EA0
:10402A0074097072696F0973746174650973746BCA
:10403A006C656E0973656D2077616974730A2D2D3D
:10404A000A000A7461626C65206F66206375727279
:10405A00656E742070726F6365737365730A00000E
:00000001FF
