S00F00006E6F746D61696E2E737265631F
S3152000000020E0C04645000020550000205500002075
S3152000001055000020550000205500002055000020E6
S3152000002055000020550000205500002055000020D6
S3152000003055000020550000205500002055000020C6
S31520000040550000200449054808600548854600F00B
S3152000005083F8FFE7FEE7C04608ED00E00000002039
S3152000006000200020C046C046C046C046C046C04606
S31520000070C046C046C046C046C046C046C046C0462A
S31520000080000000000000000000000000000000004A
S31520000090000000000000000000000000000000003A
S315200000A0000000000000000000000000000000002A
S315200000B0000000000000000000000000000000001A
S315200000C0000000000000000000000000000000000A
S315200000D000000000000000000000000000000000FA
S315200000E000000000000000000000000000000000EA
S315200000F000000000000000000000000000000000DA
S31520000100016070470068704770B5050020240548D7
S31520000110FFF7F8FF0442FAD129000348FFF7F0FF62
S3152000012070BDC046184003400040034070B505002E
S3152000013020240F262B00043CE340334018003030A7
S31520000140092B01D937331800FFF7DEFF002CF1D138
S315200001502020FFF7D9FF70BD70B500213F48FFF77B
S31520000160CFFFAA213E480901FFF7CAFF2F213D48AC
S31520000170FFF7C6FF3C493D48FFF7C2FF3C48FFF763
S31520000180C1FF0028FADA02213A48FFF7B9FF002119
S315200001903948FFF7B5FF882138480901FFF7B0FF36
S315200001A020213748FFF7ACFF20243648FFF7AAFF67
S315200001B00442FAD0802180243148C903FFF7A0FFEA
S315200001C0E4033048FFF79EFF2042FAD006212E484E
S315200001D0FFF796FF21212D48FFF792FF70212C482B
S315200001E0FFF78EFF2B492C48FFF78AFF02212B4869
S315200001F0FFF786FF02212A48FFF782FF00242025E9
S3152000020004E02848FFF77EFF054220D0642CF8D171
S3152000021000242000FFF78AFF0D20FFF775FF013429
S315200002200A20FFF771FF642CF3D1543C1D48FFF7D9
S3152000023069FF0442FAD11C48FFF764FFFFF776FFF7
S315200002400D20FFF761FF0A20FFF75EFFEEE755213D
S315200002501548FFF755FF0134D8E7C046788000409F
S31520000260004002400C40024000B0FA00006002400C
S3152000027004400240308000403C80004048800040DE
S3152000028000F0004008C000402440034028400340BE
S315200002902C4003400103000030400340044001404D
S311200002A00C400140184003400040034081
S70520000000DA
